:0C0387000A0809AF988C2E4C488F080C17
:040363007F057E0094
:10036700E4FDFCC3ED9FEC9E5015E4FBFA0BBB00CC
:0F037700010AEB647B4A70F50DBD00010C80E4B8
:010386002254
:10000600C288D2A8D2AFC2A0D2A2D2A3C2A5D2A47D
:10001600D2A175120075131ED3E5139404E512647C
:100026008094805040D2A0C2A1E4F514F5151202C6
:10003600D1AE12AF137C007D0A1202467F03120274
:10004600E0D2B4D2B50515E51570020514C394289F
:10005600E5146480948040D6D2B6D2B77FF47E0190
:100066001203678059E4F514F5151202D1AE12AFEA
:10007600137C007D0A1202467F031202E0E5132478
:10008600FBFFE51234FFFE7C007D0A120246AD0737
:10009600E4FF1202E0E51324FBFFE51234FFFE7CC9
:1000A600007D0A1202467F011202E00515E5157071
:1000B600020514C39428E5146480948040ACE513CB
:1000C600151370021512C3E5126480948040030272
:1000D600001ED2A0C2A2C2A3D2A5D2A4D2A17512DA
:1000E6000075131EC3E51264809480500302000C51
:1000F600D3E5139404E51264809480504FD2A3C2D2
:10010600A4E4F514F515AE12AF137C007D0A1202B5
:1001160046AD07E4FF1202E0AE12AF137C007D0A83
:100126001202467F011202E0D2B6D2B70515E515D6
:1001360070020514C39428E5146480948040C7D2E5
:10014600B4D2B57FF47E01120367805DE4F514F541
:1001560015AE12AF137C007D0A120246AD07E4FF0E
:100166001202E0AE12AF137C007D0A1202467F0136
:100176001202E0E51324FBFFE51234FFFE1202D55E
:10018600E51324FBFFE51234FFFE7C007D0A120214
:10019600467F031202E00515E51570020514C394A7
:1001A60028E5146480948040A8E5131513700215A1
:0401B600120200EA47
:0300030002032CC9
:10032C00C0E0C0D075D000C002C003C004C005C07E
:10033C0006C007D2B4D2B5D2B6D2B7D2A5D2A2D209
:10034C00A3D2A0D2A4D2A17FE87E03120367C2A4D9
:07035C00C2A112036780EC4F
:0F02D100AE12AF137C007D0A120246AD077F020A
:1002E000A905EF1460191460251460312403703BD4
:1002F000740829F8E6F580C2B4120363D2B42274FC
:100300000829F8E6F580C2B5120363D2B522740855
:1003100029F8E6F580C2B6120363D2B62274082922
:0C032000F8E6F580C2B7120363D2B722E2
:030000000201BA40
:0C01BA00787FE4F6D8FD75811502020183
:10024600C2D5EC30E709B2D5E4C39DFDE49CFCEED3
:1002560030E715B2D5E4C39FFFE49EFE12027CC3CD
:10026600E49DFDE49CFC800312027C30D507C3E4C8
:060276009FFFE49EFE2242
:1001C600020006E493A3F8E493A34003F68001F249
:1001D60008DFF48029E493A3F85407240CC8C3333A
:1001E600C4540F4420C8834004F456800146F6DF09
:1001F600E4800B0102040810204080900387E47E0F
:10020600019360BCA3FF543F30E509541FFEE493FD
:10021600A360010ECF54C025E060A840B8E493A3C4
:10022600FAE493A3F8E493A3C8C582C8CAC583CAEF
:10023600F0A3C8C582C8CAC583CADFE9DEE780BEA7
:010393000069
:10027C00BC000BBE0029EF8DF084FFADF022E4CC66
:10028C00F875F008EF2FFFEE33FEEC33FCEE9DEC2F
:10029C00984005FCEE9DFE0FD5F0E9E4CEFD22ED75
:1002AC00F8F5F0EE8420D21CFEADF075F008EF2FBF
:1002BC00FFED33FD4007985006D5F0F222C398FDB0
:0502CC000FD5F0EA224D
:00000001FF
