:020000040800F2
:1000000030ED012059BE00082D2800082F280008D7
:1000100033280008372800083B28000800000000AB
:100020000000000000000000000000003F28000861
:100030004128000800000000432800084528000867
:1000400073BE000873BE000873BE000873BE0008CC
:1000500073BE000873BE000873BE000873BE0008BC
:1000600073BE000873BE000873BE000873BE0008AC
:1000700073BE000873BE000873BE000873BE00089C
:1000800073BE000873BE000873BE000873BE00088C
:1000900073BE000873BE000873BE000873BE00087C
:1000A00073BE000873BE000873BE000873BE00086C
:1000B00073BE000873BE0008CDF1000873BE0008CF
:1000C00073BE000873BE000873BE000873BE00084C
:1000D00073BE0008CFBD000873BE000873BE0008E1
:1000E00073BE000873BE000873BE000873BE00082C
:1000F00073BE000873BE000873BE000873BE00081C
:1001000073BE00085D98000873BE000873BE000847
:1001100073BE000873BE000873BE000873BE0008FB
:1001200073BE000873BE000873BE000873BE0008EB
:1001300073BE000873BE000873BE000873BE0008DB
:1001400073BE000873BE000873BE000873BE0008CB
:1001500073BE000873BE000873BE000873BE0008BB
:1001600073BE000873BE000873BE000873BE0008AB
:1001700073BE000873BE000873BE000873BE00089B
:1001800073BE000873BE000800F002F800F06DF8BE
:100190000AA090E8000C82448344AAF10107DA45E2
:1001A00001D100F062F8AFF2090EBAE80F0013F0C7
:1001B000010F18BFFB1A43F001031847B4A7010051
:1001C000D4A701000A444FF0000C10F8013B13F0D3
:1001D000070408BF10F8014B1D1108BF10F8015BA0
:1001E000641E05D010F8016B641E01F8016BF9D193
:1001F00013F0080F1EBF10F8014BAD1C0C1B09D1EA
:100200006D1E58BF01F801CBFAD505E014F8016B5B
:1002100001F8016B6D1EF9D59142D6D370470000ED
:100220000023002400250026103A28BF78C1FBD8FF
:10023000520728BF30C148BF0B607047642916F0D1
:100240007387752916F07087782916F0A9876329B6
:1002500017F0E382732917F0E882002070471FB57A
:1002600018F057F81FBD10B510BD17F033FB11463D
:10027000FFF7F5FF01F099FF17F051FB03B4FFF70B
:10028000F2FF03BC0BF044FD30BF72B6704762B69C
:10029000704780F30888704730B58FB0054629460F
:1002A000684617F06DF8684617F08EF8001F0022B8
:1002B0000DF80020684617F087F8044605E01DF8A1
:1002C00004002F2800D102E0641E002CF7DC00BFE0
:1002D0000DEB0400411CFB4817F052F8F9480FB031
:1002E00030BD2DE9F04192B04BF64040F649088010
:1002F0000020F64908804FF6FF7003F05BFA4BF6DA
:10030000404032234FF4F07200210090084606F07E
:1003100036FF00201821EEA20B46CDE90021029005
:10032000C8220A21DC2013F0B0FF01201821EAA224
:100330000B46CDE900210290642240F202314FF4D5
:10034000BE7013F0A2FF01201821E6A20B46CDE9F2
:1003500000210290642240F20231002013F095FF48
:10036000E348007800287CD04FF6FF70D64908801B
:100370000020D64908804FF6FF704FF4BE734FF44B
:10038000F0724FF4AF710090002006F0F8FE4FF6C7
:10039000FF7040F2DA234FF4F0724FF42F710090A7
:1003A000002006F0ECFED3480078401ED0490978C2
:1003B000042202FB1010012844DBCE490978491EB3
:1003C000002202EB8101C1EB0111CB4A02EB81005B
:1003D000FFF762FF80464146C84816F0D1FFC74884
:1003E00016F0F2FF0446C54AC5A103A816F038FE70
:1003F000002103A812F06EFF50B90120FA219623C4
:100400006422CDE900103C2103A815F03FFC09E06F
:100410000120FA2196236422CDE900103C21BFA0DF
:1004200015F034FC00201021B44ACDE900210290DF
:100430008721A1EB840188B21023C8224FF4AF7149
:1004400013F023FFAB480078401EA9490978042225
:1004500002FB101002284DDBA6490978491E012233
:1004600000E0F4E002EB8101C1EB0111A24A02EBD2
:100470008100FFF711FF80464146A0481E3016F06C
:100480007FFF9E481E3016F09FFF05469B4A1E3296
:100490009BA103A816F0E4FD002103A812F01AFFA7
:1004A00058B90120FA2196236422CDE900104FF4B7
:1004B0008C7103A815F0EAFB0AE00120FA219623CB
:1004C0006422CDE900104FF48C7194A015F0DEFB8E
:1004D0000021102289481E30CDE90121009040F210
:1004E0006311A1EB850188B21346C8224FF4AF71A6
:1004F00013F0CBFE7F480078401E7D490978042226
:1005000002FB101003284ADB7A490978491E0222AF
:1005100002EB8101C1EB0111774A02EB8100FFF789
:10052000BBFE8046414675483C3016F029FF7348B3
:100530003C3016F049FF0646704A3C3270A103A8D1
:1005400016F08EFD002103A812F0C4FE58B9012058
:10055000FA2196234FF4E172CDE900103C2103A863
:1005600015F094FB0AE00120FA2196234FF4E17282
:10057000CDE900103C2169A015F088FB0021102274
:100580005E483C30CDE9012100908721A1EB860136
:1005900088B21346C8224FF42F7113F076FE5548E7
:1005A0000078401E52490978042202FB10100428EA
:1005B0004DDB50490978491E032202EB8101C1EB52
:1005C00001114D4A02EB8100FFF766FE804641466D
:1005D0004A485A3016F0D4FE48485A3016F0F4FE15
:1005E0000746464A5A3246A103A816F039FD0021B3
:1005F00003A812F06FFE60B90120FA2196234FF490
:10060000E172CDE900104FF48C7103A815F03EFBA8
:100610000BE00120FA2196234FF4E172CDE900109E
:100620004FF48C713DA015F031FB002110223348AE
:100630005A30CDE90121009040F26311A1EB87010E
:1006400088B21346C8224FF42F7113F01EFE12B069
:10065000BDE8F08110B5002415E04FF4800202EBF4
:100660008411C4EB0412244B03EB82003C2207F0FC
:100670008AFAC4EB0410204A02EB80012EA016F087
:10068000E3FC601CC4B21A4800788442E5DB012216
:100690002A49174807F077FA1548017828A016F07C
:1006A000D3FC10BD70B5064600256DE0C5EB051006
:1006B000114A02EB8001304616F068FF08B92C465B
:1006C00056E05FE0542900204A0000204800002046
:1006D000CAE9BCDC00000000B5BCC8EBCDBCCAE96F
:1006E00000000000C9BEB3FDCDBCCAE90000000097
:1006F0000800002000000020D8130020581B002014
:10070000303A2F53595354454D2F50494354555265
:10071000452F25732E6A706700000000303A2F5372
:10072000595354454D2F504943545552452F7478D1
:10073000742E6A706700000025730900800740006E
:10074000D0B4C8EBCAE9CAFDC1BFA3BA25640D0A7B
:1007500000000000621CC2EB0212F94B03EB8201A5
:10076000C4EB041203EB820016F00AFE601CC4B254
:10077000F44800788442EDDBF2480078401EF149ED
:10078000087005E0681CC5B2EE48007885428DDB34
:1007900000BFFFF75FFF70BD70B505460A24002655
:1007A000E94841680020884701280DD1E7480068E2
:1007B00050B90120E5490860E3488089E4490860B0
:1007C000E148C08AE3490860E0480068012843D155
:1007D0000020DE4908603DE0DB4841680020884792
:1007E00001200BF075FAD8488089B0F5F07F29DD3B
:1007F000D9480068D6490968401A10F1320F01DA69
:1008000065261AE0D4480068D1490968401A3228A0
:1008100001DDCA2611E0D1480068CE490968401AB6
:1008200010F1320F01DA6F2607E0CC480068C949A1
:100830000968401A322800DDDE260020C24988817E
:10084000C88208E0C0488089C3490860BE48C08AA1
:10085000C2490860C0E700BF36B10020BE49086049
:10086000BE490860B0B270BD012D69D1BA480068B8
:100870003C2819DDB8480068D22815DAB748006866
:10088000642805DDB5480068B0F5AF7F00DA0126C1
:10089000B2480068B0F5E17F25DDB0480068B0F5EA
:1008A0002F7F20DA03261EE0AB480068B0F58C7F6E
:1008B00019DDA9480068B0F5D77F14DAA7480068A9
:1008C000642805DDA5480068B0F5AF7F00DA022690
:1008D000A2480068B0F5E17F05DDA0480068B0F5EA
:1008E0002F7F00DA04269C480068B0F5C87F11DD30
:1008F0009A48006840F2EE2188420BDD9648006875
:10090000B0F5EF7F06DC9548006840F21F31884261
:1009100000DA052690480068002810DD8F4800683E
:1009200040F2EE218842F8DD8B480068642806DA40
:100930008A48006840F21F318842F8DA062627E22A
:10094000022D61D184480068642807DA8348006872
:1009500040F2EE21884201DD062619E27E48006859
:10096000B0F5C87F12DD7D48006840F2EE21884274
:100970000CDD79480068B0F5EF7F07DC7748006848
:1009800040F21F31884201DA052601E27248006810
:10099000D72812DD7148006840F2EE2188420CDD54
:1009A0006D480068B0F5847F07DC6C48006840F251
:1009B0001F31884201DA0726EAE167480068E62825
:1009C0000FDD664800680A280BDD63480068B0F553
:1009D000EF7F06DC61480068B0F52F7F01DA6526FD
:1009E000D6E15D4800680028A9DD5C4800680A2857
:1009F000A5DD59480068DC28A1DA58480068B0F540
:100A00002F7F9CDACA26C3E1032D7DD1002433E079
:100A100004EBC40000EB0410502101EB40004E49F0
:100A20000968884227DA601C00EBC00101EB001066
:100A3000502101EB40004849096888421BDD4748C6
:100A4000006840F27621884207DD4448006840F2A1
:100A50008E21884201DA04F10A064048006840F21B
:100A6000B221884207DD3D48006840F2CA21884231
:100A700001DA04F11106641C072CC9DB3748006851
:100A800040F2E92188422DDD3448006840F21631F9
:100A9000884227DA30480068502804DD2E48006874
:100AA000962800DA18262C480068B42804DD2A4865
:100AB0000068E62800DA192627480068FA2805DDCC
:100AC00025480068B0F5A07F00DA1A2622480068A1
:100AD000B0F5A57F84DD20480068B0F5E17F92DAAB
:100AE0001C2655E11D480068B0F5077F38DD1B481E
:100AF0000068B0F5167F33DA174800682D2807DD47
:100B000015480068912800E03EE001DA1E263FE12A
:100B100011480068BE2806DD0F480068B0F5917FD7
:100B200001DA1F2634E10C480068B0F5A87FD8DB55
:100B300009480068B0F5D97FD3DC202628E1000001
:100B4000D813002008000020640000202C000020A2
:100B50001C0000202000002024000020280000208D
:100B6000FE4800686428BCDDFD4800686428B8DDE4
:100B7000FA480068B0F5BE7FB3DAF9480068B0F50E
:100B8000077FAEDA1B2603E1042D32D1002419E0E1
:100B9000F24800680A2814DDF0480068B0F5E17FEB
:100BA0000FDA04EB8400C000ED490968884208DAD6
:100BB000601C00EB8000C000E9490968884200DD44
:100BC000661C641C142CE3DBE4480068B0F5C87FA5
:100BD0000EDDE2480068B0F5F07F09DAE048006811
:100BE0000A2805DDDE480068B0F53E7F00DA1526EC
:100BF000CEE0052D3AD1002435E0D84800680A2817
:100C000019DDD6480068B0F5E17F14DAC4EB0410B2
:100C100000EB40005A30D2490968884222DA601C51
:100C2000C0EB001000EB40005A30CD490968884203
:100C300018DD661C16E0C9480068B0F5C87F11DDF4
:100C4000C748006840F2EE2188420BDDC3480068C7
:100C5000B0F5EF7F06DCC248006840F21F318842E1
:100C600000DA1126641C0F2CC7DB91E0062D28D179
:100C7000BA480068B4280FDDB9480068B0F5D27FE3
:100C80000ADDB6480068E62806DAB5480068B0F51F
:100C9000F07F01DA01267BE0B0480068FA2877DDB2
:100CA000AF480068B0F5D27F72DDAC480068B0F59F
:100CB000A07F6DDAAA480068B0F5F07F68DA0226F6
:100CC00066E0072D64D1A5480068C8280DDDA4485A
:100CD0000068552809DDA1480068F52805DAA04814
:100CE00000687D2801DA012652E09C480068B0F5D2
:100CF000D57F0EDB9A48006850280ADD97480068C7
:100D0000B0F5EB7F05DA964800687D2801DA022607
:100D10003EE092480068C8280FDD91480068B0F5B1
:100D2000D77F0ADD8D480068F52806DA8C48006810
:100D3000B0F5ED7F01DC03262AE088480068C8286A
:100D40000FDD87480068B0F5D77F0ADD834800686B
:100D5000F52806DA82480068B0F5ED7F01DC04264C
:100D600016E07E480068B0F5C87F11DD7C48006859
:100D700040F2EE2188420BDD78480068B0F5EF7F45
:100D800006DC7748006840F21F31884200DA052609
:100D900000207249086072490860B0B263E53EB550
:100DA000002018216FA20B46CDE900210290642299
:100DB00040F202314FF4BE7013F067FA00201821A0
:100DC0006BA20B46CDE900210290642240F2023171
:100DD00013F05BFA69480078401E694909780422DB
:100DE00002FB1010012809DB01201E210B465522B1
:100DF000CDE90010D22163A014F048FF5F480078CD
:100E0000401E5F490978042202FB101002280ADB09
:100E100001201E210B465522CDE900104FF4D77159
:100E200058A014F033FF55480078401E5449097803
:100E3000042202FB101003280ADB01201E210B46AE
:100E400040F2B312CDE90010D2214EA014F01EFFE3
:100E50004A480078401E4A490978042202FB1010D3
:100E600004280ADB01201E210B4640F2B312CDE913
:100E70000010511F43A014F009FFC8E00720FFF73E
:100E80008BFC0446002C67D03C480078401E3C494F
:100E90000978042202FB1010A0425DDB4BF64040B3
:100EA0004FF4AA731A464FF4967100908C2006F006
:100EB00066F948F230404FF4F0734FF4AA721146CD
:100EC00000908C2006F05BF901201821AFF2EC7243
:100ED0000B46CDE900210290C8224FF49871C02042
:100EE00013F0D3F9012010212DA20B46CDE90021EA
:100EF0000290C8224FF4B471962013F0C6F9012273
:100F00001023611E1D480078401E01EB8000C0EBDD
:100F10000010294901EB8000CDE901320090C82280
:100F20005100912013F0B1F94FF6FF704FF4EB73BD
:100F3000DC2251000090B42006F021F94FF6FF703A
:100F40004FF4EB734FF496724FF4DC7100904FF452
:100F5000827006F014F931E056E000002400002011
:100F60002800002020202020C8A1CFFB0000000086
:100F70002020202020202020000000000000002051
:100F800008000020303A2F53595354454D2F5049F3
:100F900043545552452F64656C2E6A7067000000FB
:100FA000CAC7B7F1BDABCAE9BCAED2C6B3F6CAE98F
:100FB000BCDCA3BF00000000D813002001201821D2
:100FC000F9A20B46CDE900210290C82240F2BD11E2
:100FD000BE2013F05AF916E00620FFF7DDFB0546A8
:100FE000012D0DD1621EF3490978491E02EB8101E2
:100FF000C1EB0111F04A02EB8100FFF753FB3EBD4C
:10100000022D00D1FBE7E7E7052C00D1F7E735E734
:101010002DE9FE430646002440F2FF10E749C8616F
:101020000846C16900200DF05AFDE4498861314647
:10103000E34810F07CFE0746002F75D14FF6FF7095
:1010400002F0B8FB4BF6404032234FF4F07200211F
:101050000090084606F093F801202021D9A20B4603
:10106000CDE900210290C8220721D02013F00DF90C
:101070005BE0D249D24810F0A9FE074617B9CF4825
:10108000407A00B952E0CD488069007810B1CB4871
:10109000806901E0C94809308046C4EB0411CB4A9D
:1010A00002EB810043463246C9A115F0D9FF4BF649
:1010B00040400090601CC0EB001000EB400000F1CD
:1010C0005A03C4EB041000EB400000F15A014B221C
:1010D000322006F054F8601CC0EB001000EB40001A
:1010E00000F15A03601CC0EB001000EB400000F15F
:1010F0005A014FF4C8724B2006F0CEF80020182198
:10110000CDE900810290C4EB041000EB400000F137
:10111000640118234FF49672502013F0B6F8601C47
:10112000C4B20F2C01DB01E020E0A2E700BF0025E4
:101130000AE0C5F10E01C1EB0111A44A02EB8100E6
:101140003C2116F0FCF96D1CC4F10F00A842F0DC44
:1011500000201821A0A20B46CDE900210290C82250
:1011600040F202314FF4D27013F08FF89348816946
:1011700000200DF0A4FC3846BDE8FE83FEB598A023
:10118000FFF746FFD1E00520FFF706FB0446002CE1
:101190007DDD102C7BDA611EC1EB01118B4A02EB65
:1011A000810016F011F9611EC1EB0111874A02EBB3
:1011B0008101091F471804228AA1384616F023F935
:1011C000002865D14BF640404FF4AA731A464FF4FD
:1011D000967100908C2005F0D2FF48F230404FF419
:1011E000F0734FF4AA72114600908C2005F0C7FFEF
:1011F00001201821AFF620320B46CDE900210290E4
:10120000C8224FF49871C02013F03FF8012010213C
:1012100076A20B46CDE900210290C8224FF4B471AA
:10122000962013F032F801211022601EC0EB00104E
:10123000664B03EB80001346CDE901210090C822E4
:101240005100912013F021F84FF6FF704FF4EB732B
:10125000DC2251000090B42005F091FF4FF6FF70A2
:101260004FF4EB734FF496724FF4DC7100904FF42F
:10127000827005F084FF012018214BA20B46CDE9B6
:1012800000210290C82240F2BD11BE2001E049E0D9
:101290003FE012F0FAFF3AE00620FFF77DFA06463B
:1012A000012E2ED1621EC2EB0212484B03EB8201CB
:1012B000544A1278C2EB02123F4B03EB820016F045
:1012C0005FF850480078401C4E4908700846007886
:1012D000401EC0EB0010384A02EB80014AA015F016
:1012E000B3FE002508E0C5EB0510334A02EB800190
:1012F00049A015F0A9FE6D1C424800788542F2DB3A
:10130000FEBD022E03D136A0FFF782FE00E0C3E748
:101310000BE0611EC1EB01112C4A02EB8100FFF7CB
:1013200077FE02E0112C00D100E02CE700BF00BFE7
:10133000E6E710B5002414E04FF4800202EB8412BB
:1013400002F13C01364A02EB8400042206F01BFC49
:10135000334850F82420214632A015F075FE601C59
:10136000C4B2284800788442E6DB10BDFEB50027F1
:10137000002600243048008802F01CFA2F4800683C
:101380000C2802D14FF4166560E02C480068102844
:1013900002D14FF4966559E02848006818284FD1CB
:1013A0004FF42F7552E00000CAC72020202020B73C
:1013B000F100000000000020D813002020E60120EA
:1013C00040E60120CEC4BCFE00000000D025002075
:1013D00025732F2573000000B7B5BBD800000000AF
:1013E000303A2F002E74787400000000CAC7B7F19D
:1013F000B5BCC8EBCAE9BCAEB5BDCAE9BCDCA3BF8D
:101400000000000008000020D0C2CCEDCAE9BCAE4C
:10141000A3BA25730D0A000025730D0A0000000011
:10142000E01A0020B1A3B4E6CAE9C7A9202564A345
:10143000BA256C640D0A00004A0000200C00002050
:10144000FA480068202801D14FF4C87540E0F848F8
:101450000119F84B0122F848006810F0DFF8074640
:10146000AFBBF4480088204484B2F148204410F80F
:10147000010C0A2801D1701CC6B2EC48006806FBBA
:101480000040A84208DDEA492144881E0222EBA15F
:1014900015F0B9FF00B91CE0E448006806FB004005
:1014A000A84208DDE2492144881E0222E4A115F089
:1014B000AAFF00B90DE0DD48006806FB0040A84225
:1014C00006DD601EDA49085C0A2801D101E0FFE769
:1014D000BDE700BF0020D64908550021D348007859
:1014E000D34A4FF42F73CDE9002002914FF4C87214
:1014F0003221084612F0C9FEC7B22046FEBD10B523
:10150000D04800684FF47A71B0FBF1F0CE49086022
:101510004FF47A61CD4816F012F8CA4800684FF4CB
:101520007A71B0FBF1F0800000EB4001C1EBC0101C
:101530004FF4A00101EBC0044FF47A622146C34886
:1015400006F085FA10BD2DE9F84F0026B0460027B9
:1015500000240020182325224FF4C87100904FF476
:10156000807005F05BFFB14800680C2802D14FF491
:10157000166513E0AD480068102802D14FF4966557
:101580000CE0AA480068182802D14FF42F7505E036
:10159000A6480068202801D14FF4C875AC480068FF
:1015A00012F017F800F0FF08B8F1000F03D1A9A05E
:1015B00015F04AFD01E0BDE8F88FA3E090E069E096
:1015C0009B4801199B4B01229B48006810F026F8AC
:1015D0008046B8F1000F39D196480068012835D10E
:1015E00094480088204484B29148204410F8010CAB
:1015F0000A2801D1781CC7B28C48006807FB00405C
:10160000A84208DD8A492144881E02228BA115F0D8
:10161000FAFE00B93FE08548006807FB0040A84299
:1016200008DD83492144881E022285A115F0EBFEC6
:1016300000B930E07D48006807FB0040A84229DD82
:10164000601E7B49085C0A2824D124E08048006899
:1016500020447F4908604FF47A7096FBF0F100FB5C
:10166000116080044FEA10494FF47A7096FBF0F154
:1016700000FB11617D4800684FF47A62504300F529
:10168000A000042202FB010A4A4651466F4806F0B8
:101690007AFA90E794E700BF6D4800686B4941F81B
:1016A00026006B480068204469490860761CB6F53E
:1016B0007A7F01D1002614E0002700240A2096FB3F
:1016C000F0F100FB116058B90A2096FBF0F91820E0
:1016D00002234A464FF4C8710090DC2005F031FF28
:1016E0006DE700BF614800684FF47A62504300F52F
:1016F000A001564806F047FA5C480068401C5B4968
:10170000086000E05AE700BF00BF54E77CB504461C
:10171000002564261DE04D48D0F89C0FA0420AD257
:10172000FFF711FF4748006800F57A7045490860E7
:10173000FFF7E5FE0DE045480068A04208D94148A2
:101740000068A0F57A703F490860FFF7D8FE00E016
:1017500003E03000A6F10106DDD100BF444E2EE0CB
:10176000A80000F5A001042201A806F070F9681C89
:10177000800000F5A0010422684606F068F901988F
:10178000844203D30098844200D21AE042F21071DE
:1017900001980844844201D9143510E0019884422C
:1017A00001D96D1C0BE00198844201D26D1E06E048
:1017B0000198A0F51C501038A04200D9143D002E0D
:1017C000CED100BF2A4621492AA015F03DFC28466B
:1017D0007CBD2DE9F04F97B04FF0000A002011F0CA
:1017E000F8FE00BF4FF0000B0027B94602244FF06F
:1017F0000008002559E0284605EBD0714910A5EBFB
:101800004101E9B34CF6F7500090681C00EB8000F2
:101810004FF6FF7202EAC00305EB850002EAC00141
:101820004FF4C872002005F0AAFC3DE00C00002037
:101830000C1C00201C04002014040020A3AC000099
:10184000A1A30000040000201400002038040020A0
:1018500018000020BFAACABCD0B4C8EBD2B3C2EBF8
:10186000B5BD666C6173680A0000000010000020BE
:10187000A0860100256C642D3E256C64200D0A00B5
:10188000FFE748F230400090681C00EB80004FF604
:10189000FF7202EAC00305EB850002EAC0014FF4C3
:1018A000C872002005F06BFC6D1C142DA3DBA9E0B1
:1018B000F8480119F84B0122F84800680FF0AEFE15
:1018C0008346BBF1000F7CD1F34800680128FAD1B0
:1018D000F148006804440AF1010A47B9ED4921447E
:1018E000881E0222EEA115F08EFD00B90127012FFE
:1018F00027DBB9F1000F0AD1E6492144881E0222F4
:10190000E8A115F080FD10B94FF0010914E0E1489D
:10191000204410F8010C0A2801D1641E0CE0DD48B7
:10192000204410F8010C412806DDDA48204410F864
:10193000010C7A2800DA641E7F1C322F01DD00279B
:10194000B946B9F1010F53DBD248204410F8010C1D
:101950000A2811D0CF48204410F8010C0D280BD0D4
:10196000CC48204410F8010C412841DDC9482044EE
:1019700010F8010C7A283BDA322F05DA0020C5492D
:10198000214401F8010C04E00020C249214401F87F
:10199000090CC0482044C11BC3A015F055FBAAEB9D
:1019A000070003A941F8280001211022B94820446A
:1019B000C01BCDE90121009008F1010000EB80007F
:1019C00000E01BE002EBC00083B208EB880002EBF2
:1019D000C00081B24FF4C872002012F056FC08F12A
:1019E00001080027B9460224B8F1140F00D10AE01B
:1019F00040F24C40844205DD002403E0ABA015F02A
:101A000023FB00E054E700BF22E00420FEF7C4FE01
:101A10000646002E15DD142E13DC711E03AA52F8A3
:101A20002100FFF773FE01460290A3A015F00CFB06
:101A3000711E03AA52F82100FFF768FE17B0BDE837
:101A4000F08F152E01D10020F8E76F2E00D1C9E6E6
:101A5000DBE710B588B09C4B0FCB04AC0FC448F249
:101A600030404FF448734FF4F07240F23A21009046
:101A7000002005F084FB00204FF417734B224FF435
:101A8000117100902D2005F07AFB4FF6FF704FF496
:101A90001773DC224FF411710090BE2005F06FFB2C
:101AA00040F2FF704FF4177340F26D124FF4117152
:101AB000009040F24F1005F062FB0120182183A234
:101AC0000B46CDE90021029040224FF411714F20C6
:101AD00012F0DBFB012018217EA20B46CDE900218C
:101AE000029040224FF41171E02012F0CEFB012051
:101AF00018217AA20B46CDE90021029040224FF432
:101B0000117140F2711012F0C0FB0120182175A272
:101B10000B46CDE900210290322240F276210A20C4
:101B200012F0B3FB0120182170A20B46CDE9002171
:101B30000290322240F2B2210A2012F0A6FB0120CC
:101B400018216CA20B46CDE900210290322240F20E
:101B5000EE210A2012F099FB002434E004A830F8AA
:101B6000140004EBC40101EB0411782303EB4101E1
:101B70008AB204EBC40101EB0411502303EB4101D1
:101B8000009088B240F28E2340F2762105F0F7FAF9
:101B900004A830F8140004EBC40101EB041178230D
:101BA00003EB41018AB204EBC40101EB04115023A1
:101BB00003EB4101009088B240F2CA2340F2B22107
:101BC00005F0DDFA641C072CC8DB012018214BA2AC
:101BD0000B46CDE9002102904FF4C87240F2EE218D
:101BE000502012F052FB08B010BD10B5FFF731FFC6
:101BF000E0E00320FEF7D0FD0446002CF8D0A4F16D
:101C00000A001728F4D2DFE800F00C12171C222873
:101C10002E343A3F8D93999FC0C5CAD4CFD5A5AE77
:101C2000B7004FF6FF703D490880012010BD00202D
:101C30003A4908800120F9E71F203849088001202F
:101C4000F4E74FF61F00354908800120EEE74FF614
:101C5000E070324908800120E8E740F2FF702F4928
:101C600008800120E2E74FF478402C4908800120E9
:101C7000DCE74FF6FF702A4908800120D6E70020F4
:101C8000274908800120D1E71F202549088001202D
:101C9000CCE700000C1C00201C04002014040020D1
:101CA000B5DA0000D5C2000025730A00B6C1C8A18C
:101CB000CDEAB3C90A000000CCF8D7AAD2B3CAFD56
:101CC000A3BA25640A0000001C830108D2B9BCE451
:101CD00000000000B0D7CCEC00000000BBA4D1DBBA
:101CE00000000000B1B3BEB000000000D7D6CCE5C4
:101CF00000000000D7D6BAC5000000003132BAC5D6
:101D000020202020203136BAC52020202020323447
:101D1000BAC5202020203332BAC500004A00002076
:101D2000480000204FF61F00FE49088001207DE793
:101D30004FF6E070FB490880012077E740F2FF7022
:101D4000F8490880012071E74FF47840F549088090
:101D500001206BE74FF6FF70F24908800020F2493E
:101D60000880012062E70020EE4908804FF6FF70EE
:101D7000ED490880012059E70020EA49088040F237
:101D8000FF70E9490880012050E70C20E74908600E
:101D900001204BE71020E5490860012046E71820A4
:101DA000E2490860012041E72020E0490860012065
:101DB0003CE700E01DE7002038E7F0B58BB0DC4AD7
:101DC000DCA103A815F04CF9012103A811F082FA57
:101DD000C4B224B903A9D8A015F036F901E00BB0BC
:101DE000F0BD4FF6FF7001F0E5FCD64800684FF4F7
:101DF0007A71B0FBF1F0401CC6B22AE0D14800680D
:101E00004FF47A71B0FBF1F0401C871B18200223BD
:101E10003A464FF4BC710090C82005F092FB0020B8
:101E200018232F22D1000090EA2005F0F7FAC548C8
:101E300000684FF47A71B0FBF1F0471C18200223C0
:101E40003A464FF4BC710090FA2005F07AFBFFF798
:101E50007AFB3000A6F10101CEB2CFD1B9480068BB
:101E60004FF47A71B0FBF1F201FB1200B64951F860
:101E70002070384611F0ADFBFFF778FA00201821EA
:101E8000AFF6AC220B46CDE900210290C82240F209
:101E900002314FF4D27012F0F8F900201821ABA2F1
:101EA0000B46CDE900210290322240F2023105209A
:101EB00012F0EBF900201821A6A20B46CDE9002173
:101EC0000290322240F20231DA2012F0DEF91020C4
:101ED000052300909B48002102684FF4C87005F06C
:101EE00030FBFBE00220FEF757FC0546002DF8D042
:101EF000652D10D006DC052D6DD0062D6CD0072D7C
:101F00002FD19EE0CA2D2DD0A5F22F10002860D031
:101F10006528F5D15EE08B480068401C894908605F
:101F2000084600684FF47A71B0FBF1F201FB120031
:101F300030B98448006818B1FFF705FBFFF7DFFAF6
:101F4000804800686421B0FBF1F201FB12007E4979
:101F500051F82070384611F03CFBC4B20CB9FFF7C1
:101F600005FA87E07748006868B9002018217BA24D
:101F70000B46CDE900210290C82240F2DA21B420BC
:101F800012F083F976E06F480068401E6D490860E2
:101F90000846006840F2E731B0FBF1F201FB1200A5
:101FA00020B96848006808B1FFF7A9FA65480068D9
:101FB0004FF47A71B0FBF1F201FB1200624951F863
:101FC0002070384611F005FBC4B20CB9FFF7CEF90A
:101FD00050E000BF4EE002E7FFF707FEC4B2A4B135
:101FE00000245148008801F0E5FB00214F480078AB
:101FF0005E4A4FF42F73CDE9002002914FF4C8726E
:102000003221084612F041F91AE0474800884FF49F
:1020100048734FF4F07240F23A210090002005F02E
:10202000AEF8002141480078504A4FF42F73CDE9B3
:10203000002002914FF4C8723221084612F025F9AF
:1020400018E0FFF7C6FB3F490860FFF758FA3D4824
:1020500000684FF47A71B0FBF1F201FB12003A49CB
:1020600051F82070384611F0B4FAC4B20CB9FFF739
:102070007DF900BF00BF00201821AFF6A4420B4637
:10208000CDE900210290C82240F202314FF4D27013
:1020900012F0FBF8002018212CA20B46CDE90021FC
:1020A0000290322240F20231052012F0EEF80020B8
:1020B000182128A20B46CDE900210290322240F2DD
:1020C0000231DA2012F0E1F81020052300901D48BB
:1020D000002102684FF4C87005F033FA02E710B52A
:1020E000002455E04FF4800202EB8411C4EB04128B
:1020F0001F4B03EB82003C2205F0A9FC4FF4800249
:1021000002EB841202F13C011A4A02EB8400042221
:1021100005F09DFC174850F82420214616A014F025
:1021200093FF33E0480000204A0000200C0000200C
:10213000D01B002025730000B4F2BFAAA3BA2573F8
:102140000A0000000400002038040020C9E8D6C3BB
:1021500000000000C4BFC2BC00000000D2D1BEAD70
:10216000CAC7B5DAD2BBD2B3000000000C1C0020F5
:10217000D8130020E01A0020B6C1B3F6CAE9C7A9F7
:10218000202564A3BA256C640D0A0000601CC4B24B
:102190001E2CA7DB0122FE49FE4805F058FCFD4835
:1021A0000178FDA014F050FF10BD0EB50020029084
:1021B0004FF4A06009F070FEA82009F027FD4FF44D
:1021C000E13009F0B2FD00F047FC01F025FB05F01D
:1021D000A3FAF6490868804705F0CCFBF44841684B
:1021E000A820884700200CF0B8FB02200CF0B5FBBB
:1021F00010F094FFEF4901220868EFA10FF023F9D6
:10220000EC4901224868EDA10FF01DF90422EC49C8
:1022100002A805F01CFC6FF05511029888420BD003
:10222000084602900422E64902A805F0ACFC002012
:10223000D8490870FEF70EFA78E04FF6FF7001F00B
:10224000B9FA4FF47840DF490880DFA010210B462F
:10225000C822CDE9001032211E2005F02AFA18E02C
:10226000DEA010210B46C822CDE9001046211E2019
:1022700005F01FFAC82009F02BFD4FF6FF7056231A
:10228000E622462100901E2004F079FFC82009F0C4
:102290001FFD06F0B7FA0028E2D1D4A010210B46AA
:1022A000C822CDE9001046211E2005F002FAD2A076
:1022B00010210B46C822CDE900105A211E2005F03E
:1022C000F8F9BDA310226E21142011F0C8FC0446B9
:1022D00018E0CEA010210B46C822CDE900106E21D7
:1022E0001E2005F0E6F9C82009F0F2FC4FF6FF7059
:1022F0007E23DC226E210090142004F040FFC820D1
:1023000009F0E6FC002CE4D1C5A010210B46C82240
:10231000CDE900106E211E2005F0CBF940F2DC5013
:1023200009F0D6FC4FF6FF7001F044FA11F07BFE85
:10233000002882D1962009F0CBFC13F0F5FB962003
:1023400009F0C6FC40F2FF7001F034FA0121BA48EE
:102350004088CDE90001B848038800221146B7A0A3
:1023600013F094FCFFF7BBFE4FF47A61BA4815F006
:10237000E6F80120B9490870FDF7B3FFC8E1012074
:10238000FEF70AFAC4B2002C7ED02146B4A014F0A5
:102390005BFE052C79D008DC012C0DD0022C47D037
:1023A000032C73D0042C42D1C0E0062C6FD06F2CCC
:1023B0006ED0DE2CF7D191E1A8480078401E754917
:1023C0000978042202FB1010012830DBA3480078B2
:1023D000401E002202EB8000C0EB0010A24A02EB7C
:1023E0008001A24814F0CCFF9C480078401E0021D8
:1023F00001EB80009E4951F820009E490860084684
:1024000000684FF6FF71884202D3002099490860A6
:10241000FFF7D3FC9748016890480078401E0022DF
:1024200002EB8000924A42F82010FEF782FF64E13E
:102430008A480078401E57490978042202FB101090
:10244000022836DB85480078401E012202EB80001E
:10245000C0EB0010844A02EB8001844814F090FF26
:102460007E480078401E012101EB8000804951F830
:10247000200080490860084600684FF6FF718842D6
:1024800008D300207B4904E03FE102E112E00AE1C9
:102490000CE10860FFF791FC764801686F4800780E
:1024A000401E012202EB8000714A42F82010FEF724
:1024B00040FF22E169480078401E3649097804222D
:1024C00002FB1010032830DB64480078401E022213
:1024D00002EB8000C0EB0010634A02EB800163480E
:1024E00014F04EFF5D480078401E022101EB800091
:1024F0005F4951F820005F490860084600684FF6C0
:10250000FF71884202D300205A490860FFF755FC4A
:102510005848016851480078401E022202EB8000B2
:10252000534A42F82010FEF704FFE6E04B480078DB
:10253000401E18490978042202FB1010042825DBEC
:1025400046480078401E032202EB8000C0EB0010DA
:10255000454A02EB8001454814F012FF3F480078DD
:10256000401E032101EB8000414951F82000414900
:102570000860084600684FF6FF71884202D30020C9
:102580003C490860FFF719FC3A4875E080E000001C
:102590008007400008000020B6C1B3F6CAE9CAFDB2
:1025A000C1BFA3BA25640D0A00000000640000202A
:1025B000D00100200C040020303A0000313A000025
:1025C000FCFF3F00480000204578706C6F72657218
:1025D0002053544D3332463400000000534420430E
:1025E000617264204661696C656421005344204334
:1025F000617264204F4B0000466F6E74205570640A
:102600006174696E672E2E2E00000000466F6E7496
:1026100020557064617465204661696C65642100B1
:10262000466F6E74205570646174652053756363E2
:10263000657373212020200072290020303A2F5327
:10264000595354454D2F504943545552452F6C6FA3
:10265000676F2E67696600003804002000000020C4
:102660006B65793D25640A00D8130020D01B00203B
:10267000E01A002004000020016856480078401E3F
:10268000032202EB8000544A42F82010FEF751FE6C
:1026900033E0FEF773FDFDF7DDFF5048017850A0F1
:1026A00014F0D2FC29E0FEF77AFB26E04B490978CA
:1026B000481EC11700EB9171012202EBA101454AAE
:1026C0001278914204DD43480078401C414908706B
:1026D0004048017847A014F0B7FC0EE03D48007870
:1026E000012804DD3B480078401E3A49087039480B
:1026F000017840A014F0A8FC00BF00BFFDF7F1FD79
:10270000002040490860404908600A2009F0E0FACA
:1027100035E62DE9F041044640F2FF103B49C8611F
:102720000846C16900200CF0DAF938498861214671
:1027300037480FF0FCFA0646002E33D130E033491B
:1027400033480FF043FB064616B93048407A00B9CB
:1027500027E02E488069007810B12C48806901E09C
:102760002A4809300546284614F02EFE291F47182E
:1027700004222849384614F046FE60B91749097802
:10278000C1EB0111244A02EB81002B46224621496C
:10279000143914F065FC11480078401C0F4908708A
:1027A000CDE700BF1948816900200CF088F9BDE829
:1027B000F08138B50446A00000F5A0010422684667
:1027C00005F045F9214615A0009A14F03DFC00984B
:1027D00038BD000000000020E01A002008000020A2
:1027E000B5B1C7B0CDBCCAE9CAFDC1BFA3BA2564A3
:1027F0000D0000006D656E755F6E756D203D2025C6
:10280000640A0000180000201000002020E60120CB
:1028100040E60120E4130008D8130020256C642D45
:102820003E256C6420200D0A00000000704700BFA8
:10283000FEE700BFFEE700BFFEE700BFFEE7704710
:1028400070477047704700000CB500200190009061
:102850007648006840F480307449086000BF7348CF
:10286000006800F4003000900198401C019000982E
:1028700018B90198B0F5A04FF1D16C48006800F488
:10288000003010B10120009001E00020009000987D
:10289000012846D165484030006840F080506349C7
:1028A000403108606248006840F440406049086078
:1028B0005E48083000685D490831086008460068D5
:1028C00040F4004008600846006840F4A0500860EA
:1028D0005848091F0860081F006840F08070091FF1
:1028E000086000BF5148006800F000700028F9D06F
:1028F00040F20570504908604C480830006820F0EC
:1029000003004A49083108600846006840F00200A8
:10291000086000BF45480830006800F00C00082837
:10292000F8D10CBD10B54548006840F4700043492B
:1029300008603E48006840F001003C490860002003
:102940003A4908310860394800683D49084037492C
:1029500008603C48091D0860081F006820F48020BA
:10296000091F0860002031490C310860FFF76CFF37
:102970004FF0006031498039086010BD70B500200B
:102980000022022300240221284D08352D6805F07D
:102990000C0020B1042806D0082834D107E02A4DC5
:1029A0002A4E356033E02A4D284E35602FE01F4D0A
:1029B0002D1D2D68C5F380541C4D2D1D2D6805F06F
:1029C0003F0154B1224DB5FBF1F5184E361D366866
:1029D000C6F3881605FB06F209E01B4DB5FBF1F5C1
:1029E000124E361D3668C6F3881605FB06F20F4DEB
:1029F0002D1D2D68C5F301456D1C6B00B2FBF3F571
:102A0000124E356003E0104D104E356000BF00BF20
:102A1000064D08352D68C5F303150E4E705D0B4D40
:102A20002D68C540094E356070BD00000038024079
:102A30000070004008544007003C024088ED00E070
:102A4000FFFFF6FE103000240024F40034000020C4
:102A500000127A00380000201CB5012120200AF065
:102A600093F84FF4C060009001208DF8040000201E
:102A70008DF8060003208DF8050001208DF8070071
:102A80006946044809F0FEFA4FF4C061014809F0B4
:102A900075FB1CBD0014024001B5BDF8000000909C
:102AA000BDF80000F849088008BD01B5BDF8000078
:102AB0000090BDF80000F449891C088008BD08B5E5
:102AC000F148801C00880090BDF8000008BDEE4A67
:102AD00010804FF0D842A2F88010704710B504461D
:102AE0002046FFF7D9FF052009F0AAF8FFF7E7FF16
:102AF00010BDE6480089E44908807047E249891C16
:102B00000880704730B5014601F01F04C1F345133A
:102B1000CA0AE50205EB43151544A8B230BD00BF53
:102B20000100A0F10102D0B2FAD1704730B50446DD
:102B30000D46D648808849F24131884205D0D348B5
:102B4000808845F21031884214D1D0494889FFF776
:102B5000A3FF2012FFF7A9FFE0B2FFF7A6FFCB49C2
:102B60008889FFF799FF2812FFF79FFFE8B2FFF768
:102B70009CFFABE0C548808846F6040188421DD121
:102B8000C2488079012804D1C0480088401E001B3B
:102B900084B2BE494889FFF77FFF2012FFF785FF07
:102BA000E0B2FFF782FFB9498889FFF775FF281265
:102BB000FFF77BFFE8B2FFF778FF87E0B348808834
:102BC00041F66311884247D1B0488079A8B9AF482F
:102BD0000088401E001B84B2AC494889FFF75CFFA7
:102BE0000020FFF762FF0020FFF75FFF2012FFF7D2
:102BF0005CFFE0B2FFF759FF16E0A4494889FFF7F0
:102C00004BFF2012FFF751FFE0B2FFF74EFF9F4945
:102C10000988491EC1F30F20FFF747FF9B49097838
:102C2000491EC8B2FFF741FF98498889FFF734FF72
:102C30002812FFF73AFFE8B2FFF737FF93494988B8
:102C4000491EC1F30F20FFF730FF90498978491ED4
:102C5000C8B2FFF72AFF39E08C48808845F210514E
:102C6000884220D189494889FFF716FF2012FFF7D3
:102C70001CFF86494989491C88B2FFF70DFFE0B265
:102C8000FFF713FF81498889FFF706FF2812FFF736
:102C90000CFF7E498989491C88B2FFF7FDFEE8B226
:102CA000FFF703FF12E079488079012804D17748C3
:102CB0000088401E001B84B2744948892146FFF7F2
:102CC00006FF724988892946FFF701FF30BD2DE9CB
:102CD000F04105460E4600240027A0466B480088B8
:102CE000A84203DD69484088B04202DC0020BDE80C
:102CF000F08131462846FFF719FF6448808849F281
:102D00004131884211D06148808846F604018842EA
:102D10000BD05E48808845F21031884205D05B4870
:102D2000808841F66311884203D12E20FFF7B4FE5C
:102D30000DE05648808845F21051884204D14FF486
:102D40003850FFF7A9FE02E02220FFF7A5FE4F480A
:102D5000808849F22031884202D10220FFF7DFFE4D
:102D6000FFF7ADFE04464948808841F6631188426A
:102D700001D12046BBE70220FFF7D1FEFFF79FFEFF
:102D800004464248808849F2413188420BD03F488E
:102D9000808845F21031884205D03C48808845F251
:102DA000105188420AD10220FFF7B9FEFFF787FED3
:102DB0008046E7B24FF6FF7000EA07273348808865
:102DC00049F22531884216D03048808844F2355186
:102DD000884210D02D488088091F88420BD02B488C
:102DE00080884BF20551884205D0284880884CF2F3
:102DF0000551884201D1204679E72448808849F26C
:102E0000413188420BD02148808845F210318842F8
:102E100005D01E48808845F21051884207D1E01243
:102E2000C002B91240EA411040EAE8205FE72046BC
:102E3000FFF768FE5BE700B51448808849F241312E
:102E4000884211D01148808846F6040188420BD090
:102E50000E48808845F21031884205D00B488088A2
:102E600041F66311884203D12920FFF715FE14E0D3
:102E70000648808845F21051884209D14FF4245009
:102E8000FFF70AFE09E000007E00006C72290020B6
:102E900040F273110720FFF71AFE00BD00B5FD4890
:102EA000808849F24131884211D0FA48808846F63C
:102EB000040188420BD0F748808845F210318842DF
:102EC00005D0F448808841F66311884203D1282058
:102ED000FFF7E2FD0EE0EF48808845F2105188428E
:102EE00004D14FF42050FFF7D7FD03E00021072065
:102EF000FFF7EDFD00BDF0B5054600240027E548CD
:102F0000807901280BD1E348808846F60401884285
:102F100005D0E048808841F66311884208D1DD4839
:102F20008079F0B9DB48808841F66311884218D176
:102F3000082D15D2DFE805F00406080A0C0E101261
:102F400006250DE007250BE0042509E0052507E02F
:102F5000012505E0002503E0032501E0022500BF6F
:102F600000BFCC48808849F24131884217D0C94817
:102F7000808846F60401884211D0C648808845F210
:102F8000103188420BD0C348808845F210518842E6
:102F900005D0C048808841F6631188427ED1082D53
:102FA0001CD2DFE805F00406090C0F12151800BF4B
:102FB00014E044F0800411E044F040040EE044F0DA
:102FC000C0040BE044F0200408E044F0600405E095
:102FD00044F0A00402E044F0E00400BF00BFAD48AC
:102FE000808845F21051884202D14FF4585700E0D2
:102FF0003627A848808845F2103188420DD0A54870
:10300000808845F21051884207D0A248808841F656
:103010006311884201D044F008049E48808846F637
:103020000401884201D144F0020421463846FFF7EA
:103030004EFD9848808841F6631188421DD004F007
:10304000200068B19348008892494988884214DA80
:103050009048068840888F490880084646800CE0E2
:103060008C4800888B494988884206DD8948068853
:10307000408888490880084646808648808845F20E
:103080001051884254D183494889FFF705FD00203B
:10309000FFF70BFD7F494989491C00E077E088B2C2
:1030A000FFF7FAFC0020FFF700FD7A494989891CE7
:1030B00088B2FFF7F1FC77490988491EC1F30F2058
:1030C000FFF7F3FC73494989C91C88B2FFF7E4FC98
:1030D00070490978491EC8B2FFF7E7FC6D49888935
:1030E000FFF7DAFC0020FFF7E0FC6A498989491CF8
:1030F00088B2FFF7D1FC0020FFF7D7FC654989892A
:10310000891C88B2FFF7C8FC62494988491EC1F38F
:103110000F20FFF7CAFC5F498989C91C88B2FFF7F5
:10312000BBFC5C498978491EC8B2FFF7BEFC55E07C
:1031300058494889FFF7B0FC0020FFF7B6FC002093
:10314000FFF7B3FC53490988491EC1F30F20FFF76D
:10315000ACFC50490978491EC8B2FFF7A6FC4D499E
:103160008889FFF799FC0020FFF79FFC0020FFF7FC
:103170009CFC48494988491EC1F30F20FFF795FC84
:1031800044498978491EC8B2FFF78FFC26E0082D14
:103190001CD2DFE805F004070A0D0F12151844F0E1
:1031A000300413E044F0100410E044F020040DE07B
:1031B00000BF0BE044F0380408E044F0280405E0C8
:1031C00044F0180402E044F0080400BF00BF0327E5
:1031D00044F4805421463846FFF779FCF0BD30B501
:1031E00004460D4629462046FFF7A0FCFFF781FC68
:1031F000294800882949088030BD70B504460D462D
:1032000016462448808849F24131884205D0214839
:10321000808845F21031884214D11E494889FFF751
:103220003BFC2012FFF741FCE0B2FFF73EFC1949DE
:103230008889FFF731FC2812FFF737FCE8B2FFF767
:1032400034FC93E01348808845F21051884227D11E
:1032500010494889FFF720FC2012FFF726FC0D4992
:103260004989491C88B2FFF717FCE0B2FFF71DFC43
:1032700008498889FFF710FC2812FFF716FC05495A
:103280008989491C88B2FFF707FCE8B2FFF70DFCFB
:103290006CE0000072290020480000208000006CD3
:1032A000FE48808841F66311884228D1FB48807926
:1032B00020B9FA480088401E001B84B2F7494889AB
:1032C000FFF7EAFB2012FFF7F0FBE0B2FFF7EDFBA0
:1032D0002012FFF7EAFBE0B2FFF7E7FBEF4988892E
:1032E000FFF7DAFB2812FFF7E0FBE8B2FFF7DDFBA0
:1032F0002812FFF7DAFBE8B2FFF7D7FB36E0E74822
:10330000808846F6040188421DD1E448807901286E
:1033100004D1E2480088401E001B84B2DF4948897E
:10332000FFF7BAFB2012FFF7C0FBE0B2FFF7BDFBCF
:10333000DA498889FFF7B0FB2812FFF7B6FBE8B23D
:10334000FFF7B3FB12E0D5488079012804D1D348B8
:103350000088401E001B84B2D04948892146FFF7EF
:10336000B6FBCE4988892946FFF7B1FBCB480089D7
:10337000CB4908804FF0D840A0F8806070BD70B590
:103380002DED048B0446BE20FFF786FB0520FFF7DA
:103390008CFB204614F006FC41EC190B9FEDC10B91
:1033A00053EC102B14F04EFC41EC180B14F0B6FB50
:1033B00085B22846FFF779FB0120FFF776FBFF2057
:1033C000FFF773FB0020FFF770FB0020FFF76DFB9A
:1033D000BDEC048B70BD10B50446002C66D1AF491E
:1033E0008871F02008804FF4A070488008468088DB
:1033F00049F2413188420BD0A848808846F6040142
:10340000884205D0A548808845F2103188421AD1FB
:103410002C20A24908812A2048812B208881084637
:10342000808846F60401884205D09C48808845F291
:103430001031884206D14FF4A070984908804FF4AB
:10344000F0704880A1E09548808845F2105188428C
:1034500010D14FF43050914908814FF428504881E1
:103460004FF42C5088814FF4F07008804FF448706E
:1034700048808AE08948808841F6631188420DD1EE
:103480002C20864908812B2048812A2088814FF4EE
:10349000F07008804FF44870488076E022207F4921
:1034A000088120204881212088816EE001207B490D
:1034B00088714FF4A0700880F0204880084680880A
:1034C00049F24131884205D07448808845F2103174
:1034D000884207D12C20714908812A2048812B205D
:1034E00088813FE06D48808846F60401884207D114
:1034F0002C206A4908812B2048812A20888131E0CC
:103500006648808845F21051884210D14FF43050FF
:10351000624908814FF4285048814FF42C5088812B
:103520004FF4487008804FF4F07048801AE05B4810
:10353000808841F6631188420DD12C2057490881BB
:103540002A2048812B2088814FF4487008804FF44E
:10355000F070488006E022205049088121204881EF
:10356000202088814D48808846F60401884205D095
:103570004A48808845F21031884206D14FF4F070F5
:10358000464908804FF4A07048800020FFF7B3FC44
:1035900010BD2DE9F04F86B004460D469046994681
:1035A00004EB0800401E86B205EB0900401E87B2FE
:1035B0003A48808849F24131884215D0374880889E
:1035C00045F2103188420FD03448808846F6040115
:1035D000884209D031488079012826D12F48808837
:1035E00041F66311884220D12C494889FFF754FAEB
:1035F0002012FFF75AFAE0B2FFF757FA3012FFF73E
:1036000054FAF0B2FFF751FA24498889FFF744FAD7
:103610002812FFF74AFAE8B2FFF747FA3812FFF725
:1036200044FAF8B2FFF741FAC1E01C48808841F63D
:10363000631188423DD119480088A0EB0800001BA7
:1036400084B205EB0900401E1FFA80F9134948892E
:10365000FFF722FA2012FFF728FAE0B2FFF725FA67
:1036600004EB0801491EC1F30F20FFF71EFA04EB1B
:103670000801491EC8B2FFF718FA08498889FFF700
:103680000BFA2812FFF711FAE8B2FFF70EFA4FEA29
:103690002920FFF70AFA09F0FF0007E0722900204D
:1036A0007E00006C6666666666660440FFF7FDF99C
:1036B0007DE0FE48808845F21051884244D1FB49A4
:1036C0004889FFF7E9F92012FFF7EFF9F74949892F
:1036D000491C88B2FFF7E0F9E0B2FFF7E6F9F349D9
:1036E0004989891C88B2FFF7D7F93012FFF7DDF955
:1036F000EE494989C91C88B2FFF7CEF9F0B2FFF74D
:10370000D4F9EA498889FFF7C7F92812FFF7CDF9FC
:10371000E6498989491C88B2FFF7BEF9E8B2FFF78C
:10372000C4F9E2498989891C88B2FFF7B5F93812D2
:10373000FFF7BBF9DD498989C91C88B2FFF7ACF9ED
:10374000F8B2FFF7B2F932E0D848807901280ED1FB
:10375000AA46BB46D5480088801B401E80B2019017
:10376000D2480088001B401E80B2009003E0A246B1
:10377000B3460195009750200590512004905220A7
:1037800003905320029051460598FFF7A0F959463F
:103790000498FFF79CF901990398FFF798F90099AD
:1037A0000298FFF794F929462046FFF7BFF906B0C3
:1037B000BDE8F08F70B504460026BC4805884088F7
:1037C0004543BA48808846F60401884216D1B74876
:1037D0008079012812D10020B44988712A204881BB
:1037E0002B20888100210846FFF7A0F90120AF496E
:1037F00088712B2048812A20888103E00021084617
:10380000FFF794F9FFF775F9002602E0A848048055
:10381000761CAE42FAD370BD00B5A1B00020209056
:1038200001217A2009F0B0F90121084609F0E4F9F4
:103830004FF400401E9001208DF87C0000208DF890
:103840007E0002208DF87D0001208DF87F001EA9EA
:10385000984808F017FC4CF233701E9002208DF847
:103860007C0000208DF87E0003208DF87D00012073
:103870008DF87F001EA9904808F004FC4FF6807078
:103880001E9002208DF87C0000208DF87E00032021
:103890008DF87D0001208DF87F001EA9874808F073
:1038A000F1FB4FF480501E9002208DF87C00002028
:1038B0008DF87E0003208DF87D0001208DF87F00BB
:1038C0001EA97F4808F0DEFB4FF480501E900220B6
:1038D0008DF87C0000208DF87E0003208DF87D009F
:1038E00001208DF87F001EA9764808F0CBFB0C2242
:1038F0000021714808F051FC0C2201216E4808F0AB
:103900004CFC0C2204216C4808F047FC0C220521D9
:10391000694808F042FC0C220821674808F03DFC89
:103920000C220921644808F038FC0C220A21624864
:1039300008F033FC0C220E215F4808F02EFC0C220C
:103940000F215D4808F029FC0C2207215B4808F094
:1039500024FC0C220821594808F01FFC0C220921E4
:10396000564808F01AFC0C220A21544808F015FCAD
:103970000C220B21514808F010FC0C2211464F4834
:1039800008F00BFC0C220D214C4808F006FC0C2220
:103990000E214A4808F001FC0C220F21474808F08C
:1039A000FCFB0C221146464808F0F7FB0C2211469E
:1039B000444808F0F2FB0F200890002009903C20BA
:1039C0000A9000200B900C900D900E900920019011
:1039D000002002900820039000200490059006909B
:1039E000079006200F900020109011901020129048
:1039F0000020139015901490169017904FF480505B
:103A00001890002019904FF480401A9000201B90CD
:103A100008A81C9001A81D900FA808F012FC012115
:103A2000062008F099FC322008F052F9012100200C
:103A3000FFF74DF8322008F04BF90020FFF74EF861
:103A40001A49888008468088FF280ADB0846808853
:103A50004FF6FF71884204D014488088B0F5134FA8
:103A60007ED1D320FFF718F8FFF729F80F49888097
:103A7000FFF725F80D498880FFF721F80B4988806A
:103A8000084680884FF6FF7101EA002007498880C8
:103A9000FFF715F8054989880843044988800846D6
:103AA000808849F2413188425AD00DE072290020C5
:103AB0008000006C00040240000C02400010024034
:103AC0000014024000180240BF20FEF7E5FFFEF799
:103AD000F6FFFE498880FEF7F2FFFC498880FEF77A
:103AE000EEFFFA498880FEF7EAFFF8498880084629
:103AF00080884FF6FF7101EA0020F4498880FEF7C4
:103B0000DEFFF24989880843F049888008468088AA
:103B100046F6040188427AD0D420FEF7BDFFFEF7B6
:103B2000CEFFEA498880FEF7CAFFE8498880FEF7A1
:103B3000C6FFE6498880084680884FF6FF7101EA93
:103B40000020E2498880FEF7BAFFE04989880843EF
:103B5000DE4988800846808845F21031884200E0BE
:103B600055E054D04FF45A40FEF796FFFEF7A7FFFA
:103B7000D64988804FF45B40FEF78EFFFEF79FFF2B
:103B8000D2498880084680884FF6FF7101EA0020FC
:103B9000CE4988804FF45C40FEF77EFFFEF78FFF32
:103BA000CA4989880843C949888008468088B0F591
:103BB000004F02D145F210508880C448808845F2F9
:103BC0001051884223D0A120FEF766FFFEF777FF51
:103BD000BE498880FEF773FFBC498880084680880C
:103BE0004FF6FF7101EA0020B8498880FEF767FFB1
:103BF000B64989880843B54988800846808845F2D7
:103C00006171884203D141F66310B0498880AF48A2
:103C1000808849F24131884211D0AC48808845F211
:103C2000103188420BD0A948808845F21051884253
:103C300005D0A648808841F6631188421DD1A4486A
:103C4000006820F00F004FF02041C1F81C01084629
:103C5000D0F81C0120F47060C1F81C010846D0F8AF
:103C60001C0140F00300C1F81C010846D0F81C01FB
:103C700040F40070C1F81C0128E09448808846F6A2
:103C80000401884205D0914880884CF20551884251
:103C90001CD18F48006820F00F004FF02041C1F880
:103CA0001C010846D0F81C0120F47060C1F81C010A
:103CB0000846D0F81C0140F00A00C1F81C01084673
:103CC000D0F81C0140F44060C1F81C017F48818895
:103CD00080A013F0B9F97D48808849F241318842CB
:103CE0007ED1CF20FEF7D8FE0020FEF7DEFEC120F9
:103CF000FEF7DBFE3020FEF7D8FEED20FEF7CCFE0F
:103D00006420FEF7D2FE0320FEF7CFFE1220FEF75E
:103D1000CCFE8120FEF7C9FEE820FEF7BDFE85201F
:103D2000FEF7C3FE1020FEF7C0FE7A20FEF7BDFEB0
:103D3000CB20FEF7B1FE3920FEF7B7FE2C20FEF7B0
:103D4000B4FE0020FEF7B1FE3420FEF7AEFE0220E6
:103D5000FEF7ABFEF720FEF79FFE2020FEF7A5FE44
:103D6000EA20FEF799FE0020FEF79FFE0020FEF7F6
:103D70009CFEC020FEF790FE1B20FEF796FEC120A1
:103D8000FEF78AFE0120FEF790FEC520FEF784FEB6
:103D90003020FEF78AFE3020FEF787FEC720FEF7B0
:103DA0007BFEB720FEF781FE3620FEF775FE482029
:103DB000FEF77BFE3A20FEF76FFE5520FEF775FEFC
:103DC000B120FEF769FE0020FEF76FFE1A20FEF715
:103DD0006CFEB620FEF760FE0A20FEF766FE00E0ED
:103DE000A5E0A220FEF761FEF220FEF755FE0020BE
:103DF000FEF75BFE2620FEF74FFE0120FEF755FE84
:103E0000E020FEF749FE0F20FEF74FFE2A20FEF7C6
:103E10004CFE2820FEF749FE0820FEF746FE0E2045
:103E2000FEF743FE0820FEF740FE5420FEF73DFE5D
:103E3000A920FEF73AFE4320FEF737FE0A20FEF7E0
:103E400034FE0F20FEF731FE0020FEF72EFE00208C
:103E5000FEF72BFE0020FEF728FE0020FEF725FED1
:103E6000E120FEF719FE0020FEF71FFE1520FEF7E9
:103E70001CFE1720FEF719FE0720FEF716FE112084
:103E8000FEF713FE0620FEF710FE2B20FEF70DFEB8
:103E90005620FEF70AFE3C20FEF707FE0520FEF73F
:103EA00004FE1020FEF701FE0F20FEF7FEFD3F206E
:103EB000FEF7FBFD3F20FEF7F8FD0F20FEF7F5FDB6
:103EC0002B20FEF7E9FD00200CE000007229002005
:103ED0001C0100A0204C43442049443A25780D0A97
:103EE00000000000FEF7E1FD0020FEF7DEFD0120EE
:103EF000FEF7DBFD3F20FEF7D8FD2A20FEF7CCFDC4
:103F00000020FEF7D2FD0020FEF7CFFD0020FEF7D7
:103F1000CCFDEF20FEF7C9FD1120FEF7BDFD782096
:103F200007F0D6FE2920FEF7B7FD03F01DB9FE48C5
:103F3000808846F6040188427ED11120FEF7ACFD50
:103F4000142007F0C5FED020FEF7A6FD0720FEF7DF
:103F5000ACFD4220FEF7A9FD1D20FEF7A6FDD120F5
:103F6000FEF79AFD0020FEF7A0FD1A20FEF79DFD4A
:103F70000920FEF79AFDD220FEF78EFD0120FEF704
:103F800094FD2220FEF791FDC020FEF785FD102054
:103F9000FEF78BFD3B20FEF788FD0020FEF785FD38
:103FA0000220FEF782FD1120FEF77FFDC520FEF7FF
:103FB00073FD0320FEF779FDC820FEF76DFD00209C
:103FC000FEF773FD2520FEF770FD2120FEF76DFD45
:103FD0000520FEF76AFD0020FEF767FD0A20FEF7C8
:103FE00064FD6520FEF761FD2520FEF75EFD77206C
:103FF000FEF75BFD5020FEF758FD0F20FEF755FD44
:104000000020FEF752FDF820FEF746FD0120FEF7E6
:104010004CFDFE20FEF740FD0020FEF746FD02208D
:10402000FEF743FD2020FEF737FD3620FEF734FD76
:104030000820FEF73AFD00E02AE03A20FEF72CFDCA
:104040005520FEF732FD2B20FEF726FD0020FEF75F
:104050002CFD0020FEF729FD0120FEF726FD3F2064
:10406000FEF723FD2A20FEF717FD0020FEF71DFDB9
:104070000020FEF71AFD0120FEF717FDDF20FEF7F6
:1040800014FD782007F024FE2920FEF705FD4CE7FB
:10409000A548808845F21031884240F07C87ED20A9
:1040A000FEF7FAFC0120FEF700FDFE20FEF7FDFC06
:1040B000EE20FEF7F1FCDE20FEF7F7FC2120FEF7F4
:1040C000F4FCF120FEF7E8FC0120FEF7EEFCDF2017
:1040D000FEF7E2FC1020FEF7E8FCC420FEF7DCFC53
:1040E0008F20FEF7E2FCC620FEF7D6FC0020FEF78C
:1040F000DCFCE220FEF7D9FCE220FEF7D6FCE22051
:10410000FEF7D3FCBF20FEF7C7FCAA20FEF7CDFCCC
:10411000B020FEF7C1FC0D20FEF7C7FC0020FEF723
:10412000C4FC0D20FEF7C1FC0020FEF7BEFC1120F0
:10413000FEF7BBFC0020FEF7B8FC1920FEF7B5FC2B
:104140000020FEF7B2FC2120FEF7AFFC0020FEF7B6
:10415000ACFC2D20FEF7A9FC0020FEF7A6FC3D20BC
:10416000FEF7A3FC0020FEF7A0FC5D20FEF79DFCFF
:104170000020FEF79AFC5D20FEF797FC0020FEF77A
:1041800094FCB120FEF788FC8020FEF78EFC002016
:10419000FEF78BFC8B20FEF788FC0020FEF785FCE9
:1041A0009620FEF782FC0020FEF77FFCB220FEF78F
:1041B00073FC0020FEF779FC0020FEF776FC02205D
:1041C000FEF773FC0020FEF770FC0320FEF76DFC89
:1041D0000020FEF76AFCB320FEF75EFC0020FEF72D
:1041E00064FC0020FEF761FC0020FEF75EFC00206E
:1041F000FEF75BFC0020FEF758FC0020FEF755FCA4
:104200000020FEF752FC0020FEF74FFC0020FEF7D6
:104210004CFC0020FEF749FC0020FEF746FC002085
:10422000FEF743FC0020FEF740FC0020FEF73DFCBB
:104230000020FEF73AFC0020FEF737FC0020FEF7D6
:1042400034FC0020FEF731FC0020FEF72EFC00209D
:10425000FEF72BFC0020FEF728FC0020FEF725FCD3
:104260000020FEF722FC0020FEF71FFCB420FEF722
:1042700013FC8B20FEF719FC0020FEF716FC96209D
:10428000FEF713FC0020FEF710FCA120FEF70DFC4A
:104290000020FEF70AFCB520FEF7FEFB0220FEF729
:1042A00004FC0020FEF701FC0320FEF7FEFB0020CB
:1042B000FEF7FBFB0420FEF7F8FB0020FEF7F5FB02
:1042C000B620FEF7E9FB0020FEF7EFFB0020FEF72B
:1042D000ECFBB720FEF7E0FB0020FEF7E6FB00203A
:1042E000FEF7E3FB3F20FEF7E0FB0020FEF7DDFBDF
:1042F0005E20FEF7DAFB0020FEF7D7FB6420FEF716
:10430000D4FB0020FEF7D1FB8C20FEF7CEFB002073
:10431000FEF7CBFBAC20FEF7C8FB0020FEF7C5FB89
:10432000DC20FEF7C2FB01E0722900200020FEF72E
:10433000BCFB7020FEF7B9FB0020FEF7B6FB902017
:10434000FEF7B3FB0020FEF7B0FBEB20FEF7ADFB62
:104350000020FEF7AAFBDC20FEF7A7FB0020FEF7FB
:10436000A4FBB820FEF798FB0020FEF79EFB002080
:10437000FEF79BFB0020FEF798FB0020FEF795FB65
:104380000020FEF792FB0020FEF78FFB0020FEF7D7
:104390008CFB0020FEF789FBBA20FEF77DFB242072
:1043A000FEF783FB0020FEF780FB0020FEF77DFB7D
:1043B0000020FEF77AFBC120FEF76EFB2020FEF7FF
:1043C00074FB0020FEF771FB5420FEF76EFB00200B
:1043D000FEF76BFBFF20FEF768FB0020FEF765FB96
:1043E000C220FEF759FB0A20FEF75FFB0020FEF714
:1043F0005CFB0420FEF759FB0020FEF756FBC320B0
:10440000FEF74AFB3C20FEF750FB0020FEF74DFB79
:104410003A20FEF74AFB0020FEF747FB3920FEF763
:1044200044FB0020FEF741FB3720FEF73EFB002057
:10443000FEF73BFB3C20FEF738FB0020FEF735FB88
:104440003620FEF732FB0020FEF72FFB3220FEF76E
:104450002CFB0020FEF729FB2F20FEF726FB002077
:10446000FEF723FB2C20FEF720FB0020FEF71DFBB0
:104470002920FEF71AFB0020FEF717FB2620FEF787
:1044800014FB0020FEF711FB2420FEF70EFB00209A
:10449000FEF70BFB2420FEF708FB0020FEF705FBD0
:1044A0002320FEF702FB0020FEF7FFFA3C20FEF778
:1044B000FCFA0020FEF7F9FA3620FEF7F6FA0020A3
:1044C000FEF7F3FA3220FEF7F0FA0020FEF7EDFADD
:1044D0002F20FEF7EAFA0020FEF7E7FA2C20FEF77D
:1044E000E4FA0020FEF7E1FA2920FEF7DEFA0020C8
:1044F000FEF7DBFA2620FEF7D8FA0020FEF7D5FA01
:104500002420FEF7D2FA0020FEF7CFFA2420FEF78F
:10451000CCFA0020FEF7C9FA2320FEF7C6FA0020E5
:10452000FEF7C3FAC420FEF7B7FA6220FEF7BDFA21
:104530000020FEF7BAFA0520FEF7B7FA0020FEF7D2
:10454000B4FA8420FEF7B1FA0020FEF7AEFAF020AC
:10455000FEF7ABFA0020FEF7A8FA1820FEF7A5FA3E
:104560000020FEF7A2FAA420FEF79FFA0020FEF733
:104570009CFA1820FEF799FA0020FEF796FA5020D0
:10458000FEF793FA0020FEF790FA0C20FEF78DFA62
:104590000020FEF78AFA1720FEF787FA0020FEF7C0
:1045A00084FA9520FEF781FA0020FEF77EFAF320C8
:1045B000FEF77BFA0020FEF778FAE620FEF775FAA0
:1045C0000020FEF772FAC520FEF766FA3220FEF7E9
:1045D0006CFA0020FEF769FA4420FEF766FA002024
:1045E000FEF763FA6520FEF760FA0020FEF75DFA39
:1045F0007620FEF75AFA0020FEF757FA8820FEF7D9
:1046000054FA0020FEF751FAC620FEF745FA2020A2
:10461000FEF74BFA0020FEF748FA1720FEF745FA9E
:104620000020FEF742FA0120FEF73FFA0020FEF7D5
:104630003CFAC720FEF730FA0020FEF736FA0020D9
:10464000FEF733FA0020FEF730FA0020FEF72DFACD
:10465000C820FEF721FA0020FEF727FA0020FEF717
:1046600024FA0020FEF721FA0020FEF71EFAC920E6
:10467000FEF712FA0020FEF718FA0020FEF715FAEE
:104680000020FEF712FA0020FEF70FFA0020FEF7D6
:104690000CFA0020FEF709FA0020FEF706FA0020C7
:1046A000FEF703FA0020FEF700FA0020FEF7FDF9FE
:1046B0000020FEF7FAF90020FEF7F7F90020FEF7D8
:1046C000F4F90020FEF7F1F90020FEF7EEF90020E2
:1046D000FEF7EBF9E020FEF7DFF91620FEF7E5F92B
:1046E0000020FEF7E2F91C20FEF7DFF90020FEF7BC
:1046F000DCF92120FEF7D9F90020FEF7D6F93620A3
:10470000FEF7D3F90020FEF7D0F94620FEF7CDF9E9
:104710000020FEF7CAF95220FEF7C7F90020FEF785
:10472000C4F96420FEF7C1F90020FEF7BEF97A2033
:10473000FEF7BBF90020FEF7B8F98B20FEF7B5F9BC
:104740000020FEF7B2F99920FEF7AFF90020FEF73E
:10475000ACF9A820FEF7A9F90020FEF7A6F9B920C8
:10476000FEF7A3F90020FEF7A0F9C420FEF79DF99B
:104770000020FEF79AF9CA20FEF797F90020FEF70D
:1047800094F9D220FEF791F90020FEF78EF9D92096
:10479000FEF78BF90020FEF788F9E020FEF785F997
:1047A0000020FEF782F9F320FEF77FF90020FEF7E4
:1047B0007CF9E120FEF770F91620FEF776F900206B
:1047C000FEF773F91C20FEF770F90020FEF76DF973
:1047D0002220FEF76AF90020FEF767F93620FEF77F
:1047E00064F90020FEF761F94520FEF75EF900202C
:1047F000FEF75BF95220FEF758F90020FEF755F955
:104800006420FEF752F90020FEF74FF97A20FEF7F8
:104810004CF90020FEF749F98B20FEF746F90020FD
:10482000FEF743F99920FEF740F90020FEF73DF925
:10483000A820FEF73AF90020FEF737F9B920FEF775
:1048400034F90020FEF731F9C420FEF72EF90020DC
:10485000FEF72BF9CA20FEF728F90020FEF725F90C
:10486000D220FEF722F90020FEF71FF9D820FEF72C
:104870001CF90020FEF719F9E020FEF716F90020D8
:10488000FEF713F9F320FEF710F90020FEF70DF9FB
:10489000E220FEF701F90520FEF707F90020FEF7F8
:1048A00004F90B20FEF701F90020FEF7FEF81B20AB
:1048B000FEF7FBF80020FEF7F8F83420FEF7F5F8D5
:1048C0000020FEF7F2F84420FEF7EFF80020FEF794
:1048D000ECF84F20FEF7E9F80020FEF7E6F861203B
:1048E000FEF7E3F80020FEF7E0F87920FEF7DDF8A8
:1048F0000020FEF7DAF88820FEF7D7F80020FEF750
:10490000D4F89720FEF7D1F80020FEF7CEF8A620C5
:10491000FEF7CBF80020FEF7C8F8B720FEF7C5F881
:104920000020FEF7C2F8C220FEF7BFF80020FEF715
:10493000BCF8C720FEF7B9F80020FEF7B6F8D12082
:10494000FEF7B3F80020FEF7B0F8D620FEF7ADF87A
:104950000020FEF7AAF8DD20FEF7A7F80020FEF7FA
:10496000A4F8F320FEF7A1F80020FEF79EF8E3205C
:10497000FEF792F80520FEF798F80020FEF795F86C
:104980000A20FEF792F80020FEF78FF81C20FEF7B1
:104990008CF80020FEF789F83320FEF786F8002017
:1049A000FEF783F84420FEF780F80020FEF77DF83C
:1049B0005020FEF77AF80020FEF777F86220FEF725
:1049C00074F80020FEF771F87820FEF76EF80020EA
:1049D000FEF76BF88820FEF768F80020FEF765F810
:1049E0009720FEF762F80020FEF75FF8A620FEF79A
:1049F0005CF80020FEF759F8B720FEF756F80020C3
:104A0000FEF753F8C220FEF750F80020FEF74DF8ED
:104A1000C720FEF74AF80020FEF747F8D120FEF73E
:104A200044F80020FEF741F8D520FEF73EF80020BC
:104A3000FEF73BF8DD20FEF738F80020FEF735F8EA
:104A4000F320FEF732F80020FEF72FF8E420FEF7FF
:104A500023F80120FEF729F80020FEF726F80120B0
:104A6000FEF723F80020FEF720F80220FEF71DF8DD
:104A70000020FEF71AF82A20FEF717F80020FEF7AC
:104A800014F83C20FEF711F80020FEF70EF84B203A
:104A9000FEF70BF80020FEF708F85D20FEF705F89A
:104AA0000020FEF702F87420FDF7FFFF0020FDF75D
:104AB000FCFF8420FDF7F9FF0020FDF7F6FF9320AF
:104AC000FDF7F3FF0020FDF7F0FFA220FDF7EDFF5B
:104AD0000020FDF7EAFFB320FDF7E7FF0020FDF718
:104AE000E4FFBE20FDF7E1FF0020FDF7DEFFC4205C
:104AF000FDF7DBFF0020FDF7D8FFCD20FDF7D5FF48
:104B00000020FDF7D2FFD320FDF7CFFF0020FDF7F7
:104B1000CCFFDD20FDF7C9FF0020FDF7C6FFF32025
:104B2000FDF7C3FF0020FDF7C0FFE520FDF7B4FF50
:104B30000020FDF7BAFF0020FDF7B7FF0020FDF7CA
:104B4000B4FF0020FDF7B1FF0220FDF7AEFF00200B
:104B5000FDF7ABFF2920FDF7A8FF0020FDF7A5FF1B
:104B60003C20FDF7A2FF0020FDF79FFF4B20FDF743
:104B70009CFF0020FDF799FF5D20FDF796FF0020C8
:104B8000FDF793FF7420FDF790FF0020FDF78DFFE8
:104B90008420FDF78AFF0020FDF787FF9320FDF7B3
:104BA00084FF0020FDF781FFA220FDF77EFF00209B
:104BB000FDF77BFFB320FDF778FF0020FDF775FFC1
:104BC000BE20FDF772FF0020FDF76FFFC420FDF748
:104BD0006CFF0020FDF769FFCD20FDF766FF002088
:104BE000FDF763FFD320FDF760FF0020FDF75DFFB9
:104BF000DC20FDF75AFF0020FDF757FFF320FDF7FB
:104C000054FF0020FDF751FFE620FDF745FF11207E
:104C1000FDF74BFF0020FDF748FF3420FDF745FF6F
:104C20000020FDF742FF5620FDF73FFF0020FDF773
:104C30003CFF7620FDF739FF0020FDF736FF772097
:104C4000FDF733FF0020FDF730FF6620FDF72DFF55
:104C50000020FDF72AFF8820FDF727FF0020FDF741
:104C600024FF9920FDF721FF0020FDF71EFFBB2048
:104C7000FDF71BFF0020FDF718FF9920FDF715FF3A
:104C80000020FDF712FF6620FDF70FFF0020FDF763
:104C90000CFF5520FDF709FF0020FDF706FF55200A
:104CA000FDF703FF0020FDF700FF4520FDF7FDFEA7
:104CB0000020FDF7FAFE4320FDF7F7FE0020FDF788
:104CC000F4FE4420FDF7F1FE0020FDF7EEFEE720A4
:104CD000FDF7E2FE3220FDF7E8FE0020FDF7E5FEDD
:104CE0005520FDF7E2FE0020FDF7DFFE7620FDF700
:104CF000DCFE0020FDF7D9FE6620FDF7D6FE002081
:104D0000FDF7D3FE6720FDF7D0FE0020FDF7CDFEB6
:104D10006720FDF7CAFE0020FDF7C7FE8720FDF7DC
:104D2000C4FE0020FDF7C1FE9920FDF7BEFE002065
:104D3000FDF7BBFEBB20FDF7B8FE0020FDF7B5FE7A
:104D40009920FDF7B2FE0020FDF7AFFE7720FDF7BA
:104D5000ACFE0020FDF7A9FE4420FDF7A6FE0020D2
:104D6000FDF7A3FE5620FDF7A0FE0020FDF79DFEF7
:104D70002320FDF79AFE0020FDF797FE3320FDF774
:104D800094FE0020FDF791FE4520FDF78EFE0020E9
:104D9000FDF78BFEE820FDF77FFE0020FDF785FE86
:104DA0000020FDF782FE9920FDF77FFE0020FDF731
:104DB0007CFE8720FDF779FE0020FDF776FE882037
:104DC000FDF773FE0020FDF770FE7720FDF76DFE06
:104DD0000020FDF76AFE6620FDF767FE0020FDF764
:104DE00064FE8820FDF761FE0020FDF75EFEAA202C
:104DF000FDF75BFE0020FDF758FEBB20FDF755FEDA
:104E00000020FDF752FE9920FDF74FFE0020FDF730
:104E10004CFE6620FDF749FE0020FDF746FE5520BA
:104E2000FDF743FE0020FDF740FE5520FDF73DFE57
:104E30000020FDF73AFE4420FDF737FE0020FDF785
:104E400034FE4420FDF731FE0020FDF72EFE5520F4
:104E5000FDF72BFE0020FDF728FEE920FDF71CFEE4
:104E6000AA20FDF722FE0020FDF71FFE0020FDF71F
:104E70001CFE0020FDF719FE0020FDF70DFEAA2004
:104E8000FDF713FECF20FDF707FE0020FDF70DFE16
:104E90000020FDF70AFE0020FDF707FE0020FDF7C9
:104EA00004FE0020FDF701FE0020FDF7FEFD0020BE
:104EB000FDF7FBFD0020FDF7F8FD0020FDF7F5FDF7
:104EC0000020FDF7F2FD0020FDF7EFFD0020FDF7CB
:104ED000ECFD0020FDF7E9FD0020FDF7E6FD0020D8
:104EE000FDF7E3FD0020FDF7E0FD0020FDF7DDFD0F
:104EF000F020FDF7D1FD0020FDF7D7FD5020FDF794
:104F0000D4FD0020FDF7D1FD0020FDF7CEFD0020EF
:104F1000FDF7CBFDF320FDF7BFFD0020FDF7C5FD3C
:104F2000F920FDF7B9FD0620FDF7BFFD1020FDF7C4
:104F3000BCFD2920FDF7B9FD0020FDF7B6FD3A20A4
:104F4000FDF7AAFD5520FDF7B0FD1120FDF7A4FDEA
:104F5000642006F0BDFE2920FDF79EFD3520FDF7FB
:104F60009BFD0020FDF7A1FD5120FDF795FDFF20E1
:104F7000FDF79BFD5320FDF78FFD2C20FDF795FDE0
:104F80005520FDF789FD8220FDF78FFD2C20FDF7D0
:104F900083FD02F0E9B8FE48808845F2105188424E
:104FA0007ED155214FF47040FDF791FDAA214FF2BB
:104FB0000100FDF78CFD52214FF20200FDF787FD45
:104FC00008214FF20300FDF782FD01214FF204009A
:104FD000FDF77DFD0D214FF43040FDF778FD0D21EB
:104FE0004BF20100FDF773FD0D214BF20200FDF7BE
:104FF0006EFD34214FF43640FDF769FD34214BF24C
:105000000160FDF764FD34214BF20260FDF75FFDA6
:105010000D214FF43140FDF75AFD0D214BF20110E7
:10502000FDF755FD0D214BF20210FDF750FD342127
:105030004FF43740FDF74BFD34214BF20170FDF783
:1050400046FD34214BF20270FDF741FD00214FF483
:105050003240FDF73CFD00214BF20120FDF737FD0A
:1050600000214BF20220FDF732FD24214FF438409D
:10507000FDF72DFD24214BF60100FDF728FD24212D
:105080004BF60200FDF723FD01214FF43F40FDF7F1
:105090001EFD0F214FF43340FDF719FD0F2100E0F5
:1050A000FEE34BF20130FDF712FD0F214BF202300F
:1050B000FDF70DFD34214FF43940FDF708FD342193
:1050C0004BF60110FDF703FD34214BF60210FDF7FE
:1050D000FEFC08214FF43540FDF7F9FC08214BF2A6
:1050E0000150FDF7F4FC08214BF20250FDF7EFFCF4
:1050F00003214FF44240FDF7EAFC24214FF43A40EB
:10510000FDF7E5FC24214BF60120FDF7E0FC24210E
:105110004BF60220FDF7DBFC00214FF43C40FDF78D
:10512000D6FC78214BF60140FDF7D1FC00214BF66F
:105130000240FDF7CCFC00214FF43D40FDF7C7FCD9
:1051400078214BF60150FDF7C2FC00214BF60250CE
:10515000FDF7BDFC00214FF43E40FDF7B8FC642193
:105160004BF60160FDF7B3FC00214FF45140FDF711
:10517000AEFC33214DF20110FDF7A9FC00214DF2E8
:105180000210FDF7A4FC34214DF20310FDF79FFC43
:1051900000214DF20410FDF79AFC3A214DF2051062
:1051A000FDF795FC00214DF20610FDF790FC4A2119
:1051B0004DF20710FDF78BFC00214DF20810FDF7B2
:1051C00086FC5C214DF20910FDF781FC00214DF2B7
:1051D0000A10FDF77CFC81214DF20B10FDF777FCE6
:1051E00000214DF20C10FDF772FCA6214DF20D10BE
:1051F000FDF76DFC00214DF20E10FDF768FCE52176
:105200004DF20F10FDF763FC01214DF21010FDF778
:105210005EFC13214DF21110FDF759FC01214DF2F6
:105220001210FDF754FC54214DF21310FDF74FFC02
:1052300001214DF21410FDF74AFC82214DF21510A8
:10524000FDF745FC01214DF21610FDF740FCCA2187
:105250004DF21710FDF73BFC02214DF21810FDF73F
:1052600036FC00214DF21910FDF731FC02214DF200
:105270001A10FDF72CFC01214DF21B10FDF727FC45
:1052800002214DF21C10FDF722FC34214DF21D10BD
:10529000FDF71DFC02214DF21E10FDF718FC6721E1
:1052A0004DF21F10FDF713FC02214DF22010FDF707
:1052B0000EFC84214DF22110FDF709FC02214DF274
:1052C0002210FDF704FCA4214DF22310FDF7FFFB93
:1052D00002214DF22410FDF7FAFBB7214DF2251003
:1052E000FDF7F5FB02214DF22610FDF7F0FBCF2173
:1052F0004DF22710FDF7EBFB02214DF22810FDF7D0
:10530000E6FBDE214DF22910FDF7E1FB02214DF213
:105310002A10FDF7DCFBF2214DF22B10FDF7D7FB35
:1053200002214DF22C10FDF7D2FBFE214DF22D1083
:10533000FDF7CDFB03214DF22E10FDF7C8FB102128
:105340004DF22F10FDF7C3FB03214DF23010FDF796
:10535000BEFB33214DF23110FDF7B9FB03214DF2B5
:105360003210FDF7B4FB6D214DF23310FDF7AFFBAA
:1053700000214FF45240FDF7AAFB33214DF20120EA
:10538000FDF7A5FB00214DF20220FDF7A0FB01E097
:105390007229002034214DF20320FDF798FB0021F3
:1053A0004DF20420FDF793FB3A214DF20520FDF765
:1053B0008EFB00214DF20620FDF789FB4A214DF2BC
:1053C0000720FDF784FB00214DF20820FDF77FFB4D
:1053D0005C214DF20920FDF77AFB00214DF20A20F5
:1053E000FDF775FB81214DF20B20FDF770FB0021CD
:1053F0004DF20C20FDF76BFBA6214DF20D20FDF7C1
:1054000066FB00214DF20E20FDF761FBE5214DF218
:105410000F20FDF75CFB01214DF21020FDF757FB3B
:1054200013214DF21120FDF752FB01214DF2122004
:10543000FDF74DFB54214DF21320FDF748FB0121F0
:105440004DF21420FDF743FB82214DF21520FDF7AC
:105450003EFB01214DF21620FDF739FBCA214DF22A
:105460001720FDF734FB02214DF21820FDF72FFB2A
:1054700000214DF21920FDF72AFB02214DF21A20DE
:10548000FDF725FB01214DF21B20FDF720FB02213A
:105490004DF21C20FDF71BFB34214DF21D20FDF7C2
:1054A00016FB02214DF21E20FDF711FB67214DF284
:1054B0001F20FDF70CFB02214DF22020FDF707FB1A
:1054C00084214DF22120FDF702FB02214DF2222022
:1054D000FDF7FDFAA4214DF22320FDF7F8FA022191
:1054E0004DF22420FDF7F3FAB7214DF22520FDF708
:1054F000EEFA02214DF22620FDF7E9FACF214DF216
:105500002720FDF7E4FA02214DF22820FDF7DFFA0B
:10551000DE214DF22920FDF7DAFA02214DF22A2090
:10552000FDF7D5FAF2214DF22B20FDF7D0FA02213A
:105530004DF22C20FDF7CBFAFE214DF22D20FDF788
:10554000C6FA03214DF22E20FDF7C1FA10214DF2CB
:105550002F20FDF7BCFA03214DF23020FDF7B7FAFA
:1055600033214DF23120FDF7B2FA03214DF2322002
:10557000FDF7ADFA6D214DF23320FDF7A8FA0021B9
:105580004FF45340FDF7A3FA33214DF20130FDF7FC
:105590009EFA00214DF20230FDF799FA34214DF2C6
:1055A0000330FDF794FA00214DF20430FDF78FFA35
:1055B0003A214DF20530FDF78AFA00214DF206300E
:1055C000FDF785FA4A214DF20730FDF780FA0021F8
:1055D0004DF20830FDF77BFA5C214DF20930FDF702
:1055E00076FA00214DF20A30FDF771FA81214DF271
:1055F0000B30FDF76CFA00214DF20C30FDF767FA25
:10560000A6214DF20D30FDF762FA00214DF20E3069
:10561000FDF75DFAE5214DF20F30FDF758FA012153
:105620004DF21030FDF753FA13214DF21130FDF712
:105630004EFA01214DF21230FDF749FA54214DF294
:105640001330FDF744FA01214DF21430FDF73FFA13
:1056500082214DF21530FDF73AFA01214DF2163054
:10566000FDF735FACA214DF21730FDF730FA022165
:105670004DF21830FDF72BFA00214DF21930FDF7ED
:1056800026FA02214DF21A30FDF721FA01214DF2DE
:105690001B30FDF71CFA02214DF21C30FDF717FA02
:1056A00034214DF21D30FDF712FA02214DF21E3069
:1056B000FDF70DFA67214DF21F30FDF708FA0221C0
:1056C0004DF22030FDF703FA84214DF22130FDF731
:1056D000FEF902214DF22230FDF7F9F9A4214DF235
:1056E0002330FDF7F4F902214DF22430FDF7EFF9F4
:1056F000B7214DF22530FDF7EAF902214DF22630AF
:10570000FDF7E5F9CF214DF22730FDF7E0F9022151
:105710004DF22830FDF7DBF9DE214DF22930FDF79F
:10572000D6F902214DF22A30FDF7D1F9F2214DF2DE
:105730002B30FDF7CCF902214DF22C30FDF7C7F9E3
:10574000FE214DF22D30FDF7C2F903214DF22E302E
:10575000FDF7BDF910214DF22F30FDF7B8F9032107
:105760004DF23030FDF7B3F933214DF23130FDF712
:10577000AEF903214DF23230FDF7A9F96D214DF25A
:105780003330FDF7A4F900214FF45440FDF79FF9A1
:1057900033214DF20140FDF79AF900214DF202400C
:1057A000FDF795F934214DF20340FDF790F9002102
:1057B0004DF20440FDF78BF93A214DF20540FDF71B
:1057C00086F900214DF20640FDF781F94A214DF29C
:1057D0000740FDF77CF900214DF20840FDF777F90D
:1057E0005C214DF20940FDF772F900214DF20A40AB
:1057F000FDF76DF981214DF20B40FDF768F90021AD
:105800004DF20C40FDF763F9A6214DF20D40FDF776
:105810005EF900214DF20E40FDF759F9E5214DF2F8
:105820000F40FDF754F901214DF21040FDF74FF9FB
:1058300013214DF21140FDF74AF901214DF21240BA
:10584000FDF745F954214DF21340FDF740F90121D0
:105850004DF21440FDF73BF982214DF21540FDF762
:1058600036F901214DF21640FDF731F9CA214DF20A
:105870001740FDF72CF902214DF21840FDF727F9EA
:1058800000214DF21940FDF722F902214DF21A4094
:10589000FDF71DF901214DF21B40FDF718F900E05D
:1058A00004E302214DF21C40FDF711F934214DF2C1
:1058B0001D40FDF70CF902214DF21E40FDF707F9DE
:1058C00067214DF21F40FDF702F902214DF2204001
:1058D000FDF7FDF884214DF22140FDF7F8F8022193
:1058E0004DF22240FDF7F3F8A4214DF22340FDF7DD
:1058F000EEF802214DF22440FDF7E9F8B7214DF210
:105900002540FDF7E4F802214DF22640FDF7DFF8CF
:10591000CF214DF22740FDF7DAF802214DF2284061
:10592000FDF7D5F8DE214DF22940FDF7D0F8022130
:105930004DF22A40FDF7CBF8F2214DF22B40FDF756
:10594000C6F802214DF22C40FDF7C1F8FE214DF2C0
:105950002D40FDF7BCF803214DF22E40FDF7B7F8BE
:1059600010214DF22F40FDF7B2F803214DF23040E7
:10597000FDF7ADF833214DF23140FDF7A8F80321D2
:105980004DF23240FDF7A3F86D214DF23340FDF7A3
:105990009EF800214FF45540FDF799F833214DF260
:1059A0000150FDF794F800214DF20250FDF78FF8F9
:1059B00034214DF20350FDF78AF800214DF20450D6
:1059C000FDF785F83A214DF20550FDF780F80021EA
:1059D0004DF20650FDF77BF84A214DF20750FDF7D6
:1059E00076F800214DF20850FDF771F85C214DF278
:1059F0000950FDF76CF800214DF20A50FDF767F8E9
:105A000081214DF20B50FDF762F800214DF20C5050
:105A1000FDF75DF8A6214DF20D50FDF758F8002175
:105A20004DF20E50FDF753F8E5214DF20F50FDF702
:105A30004EF801214DF21050FDF749F813214DF2B7
:105A40001150FDF744F801214DF21250FDF73FF8D7
:105A500054214DF21350FDF73AF801214DF2145044
:105A6000FDF735F882214DF21550FDF730F8012190
:105A70004DF21650FDF72BF8CA214DF21750FDF7E5
:105A800026F802214DF21850FDF721F800214DF2C1
:105A90001950FDF71CF802214DF21A50FDF717F8C6
:105AA00001214DF21B50FDF712F802214DF21C505E
:105AB000FDF70DF834214DF21D50FDF708F80221D5
:105AC0004DF21E50FDF703F867214DF21F50FCF711
:105AD000FEFF02214DF22050FCF7F9FF84214DF228
