:020000040800F2
:1000000000000120D11A00085D1400085F140008E8
:100010006114000863140008651400080000000063
:10002000000000000000000000000000671400084D
:1000300069140008000000006B1400086D1400082B
:10004000191B0008191B0008191B0008191B0008C0
:10005000191B0008191B0008191B0008191B0008B0
:10006000191B0008191B0008191B0008191B0008A0
:10007000191B0008191B0008191B0008191B000890
:10008000191B0008191B0008191B0008191B000880
:10009000191B0008191B0008191B0008191B000870
:1000A000191B0008191B0008191B0008191B000860
:1000B000191B0008191B0008191B0008191B000850
:1000C000191B0008191B0008191B0008191B000840
:1000D000191B000871140008191B00087D14000882
:1000E000191B0008191B0008191B0008191B000820
:1000F000191B0008191B0008191B0008191B000810
:10010000191B0008191B0008191B0008191B0008FF
:10011000191B0008191B0008191B00088914000886
:10012000191B0008191B0008191B0008191B0008DF
:1001300000000000000000000000000000000000BF
:1001400000000000000000000000000000000000AF
:10015000000000000000000000000000000000009F
:10016000000000000000000000000000000000008F
:10017000000000000000000000000000000000007F
:10018000000000000000000000000000000000006F
:10019000000000000000000000000000000000005F
:1001A000000000000000000000000000000000004F
:1001B000000000000000000000000000000000003F
:1001C000000000000000000000000000000000002F
:1001D000000000000000000000000000000000001F
:0401E0005FF8E0F1F3
:1001E80010B5054C237833B9044B13B10448AFF369
:1001F80000800123237010BD0802002000000000C9
:100208007C6F000808B5034B1BB103490348AFF3E3
:10021800008008BD000000000C0200207C6F000870
:10022800034613F8012B002AFBD1181A013870472E
:1002380081F0004102E000BF83F0004330B54FEA8F
:1002480041044FEA430594EA050F08BF90EA020FFC
:100258001FBF54EA000C55EA020C7FEA645C7FEA8F
:10026800655C00F0E2804FEA5454D4EB5555B8BFB2
:100278006D420CDD2C4480EA020281EA030382EA23
:10028800000083EA010180EA020281EA0303362DB5
:1002980088BF30BD11F0004F4FEA01314FF4801C88
:1002A8004CEA113102D0404261EB410113F0004F9A
:1002B8004FEA03334CEA133302D0524263EB430351
:1002C80094EA050F00F0A780A4F10104D5F1200EEF
:1002D8000DDB02FA0EFC22FA05F2801841F100014A
:1002E80003FA0EF2801843FA05F359410EE0A5F11E
:1002F80020050EF1200E012A03FA0EFC28BF4CF04F
:10030800020C43FA05F3C01851EBE37101F0004504
:1003180007D54FF0000EDCF1000C7EEB00006EEB11
:100328000101B1F5801F1BD3B1F5001F0CD349089B
:100338005FEA30004FEA3C0C04F101044FEA4452F2
:1003480012F5800F80F09A80BCF1004F08BF5FEA79
:10035800500C50F1000041EB045141EA050130BD59
:100368005FEA4C0C404141EB010111F4801FA4F1FC
:100378000104E9D191F0000F04BF01460020B1FA51
:1003880081F308BF2033A3F10B03B3F120020CDA89
:100398000C3208DD02F1140CC2F10C0201FA0CF067
:1003A80021FA02F10CE002F11402D8BFC2F1200CCC
:1003B80001FA02F120FA0CFCDCBF41EA0C01904082
:1003C800E41AA2BF01EB0451294330BD6FEA0404CB
:1003D8001F3C1CDA0C340EDC04F11404C4F12002B6
:1003E80020FA04F001FA02F340EA030021FA04F3C8
:1003F80045EA030130BDC4F10C04C4F1200220FA1F
:1004080002F001FA04F340EA0300294630BD21FA5C
:1004180004F0294630BD94F0000F83F4801306BF22
:1004280081F480110134013D4EE77FEA645C18BF16
:100438007FEA655C29D094EA050F08BF90EA020FAD
:1004480005D054EA000C04BF1946104630BD91EAA5
:10045800030F1EBF0021002030BD5FEA545C05D1A8
:100468004000494128BF41F0004130BD14F58004E7
:100478003CBF01F5801130BD01F0004545F0FE415B
:1004880041F470014FF0000030BD7FEA645C1ABF90
:10049800194610467FEA655C1CBF0B46024650EAC7
:1004A800013406BF52EA033591EA030F41F40021F3
:1004B80030BD00BF90F0000F04BF0021704730B579
:1004C8004FF4806404F132044FF000054FF000014E
:1004D80050E700BF90F0000F04BF0021704730B50F
:1004E8004FF4806404F1320410F0004548BF4042E4
:1004F8004FF000013EE700BF42004FEAE2014FEA39
:1005080031014FEA02701FBF12F07F4393F07F4F13
:1005180081F06051704732F07F4208BF704793F016
:100528007F4F04BF41F40021704730B54FF4607429
:1005380001F0004521F000411CE700BF50EA01022C
:1005480008BF704730B54FF000050AE050EA0102D5
:1005580008BF704730B511F0004502D5404261EB45
:1005680041014FF4806404F132045FEA915C3FF486
:10057800D8AE4FF003025FEADC0C18BF03325FEA23
:10058800DC0C18BF033202EBDC02C2F1200300FAD4
:1005980003FC20FA02F001FA03FE40EA0E0021FAF9
:1005A80002F11444BDE600BF70B54FF0FF0C4CF4E7
:1005B800E06C1CEA11541DBF1CEA135594EA0C0F99
:1005C80095EA0C0F00F0DEF82C4481EA030621EAD4
:1005D8004C5123EA4C5350EA013518BF52EA03350F
:1005E80041F4801143F4801338D0A0FB02CE4FF0C1
:1005F8000005E1FB02E506F00042E0FB03E54FF0F1
:100608000006E1FB03569CF0000F18BF4EF0010EE8
:10061800A4F1FF04B6F5007F64F5407404D25FEAE4
:100628004E0E6D4146EB060642EAC62141EA555197
:100638004FEAC52040EA5E504FEACE2EB4F1FD0CD9
:1006480088BFBCF5E06F1ED8BEF1004F08BF5FEA57
:10065800500E50F1000041EB045170BD06F0004609
:1006680046EA010140EA020081EA0301B4EB5C04B6
:10067800C2BFD4EB0C0541EA045170BD41F48011AE
:100688004FF0000E013C00F3AB8014F1360FDEBFD3
:10069800002001F0004170BDC4F10004203C35DAAF
:1006A8000C341BDC04F11404C4F1200500FA05F332
:1006B80020FA04F001FA05F240EA020001F00042D3
:1006C80021F0004110EBD37021FA04F642EB060149
:1006D8005EEA430E08BF20EAD37070BDC4F10C0473
:1006E800C4F1200500FA04F320FA05F001FA04F237
:1006F80040EA020001F0004110EBD37041F1000123
:100708005EEA430E08BF20EAD37070BDC4F120052D
:1007180000FA05F24EEA020E20FA04F301FA05F295
:1007280043EA020321FA04F001F0004121FA04F23D
:1007380020EA020000EBD3705EEA430E08BF20EA0D
:10074800D37070BD94F0000F0FD101F00046400047
:1007580041EB010111F4801F08BF013CF7D041EAC9
:10076800060195F0000F18BF704703F000465200CD
:1007780043EB030313F4801F08BF013DF7D043EA9E
:100788000603704794EA0C0F0CEA135518BF95EA54
:100798000C0F0CD050EA410618BF52EA4306D1D1DB
:1007A80081EA030101F000414FF0000070BD50EAFA
:1007B800410606BF1046194652EA430619D094EA84
:1007C8000C0F02D150EA013613D195EA0C0F05D16E
:1007D80052EA03361CBF104619460AD181EA0301C2
:1007E80001F0004141F0FE4141F470014FF000007A
:1007F80070BD41F0FE4141F4780170BD70B54FF015
:10080800FF0C4CF4E06C1CEA11541DBF1CEA135594
:1008180094EA0C0F95EA0C0F00F0A7F8A4EB050476
:1008280081EA030E52EA03354FEA013100F088806D
:100838004FEA03334FF0805545EA131343EA126336
:100848004FEA022245EA111545EA10654FEA0026EB
:100858000EF000419D4208BF964244F1FD0404F5A4
:10086800407402D25B084FEA3202B61A65EB030500
:100878005B084FEA32024FF480104FF4002CB6EBBD
:10088800020E75EB030E22BFB61A754640EA0C003D
:100898005B084FEA3202B6EB020E75EB030E22BF7D
:1008A800B61A754640EA5C005B084FEA3202B6EBBE
:1008B800020E75EB030E22BFB61A754640EA9C007D
:1008C8005B084FEA3202B6EB020E75EB030E22BF4D
:1008D800B61A754640EADC0055EA060E18D04FEA0B
:1008E800051545EA16754FEA06164FEAC30343EAAB
:1008F80052734FEAC2025FEA1C1CC0D111F4801F78
:100908000BD141EA00014FF000004FF0004CB6E770
:1009180011F4801F04BF01430020B4F1FD0C88BF0F
:10092800BCF5E06F3FF6AFAEB5EB030C04BFB6EB1A
:10093800020C5FEA500C50F1000041EB045170BD0D
:100948000EF0004E4EEA113114EB5C04C2BFD4EB3A
:100958000C0541EA045170BD41F480114FF0000EBE
:10096800013C90E645EA060E8DE60CEA135594EA3A
:100978000C0F08BF95EA0C0F3FF43BAF94EA0C0F3D
:100988000AD150EA01347FF434AF95EA0C0F7FF4B2
:1009980025AF104619462CE795EA0C0F06D152EA06
:1009A80003353FF4FDAE1046194622E750EA4106EA
:1009B80018BF52EA43067FF4C5AE50EA41047FF4FB
:1009C8000DAF52EA43057FF4EBAE12E74FF0FF3C60
:1009D80006E000BF4FF0010C02E000BF4FF0010C31
:1009E8004DF804CD4FEA410C7FEA6C5C4FEA430CAA
:1009F80018BF7FEA6C5C1BD001B050EA410C0CBFF9
:100A080052EA430C91EA030F02BF90EA020F00205A
:100A1800704710F1000F91EA030F58BF994208BFC1
:100A280090422CBFD8176FEAE37040F0010070477E
:100A38004FEA410C7FEA6C5C02D150EA013C07D1D5
:100A48004FEA430C7FEA6C5CD6D152EA033CD3D020
:100A58005DF8040B704700BF8446104662468C461A
:100A68001946634600E000BF01B5FFF7B7FF00284D
:100A780048BF10F1000F01BD4DF808EDFFF7F4FF76
:100A88000CBF012000205DF808FB00BF4DF808ED01
:100A9800FFF7EAFF34BF012000205DF808FB00BF24
:100AA8004DF808EDFFF7E0FF94BF012000205DF846
:100AB80008FB00BF4DF808EDFFF7CEFF94BF0120FB
:100AC80000205DF808FB00BF4DF808EDFFF7C4FFF4
:100AD80034BF012000205DF808FB00BF4FEA410C3D
:100AE8007FEA6C5C02D150EA013C0AD14FEA430C20
:100AF8007FEA6C5C02D152EA033C02D14FF000005D
:100B080070474FF0010070474FEA410212F500129A
:100B180015D211D56FF47873B3EB625212D94FEA3C
:100B2800C12343F0004343EA505311F0004F23FA26
:100B380002F018BF404270474FF00000704750EA7B
:100B4800013005D111F0004008BF6FF00040704738
:100B58004FF00000704700BF4A0011D212F5001292
:100B680011D20DD56FF47873B3EB62520ED44FEAFD
:100B7800C12343F0004343EA505323FA02F070477D
:100B88004FF00000704750EA013002D14FF0FF30BB
:100B980070474FF0000070474FEA4102B2F1E0435E
:100BA80024BFB3F5001CDCF1FE5C0DD901F0004C4C
:100BB8004FEAC0024CEA5070B2F1004F40EB83009C
:100BC80008BF20F00100704711F0804F21D113F1C8
:100BD8003872BCBF01F00040704741F480114FEA01
:100BE8005252C2F11802C2F1200C10FA0CF320FA8A
:100BF80002F018BF40F001004FEAC1234FEAD323A7
:100C080003FA0CFC40EA0C0023FA02F34FEA430310
:100C1800CCE77FEA625307D150EA01331EBF4FF099
:100C2800FE4040F44000704701F0004040F0FE40B4
:100C380040F40000704700BF08B50268284B9A428C
:100C48004CD1284B1B78413B122B15D8DFE803F019
:100C58000A1B20252A2F34393E1414141414141492
:100C6800141443004FF4166000F0B2F901224FF457
:100C780080711D4801F0C2F9BDE8084001221949F8
:100C88001A4802F0E6BB4FF4166000F0F5F9EDE7FC
:100C98004FF4166000F0DCF9E8E74FF4166000F056
:100CA800FFF9E3E74FF4166000F0A8F9DEE74FF428
:100CB800166000F009FAD9E74FF4166000F018FA48
:100CC800D4E74FF4166000F027FACFE74FF4166028
:100CD80000F036FACAE700F033F9CDE708BD00BFE7
:100CE8000048004024020020000801403804002089
:100CF80010222DE9F04389B00DEB0200002102F02B
:100D0800EBFB2D4BDFF8B8909A69DFF8B88042F01A
:100D180004029A619A69484602F004020092009A15
:100D28009A69264F42F008029A619A694FF48071D5
:100D380002F008020192019A9A69022442F04002E4
:100D48009A619A69012602F040020292029A9A690F
:100D5800002542F020029A619B69002203F02003DB
:100D68000393039B01F04AF940460122202101F038
:100D780045F901223846022101F040F94FF4807309
:100D880004A94846CDE90436CDE9065401F04AF8ED
:100D9800202304A94046CDE90436CDE9065401F0E4
:100DA80041F804A93846CDE90446CDE9065401F0D6
:100DB80039F809B0BDE8F08300100240001801407E
:100DC80000080140000C014008B50B480B4A0C4BC9
:100DD800C0E9002300234FF48042C0E90233C0E990
:100DE8000423C0E90633036201F034FA18B1BDE800
:100DF800084000F0A3B808BD580200200054004085
:100E0800A086010010B5044686B01022002102A871
:100E180002F062FB2268114B9A421CD1104CC0228E
:100E2800A36902A943F00803A361A3690D4803F06D
:100E380008030093009B1223CDE9022303230593A3
:100E480000F0F0FFE36943F40013E361E36903F49E
:100E580000130193019B06B010BD00BF0054004071
:100E680000100240000C014010B590B02022002173
:100E780007A802F031FB1422002101A802F02CFB84
:100E8800102301220224CDE90A234FF4601306A897
:100E980006940D940F9301F019FB08B172B6FEE7A2
:100EA8000F23CDE901344FF480630390CDE904307A
:100EB800214601A801F0E2FC08B172B6FEE710B0C5
:100EC80010BD000008B500F049FEFFF7CDFFFFF7A1
:100ED8000FFF00F00DFC00F0B5FC00F0F9FC00F08D
:100EE8006DFC00F03BFD00F0F3FA00F053FDFFF756
:100EF8006BFF00220121252000F078FE252000F05C
:100F0800A9FE012202210A4801F078F800F02EF823
:100F180000F06CF900F072F901220649064802F067
:100F280098FA00F0E7F900F0F7F900F025FAFAE787
:100F380000180140240200203804002072B6FEE7A1
:100F480000234FF0804010B50549064C064A23643B
:100F580003640B641364E363C363CB63D36310BD9F
:100F680000040040002C014000080040F8B5144F70
:100F7800144E154D0821384602F016F8134C082176
:100F8800304602F011F80821284602F00DF8082131
:100F9800204602F009F80C21384602F005F80C2129
:100FA800304602F001F80C21284601F0FDFF2046EA
:100FB8000C2101F0F9FFBDE8F840FFF7C1BF00BF01
:100FC80060030020A803002018030020D00200209E
:100FD80030B500234FF08044054D0649064AE863C2
:100FE800E063C863D0632B6423640B64136430BD6F
:100FF800002C0140000400400008004030B50023E8
:101008004FF08044054D0649064AEB63E363CB6322
:10101800D363286420640864106430BD002C014048
:1010280000040040000800400023084A1064D3630D
:101038004FF080421064D363C2F84034C2F83C04D5
:10104800C2F84038C2F83C08704700BF002C014085
:101058000023084A1364D0634FF080421364D063BE
:10106800C2F84004C2F83C34C2F84008C2F83C3820
:10107800704700BF002C01400023084A1364D06366
:101088004FF080421064D363C2F84034C2F83C0485
:10109800C2F84008C2F83C38704700BF002C014035
:1010A8000023084A1064D3634FF080421364D0636E
:1010B800C2F84004C2F83C34C2F84038C2F83C08D0
:1010C800704700BF002C01400023084A1364D06316
:1010D8004FF080421364D363C2F84034C2F83C0432
:1010E800C2F84038C2F83C38704700BF002C0140B5
:1010F8000023084A1364D3634FF080421364D0631B
:10110800C2F84034C2F83C34C2F84038C2F83C084F
:10111800704700BF002C01400023084A1364D363C2
:101128004FF080421064D363C2F84034C2F83C34B4
:10113800C2F84008C2F83C38704700BF002C014094
:101148000023084A1064D3634FF080421364D363CA
:10115800C2F84004C2F83C34C2F84038C2F83C38FF
:10116800704700BF002C0140F0B500244FF4807791
:10117800084E094D85B00123321900920297019358
:10118800002278212846013401F010F91B2CF2D1F5
:1011980005B0F0BD00000020580200207FB50123F3
:1011A8004FF4807106AA02F8010D0092CDE90131D1
:1011B80000227821024801F0F9F807B05DF804FB35
:1011C800580200207FB501234FF4807106AA02F867
:1011D800010D0092CDE9013140227821024801F049
:1011E800E5F807B05DF804FB5802002008B5C820F0
:1011F80000F0D8FCBDE80840FFF7B6BF38B5B0240A
:101208002046FFF7CBFF0020FFF7C8FF1020FFF7AD
:10121800C5FF8125013D04D10134E4B2B82CEFD1DA
:1012280038BD0020FFF7CEFFF4E710B5044650396B
:10123800C8B2FFF7B3FF200940F01000FFF7AEFF78
:1012480004F00F00BDE81040FFF7A8BFF8B5203A3A
:101258000C46D5B20206064642BF00260234E4B266
:10126800102B2146304619D10027FFF7DEFF124A1E
:1012780002EB0515E85D0137FFF7A4FF082FF9D148
:10128800611CC9B23046FFF7D0FF00242B19187A29
:101298000134FFF797FF082CF8D1F8BDFFF7C5FF19
:1012A80006230024054A03FB0525285D0134FFF7C2
:1012B80089FF062CF9D1F0E7DE710008B66F000847
:1012C8002DE9F04104460D46174698460026F3B22C
:1012D800FA5C0AB9BDE8F081204608342946E4B230
:1012E8004346FFF7B3FF782C82BF0235EDB20024E6
:1012F8000136ECE7064A10B50649104602F048FFE9
:10130800BDE810400021024610230846FFF7D8BF69
:1013180025020020A86F000870B5124C124D134921
:10132800AA68204602F014FF10232246022100205A
:10133800FFF7C6FFEA680E49204602F009FF1023AE
:10134800224604210020FFF7BBFF2A6909492046ED
:1013580002F0FEFE2246BDE8704010230621002060
:10136800FFF7AEBF25020020AC020020CE770008B0
:10137800DC770008EA7700081D4B1E491B680968DE
:101388001D4A9942127809DA1C4909688B4205DA24
:101398000A2A03D91A4B1868FFF746BE1949096883
:1013A8008B4209DA184909688B4205DD0A2A03D9F4
:1013B800134B1868FFF74CBE104909688B4209DDCA
:1013C800114909688B4205DA0A2A03D90C4B1868B7
:1013D800FFF7FEBD511F052901D8FFF7B1BD002B4E
:1013E800FBD0002AF9D0094B1B68002BF5D07047B9
:1013F800C402002048020020C8020020200000206B
:101408001C0000202800002024000020CC0200201E
:101418000E4B82B09A6942F001029A619A6902F011
:1014280001020092009ADA6942F08052DA61DB69BF
:10143800074A03F080530193019B536823F0E0634C
:1014480043F08063536002B0704700BF0010024051
:1014580000000140FEE7FEE7FEE7FEE7FEE7704713
:101468007047704700F08CBB014801F0DBBE00BF3D
:101478007C040020014801F0D5BE00BF38040020DC
:10148800014801F04ABB00BFF00300200B4B10B528
:101498001968024609B90A491960186809490A4CC5
:1014A8000244091B8A4206D901F0ECFF0C230360B1
:1014B8004FF0FF3010BD1A60FCE700BF4C0200205F
:1014C800C80400200000012000040000704700004C
:1014D8003F2313B50E4A0F480024C0E9002342F207
:1014E8000F73C3608023CDE900448460836101F0F9
:1014F80003FC08B1FFF722FD69460648CDE9004420
:1015080001F054FD08B1FFF719FD02B010BD00BF8E
:1015180000140040F003002003681D4A84B0934281
:101528000BD11C4B9A6942F400629A619B6903F4DF
:1015380000630093009B04B07047B3F1804F0BD158
:1015480003F50433DA6942F00102DA61DB6903F07A
:1015580001030193019BEEE70F4A93420AD10D4B19
:10156800DA6942F00202DA61DB6903F002030293EE
:10157800029BE0E7094A9342DDD1064BDA6942F063
:101588000402DA61DB6903F004030393039BD2E7E7
:10159800002C0140001002400004004000080040F8
:1015A80007B50E4B02689A4215D103F5FE33DA6986
:1015B800022142F02002DA61DB69002203F02003F5
:1015C80001933720019B00F011FB372003B05DF831
:1015D80004EB00F03FBB03B05DF804FB00140040CF
:1015E800102210B5044688B00DEB0200002101F06E
:1015F80073FF2368354A93421BD1354B4FF4C044DF
:101608009A6904A942F040029A619B69314803F043
:1016180040030093009B0223CDE90443079300F0A5
:1016280001FC2D4A536843F0E06343F0C003536064
:1016380016E0B3F1804F15D103F504339A690C20F5
:1016480042F004029A619B6904A903F00403019320
:10165800019B0223CDE904032048079300F0E2FB35
:1016680008B010BD1E4A934211D1194B03219A6943
:101678001C4842F008029A619B6903F00803029330
:10168800029B0223CDE90413079304A9E6E7164A4F
:101698009342E5D10E4B04A99A69144842F02002FE
:1016A8009A619B694FF4404203F020030393039B24
:1016B8000223CDE90423079300F0B4FB064A5368DC
:1016C80043F0E06343F48053B1E700BF002C0140CE
:1016D80000100240001801400000014000080140CD
:1016E80000040040000C01400008004000140140C4
:1016F80030B5002593B01C22294603A8CDE9015531
:1017080001F0EAFE202229460AA801F0E5FE294C4C
:10171800294B2046C4E9003541F6FF03C4E90335E7
:101728008023A5606561A36101F012FB08B1FFF792
:1017380005FC202301A91F48CDE9013501F036FC3D
:1017480008B1FFF7FBFB60224FF4FA73CDE90323DE
:101758000023082203A91748CDE90533CDE907334B
:10176800099301F057FB08B1FFF7E8FB226811481D
:10177800D36923F00803D3610C220DEB020101F0B9
:1017880049FB08B1FFF7DAFB00234FF400520AA91E
:101798000848CDE90A33CDE90C330E930F92119323
:1017A80001F03EFC08B1FFF7C9FB0248FFF718FF3C
:1017B80013B030BD60030020002C014010B5002498
:1017C8008AB01C22214603A8CDE9014401F084FE19
:1017D8004FF080431A48C0E9003441F6FF03C0E9DE
:1017E800033480238460836101F0B2FA08B1FFF703
:1017F800A5FB01A91248CDE9014401F0D7FB08B1C6
:10180800FFF79CFB60224FF4FA73CDE90323002312
:10181800082203A90A480593079301F0FBFA08B1C7
:10182800FFF78CFB0C2206480DEB020101F0F2FADF
:1018380008B1FFF783FB0248FFF7D2FE0AB010BDDC
:10184800A803002010B500248AB01C22214603A852
:10185800CDE9014401F040FE1B481C4B8460C0E9FF
:10186800003441F6FF03C0E903348023836101F0AB
:101878006FFA08B1FFF762FB202301A91248CDE9EE
:10188800013401F093FB08B1FFF758FB60224FF4D5
:10189800FA73CDE903230023082203A90A48059314
:1018A800079301F0B7FA08B1FFF748FB0C22064886
:1018B8000DEB020101F0AEFA08B1FFF73FFB024859
:1018C800FFF78EFE0AB010BD180300200004004088
:1018D80010B500248AB01C22214603A8CDE9014492
:1018E80001F0FAFD1B481C4B8460C0E9003441F646
:1018F800FF03C0E903348023836101F029FA08B1AA
:10190800FFF71CFB202301A91248CDE9013401F09F
:101918004DFB08B1FFF712FB60224FF4FA73CDE9D3
:1019280003230023082203A90A480593079301F01B
:1019380071FA08B1FFF702FB0C2206480DEB020111
:1019480001F068FA08B1FFF7F9FA0248FFF748FE14
:101958000AB010BDD00200200008004008B54FF4BE
:10196800E1330A480A4AC0E9002300230C22C0E9EF
:1019780002330361C0E90523C36101F0C9FB18B153
:10198800BDE80840FFF7DABA08BD00BF7C040020B4
:101998000038014008B54FF4E1330A480A4AC0E963
:1019A800002300230C22C0E902330361C0E90523A8
:1019B800C36101F0ADFB18B1BDE80840FFF7BEBA3E
:1019C80008BD00BF3804002000480040102210B5B0
:1019D800044688B00DEB0200002101F07DFD23686C
:1019E800334A934229D1334B4FF400719A693248F4
:1019F80042F480429A619A6902F480420092009A05
:101A08009A6942F004029A619B6903F00403019306
:101A1800019B0223CDE90413032304A9079300F0D3
:101A280001FA4FF48060002304A9CDE90403224899
:101A3800069300F0F7F908B010BD204A9342FAD196
:101A48001C4B04A9DA691E4842F48022DA61DA697B
:101A5800002402F480220292029A9A6942F020023B
:101A68009A619B694FF4807203F020030393039BF0
:101A78000223CDE904230323079300F0D3F94FF49D
:101A8800007304A90E48CDE90434069400F0CAF99D
:101A98000C4A21465368272043F0E06343F03003A3
:101AA8005360224600F0A2F8272000F0D3F8C2E7DE
:101AB8000038014000100240000801400048004082
:101AC80000140140000001400C480D490D4A002354
:101AD80002E0D458C4500433C4188C42F9D30A4ADB
:101AE8000A4C002301E013600432A242FBD3FFF743
:101AF800EDFC01F0CDFCFFF7E5F970470000002090
:101B080008020020387B000808020020C8040020D2
:101B1800FEE7000038B50E4B054618784FF47A7387
:101B2800B3FBF0F30B4A1068B0FBF3F000F0A0F839
:101B3800044658B90F2D09D8024629464FF0FF3000
:101B480000F054F82046044B1D6038BD0120FCE726
:101B5800300000202C00002034000020074A08B57F
:101B68001368032043F01003136000F02DF80020E1
:101B7800FFF7D0FFFFF74CFC002008BD0020024013
:101B8800034A044B11681B780B441360704700BF6D
:101B9800C004002030000020014B1868704700BFC7
:101BA800C004002038B50446FFF7F6FF0546631C5D
:101BB8001EBF044B1B78E418FFF7EEFF401BA04242
:101BC800FAD338BD30000020074A0002D36800F479
:101BD800E06023F4E0631B041B0C43F0BF6343F491
:101BE80000330343D360704700ED00E0174B70B536
:101BF800DC684FF0FF36C4F30224C4F10705042D56
:101C080004F1040328BF0425062B98BF002406FA14
:101C180005F388BF033C21EA0303A34006FA04F452
:101C280022EA0404002843EA0403A8BF00F1604044
:101C38004FEA0313B8BF064ADBB2ABBF00F56140F9
:101C480000F00F0080F80033135470BD00ED00E081
:101C580014ED00E0002808DB0123420900F01F0012
:101C680003FA00F0014B43F82200704700E100E05E
:101C78000138B0F1807F0AD2F021064B064A58603D
:101C880082F823100020072298601A60704701200C
:101C9800704700BF10E000E000ED00E090F8213050
:101CA800022B06D004238363002380F82030012010
:101CB80070470368C16B1A6822F00E021A601A682E
:101CC80022F001021A600122036C02FA03F34B604E
:101CD800002380F8212080F8203018467047000043
:101CE80090F8213010B5022B03D004238363012020
:101CF80010BD036845491A6822F00E021A601A6876
:101D080022F001021A60424A934244D98B423BD0E6
:101D180014318B423AD014318B4239D014318B4272
:101D280026D014318B4226D014318B4226D09342D0
:101D380027D002F56272934226D01432934225D0FE
:101D48001432934224D01432934214BF4FF4803398
:101D58004FF480532F4A53600123002480F8213028
:101D6800436B80F82040002B4DD098472046BFE7B2
:101D78004FF48053EEE74FF48033EBE74FF48013D2
:101D8800E8E74FF08073E5E70123E3E71023E1E795
:101D98004FF48073DEE78B422ED01F498B422DD043
:101DA80014318B422CD014318B4219D014318B4210
:101DB80019D014318B4219D093421AD0174A934242
:101DC8001AD01432934219D01432934218D01432D4
:101DD800934214BF4FF480334FF48053104ABAE74C
:101DE8004FF48053FAE74FF48033F7E74FF480134A
:101DF800F4E74FF08073F1E70123EFE71023EDE7F5
:101E08004FF48073EAE7184672E700BF0800024003
:101E180080000240000402401C0002400804024006
:101E2800000002402DE9F74F002426466C4F6D4B09
:101E3800DFF8B8C1DFF8B8E10A6832FA06F502D16E
:101E480003B0BDE8F08F4FF0010808FA06F802EA7F
:101E58000802904540F084804D68122D00F0B18052
:101E680000F28780022D00F0A9807BD8002D00F0B9
:101E78008C80012D00F0A0804FF00F09FF2A93BF3E
:101E8800824606F18045083DD0F800B092BFB50003
:101E9800D0F804B0AD0009FA05F82BEA080804FAEE
:101EA80005F588BF00F1040A48EA0505CAF800509C
:101EB800D1F804A01AF0805F52D0BD6926F003085B
:101EC80045F00105BD61BD6908F1804805F00105CF
:101ED800019508F5803806F0030B019D4FEA8B0B3E
:101EE800D8F8085009FA0BF925EA09093E4DA84225
:101EF8006CD005F58065A8426AD005F58065A842D2
:101F080068D005F58065A84266D005F58065A842C9
:101F180064D060450CBF0525062505FA0BF545EA92
:101F28000905C8F808501D681AF4803F14BF154306
:101F380095431D605D681AF4003F14BF154395432F
:101F48005D609D681AF4801F14BF154395439D601A
:101F5800DD681AF4001F14BF2A4325EA0202DA607A
:101F6800013669E7032D25D0112D85D1CC680434BD
:101F780082E7754509D012D8DFF878904D4504D02E
:101F880009F580394D457FF477AF8C68E4B1012CB1
:101F98000CBFC0F81080C0F8148008246CE7DFF884
:101FA80058904D45F1D009F580394D45EDD0A9F54A
:101FB8008019E7E700245FE7CC685DE7CC68083460
:101FC8005AE7CC680C3457E7042455E70025A4E702
:101FD8000125A2E70225A0E703259EE704259CE743
:101FE800001002400004014000080140001C0140AC
:101FF8000000211000001110000031100AB1016129
:1020080070470904FBE7016800224B6913F48063F9
:1020180010D06FF480634B612023026380F83D3059
:1020280080F83E20036C80F83C2043F004030364EE
:1020380001207047184670472DE9F04104461646BE
:1020480098468FB22568686937EA000017D06B692F
:102058005A0516D52B68202243F400732B606FF4C1
:1020680080636B610023236384F83D2084F83E304D
:10207800226C42F004020120226484F83C30BDE85E
:10208800F081731CDFD0FFF787FDA0EB0800B0429A
:1020980001D8002ED6D100232022236384F83D20C6
:1020A80084F83E30226C42F02002E4E770B5044622
:1020B8000D46164623685B695B0701D5002070BD95
:1020C8002046FFF7A0FFA8B96A1CF3D0FFF764FD0C
:1020D800801BA84201D8002DECD1002320222363C5
:1020E80084F83D2084F83E30226C84F83C3042F07D
:1020F800200222640120E2E72DE9F84304469046D5
:102108001F46089E4FEA11498DB22168B9F1010FA7
:102118000CBF4B698B6935EA03030CBF012300230D
:10212800984501D0002016E07B1CEFD0FFF734FD66
:10213800801BB84201D8002FE7D1002320220120BC
:10214800236384F83D2084F83E30226C84F83C30C8
:1021580042F020022264BDE8F88370B504460D46BB
:10216800164623685B691B0601D5002070BD204612
:10217800FFF749FFA8B96A1CF3D0FFF70DFD801BD4
:10218800A84201D8002DECD100232022236384F833
:102198003D2084F83E30226C84F83C3042F0200226
:1021A80022640120E2E700002DE9FF41154602689C
:1021B800984613680B9E43F4807313600F460A9B7E
:1021C800009600224FF001110446FFF795FF23689F
:1021D80038B11B68DB0502D54FF400732364032074
:1021E8000AE007F0FE071F610A9A3346184920469D
:1021F800FFF722FF18B1012004B0BDE8F081236881
:1022080003905A690A9903929B69324603932046C0
:10221800039BFFF7A2FF40B1236C042B01BF226888
:10222800136843F400731360E5E7B8F1010F2368FE
:1022380002D1EDB21D61DFE72A0A1A610A99324616
:102248002046FFF78AFF0028E6D12368F1E700BFA0
:102258000200010070B5044608B9012070BD90F86D
:102268003D3003F0FF021BB980F83C20FEF7CAFDA1
:10227800242384F83D3023681A6822F001021A608A
:102288001A6842F400421A601A6822F400421A607E
:1022980000F090FB6368414A93424DD8404A90420F
:1022A800DBD940492268B0FBF1F1556825F03F05BC
:1022B8000D435560156A25F03F0501312943116228
:1022C800D169364D21F44F41AB4221F0FF0100F1B5
:1022D800FF3048D85B00B0FBF3F0431CC3F30B039B
:1022E800042B38BF04230B43D3611168D4E90730AA
:1022F80021F0C00103430B4313609168D4E9030341
:1023080021F40341034321F0FF010B439360D1689B
:10231800D4E9053021F0FF0103430B43D360136870
:10232800002043F0010313602023206484F83D302B
:10233800206384F83E0091E71B4A90428DD9194EDC
:102348004FF49671B0FBF6F622687143556825F094
:102358003F0535434FF47A765560156AB1FBF6F1BF
:1023680025F03F05A9E7A56855B903EB4303B0FB82
:10237800F3F0431CC3F30B036BB143F40043B2E720
:1023880019256B43B0FBF3F0431CC3F30B0313B1E4
:1023980043F44043A7E70123A5E700BFA086010057
:1023A8007F841E0040420F00FF083D002DE9F743DF
:1023B800044699460F4690460C9EFFF7EDFB94F8AD
:1023C8003D300546202B03D0022003B0BDE8F08342
:1023D8000090192301223B492046FFF78DFE002873
:1023E800F2D194F83C30012BEED0012384F83C3034
:1023F800236820461A68D10758BF1A6839465CBF57
:1024080042F001021A601A6822F400621A6021235D
:1024180084F83D30402384F83E30002323640A9B2F
:10242800CDE900656362BDF82C3042466385638D53
:102438002385254BE3624B46FFF7B6FE00282AD0DA
:102448000120C2E7FFF789FE40B1236C042B01BFCE
:102458002268136843F400731360F1E7636A27681E
:102468001A4612F8011B39616262628D218D013AA8
:1024780092B262857A69481E80B2520720850AD5D1
:1024880048B15A7802333A616362638D0239013B7D
:102498009BB221856385238D2A4631462046002B31
:1024A800D0D1FFF703FE0028CFD12268136843F488
:1024B80000731360202384F83C0084F83D3084F8CE
:1024C8003E0082E7020010000000FFFF2DE9F34103
:1024D800054608B901203CE00368DB0710D42B68E7
:1024E8009F075DD42B68190700F194802B685A0761
:1024F80000F1BE80E869002840F02C81002028E027
:102508008F4C636803F00C03042B07D0636803F057
:102518000C03082B09D16368DE0306D523689C03E6
:10252800DDD56B68002BDAD1D4E76B68B3F5803F53
:1025380012D1236843F480332360FFF72DFB06464E
:1025480023689803CBD4FFF727FB801B6428F7D9AF
:10255800032002B0BDE8F0819BB9236823F48033DF
:102568002360236823F480232360FFF715FB0646C6
:1025780023689903B3D5FFF70FFB801B6428F7D9AD
:10258800E6E7B3F5A02F236803D143F48023236043
:10259800CFE723F480332360236823F48023CBE739
:1025A800674C636813F00C0F07D0636803F00C03E3
:1025B800082B10D16368DA030DD423689B0702D572
:1025C8002B69012B86D123686A6923F0F80343EA53
:1025D800C203236086E72A695A4B6AB101221A604E
:1025E800FFF7DAFA064623689F07ECD4FFF7D4FA18
:1025F800801B0228F7D9ABE71A60FFF7CDFA064629
:10260800236898077FF56EAFFFF7C6FA801B02288C
:10261800F6D99DE7AA694A4C4B4BDAB101221A60F8
:10262800FFF7BAFA0646636A9B070DD54FF4FA52CC
:10263800464B1B68B3FBF2F3019300BF019B5A1E84
:102648000192002BF9D151E7FFF7A6FA801B022867
:10265800E9D97DE71A60FFF79FFA0646636A9F0784
:102668007FF544AFFFF798FA801B0228F6D96FE789
:10267800334CE369D80024D40127E36943F080533D
:10268800E361E36903F080530093009B304E3368A5
:10269800D90518D5EB68012B26D1236A43F001032D
:1026A8002362FFF779FA41F288368046236A9B074E
:1026B8003FD5002F3FF41EAFE36923F08053E36159
:1026C80018E70027E2E7336843F480733360FFF7C5
:1026D80063FA80463368DA05DCD4FFF75DFAA0EBCD
:1026E80008006428F6D933E7ABB9236A41F2883881
:1026F80023F001032362236A23F004032362FFF714
:102708004BFA0646236A9807D3D5FFF745FA801B8C
:102718004045F7D91CE7052B236A03D143F004038E
:102728002362BAE723F001032362236A23F0040338
:10273800B6E7FFF731FAA0EB0800B042B6D907E7D1
:102748000010024000004242800442422C00002057
:10275800007000402A4B5A681C4602F00C02082AF6
:102768003DD00023274E022833602BD1FFF714FAFF
:102778000746236899011FD42B6AB3F5803F05D11A
:102788006268A96822F400320A436260696A626872
:102798000B4322F474121343636001233360FFF781
:1027A800FBF9054623689A013FF5A8AEFFF7F4F94F
:1027B800401B0228F6D9CBE6FFF7EEF9C01B02282A
:1027C800D7D9C5E6FFF7E8F9054623689B017FF5E9
:1027D80095AEFFF7E1F9401B0228F6D9B8E60128C3
:1027E8003FF4B7AE58682B6A00F480329A427FF4FF
:1027F80071AE6B6A00F47010C01A18BF0120A8E609
:10280800001002406000424230B5184B87B002AC5D
:1028180003F11005224618685968083303C2AB4211
:102828001446F7D140F201231149ADF804304B6842
:1028380003F00C02082A17D1C3F3834206A8024406
:10284800DB0312F8102C0CD54B680A48C3F340433D
:10285800504306AA134413F8143CB0FBF3F007B036
:1028680030BD05485043FAE70248F8E7986F00087A
:102878000010024000127A0000093D002DE9F041E5
:102888000D46044610B90120BDE8F081444A13689A
:1028980003F007038B4228D321688E0730D4CA0778
:1028A80043D43F4A136803F00703AB4265D8226854
:1028B8003C4D12F0040F6CD1130706D56B682269E2
:1028C80023F4605343EAC2036B60FFF79DFF6B6814
:1028D800354AC3F30313D35CD840344B1860344BE8
:1028E8001868FFF717F90020CEE7136823F00703ED
:1028F8000B431360136803F007038B42C3D1CBE784
:10290800284B11F0040F1EBF5A6842F4E0625A6067
:10291800080742BF5A6842F460525A605A68A06871
:1029280022F0F00202435A60B9E762681D4E012A9C
:1029380033681AD113F4003FA5D0736841F2883880
:1029480023F0030313437360FFF726F90746736800
:10295800626803F00C03B3EB820FA2D0FFF71CF9F7
:10296800C01B4045F3D903208EE7022A02D113F099
:10297800007FE1E713F0020FDEE7136823F0070397
:102988002B431360136803F00703AB427FF47BAF5C
:102998008DE76B68E16823F4E0630B436B608BE7BA
:1029A8000020024000100240F87700082C000020A8
:1029B80034000020044B054A5B68C3F30223D35C50
:1029C800034A1068D8407047001002400878000891
:1029D8002C000020044B054A5B68C3F3C223D35C78
:1029E800034A1068D8407047001002400878000871
:1029F8002C000020036A70B523F001030362036A08
:102A0800446882690D6822F073022A438D6823F0B6
:102A180002032B430E4DA84202D00E4EB04210D1F5
:102A2800CE6823F008033343A84223F0040302D0FE
:102A3800084DA84205D1D1E9055624F44074354320
:102A48002C43446082614A684263036270BD00BFE0
:102A5800002C014000340140036A70B523F48073F0
:102A68000362036A4468C2690D6822F073022A434C
:102A78008D6823F4007343EA0523114DA84203D05F
:102A880005F50065A84214D1CD6823F4006343EA34
:102A980005230B4D23F48063A84203D005F5006598
:102AA800A84206D1D1E9055624F44054354344EAF6
:102AB80005144460C2614A68C263036270BD00BF06
:102AC800002C0140036A30B523F480530362036A83
:102AD8004468C2690D6822F4E64242EA05228D681C
:102AE80023F4005343EA0533084DA84203D005F503
:102AF8000065A84204D14D6924F4804444EA851451
:102B08004460C2614A680264036230BD002C01401F
:102B180070477047704770477047036810B51A6967
:102B2800044691070ED5DA6892070BD56FF00202BA
:102B38001A6101229B6902779B0777D0FFF7EAFFAA
:102B48000023237723681A69500710D5DA685107DC
:102B58000DD56FF004021A6102229B69227713F4E3
:102B6800407F204668D0FFF7D5FF002323772368EE
:102B78001A6912070FD5DA6810070CD56FF008022A
:102B88001A610422DB692277990720465AD0FFF799
:102B9800C1FF0023237723681A69D20610D5DA68A3
:102BA800D0060DD56FF010021A610822DB69227772
:102BB80013F4407F20464BD0FFF7ACFF0023237768
:102BC80023681A69D10708D5DA68D20705D56FF0E6
:102BD800010220461A61FFF79BFF23681A69100655
:102BE80008D5DA68110605D56FF0800220461A610B
:102BF80000F03DFA23681A69520608D5DA685006CB
:102C080005D56FF0400220461A61FFF785FF23685B
:102C18001A69910622D5DA6892061FD56FF020024C
:102C28002046BDE810401A6100F020BAFFF771FF96
:102C38002046FFF770FF83E7FFF76BFF2046FFF79B
:102C48006AFF92E7FFF765FF2046FFF764FFA0E7FA
:102C5800FFF75FFF2046FFF75EFFAFE710BD0000FC
:102C6800244A0368904212D002F5006290420ED0C6
:102C7800B0F1804F0BD0A2F59832904207D002F500
:102C88008062904203D002F5806290421DD14A686A
:102C980023F070031343174A904212D002F50062E2
:102CA80090420ED0B0F1804F0BD0A2F598329042EE
:102CB80007D002F58062904203D002F5806290420C
:102CC80003D1CA6823F4407313434A6923F080038D
:102CD800134303608B68C3620B688362054B984299
:102CE80003D003F50063984201D10B690363012304
:102CF80043617047002C014010B5044630B390F88A
:102D08003D3003F0FF021BB980F83C20FEF748FC79
:102D18000223206884F83D30211DFFF7A1FF01231D
:102D2800002084F8463084F83E3084F83F3084F838
:102D3800403084F8413084F8423084F8433084F8D5
:102D4800443084F8453084F83D3010BD0120FCE75C
:102D580010B5044630B390F83D3003F0FF021BB9BC
:102D680080F83C20FEF7D8FB0223206884F83D3029
:102D7800211DFFF775FF0123002084F8463084F8F1
:102D88003E3084F83F3084F8403084F8413084F88D
:102D9800423084F8433084F8443084F8453084F86D
:102DA8003D3010BD0120FCE7036A70B523F0100325
:102DB8000362036A446882690D6822F4E64242EAC3
:102DC80005228D6823F0200343EA0513104DA8421D
:102DD80003D005F50065A84214D1CD6823F080031F
:102DE80043EA05130A4D23F04003A84203D005F532
:102DF8000065A84206D1D1E9055624F4406435435C
:102E080044EA8504446082614A688263036270BD53
:102E1800002C014038B590F83C300446012B54D0C2
:102E2800012380F83C300C2A18D8DFE802F0071795
:102E380017171B1717172C1717173D000068FFF7F0
:102E4800D9FD236809699A6942F008029A619A696A
:102E580022F004029A619A690A439A61002084F870
:102E68003C0038BD0068FFF79FFF236809699A692D
:102E780042F400629A619A6922F480629A619A69BE
:102E880042EA0122E9E70068FFF7E6FD23680969DD
:102E9800DA6942F00802DA61DA6922F00402DA61DA
:102EA800DA690A43DA61D9E70068FFF70BFE23689D
:102EB8000969DA6942F40062DA61DA6922F4806247
:102EC800DA61DA6942EA0122ECE70220C9E710B5C3
:102ED8000124036A01F01F018C4023EA0403036202
:102EE800036A8A401A43026210BD000010B5044606
:102EF80029B990F83E30012B1DD0012032E0042979
:102F080007D190F83F30012BF7D1022380F83F30EA
:102F180014E0082907D190F84030012BEDD10223A5
:102F280080F840300AE090F84130012BE5D10223C7
:102F380080F8413002E0022380F83E300122206808
:102F4800FFF7C5FF2368154A93420CD014498B42FA
:102F580009D0B3F1804F10D19A6802F00702062A0F
:102F680016D1002010BD596C934241F400415964B8
:102F7800F2D00B4A9342EFD0EBE70A4A9342EBD0E8
:102F880002F580629342E7D002F580629342E3D073
:102F98001A6842F001021A60E3E700BF002C014002
:102FA8000034014000040040FFF7A0BF90F83C3017
:102FB80030B5012B4FF002032DD0012280F83D30AF
:102FC80003680D685C6880F83C2024F070042C438A
:102FD8009A685C60114CA34212D004F50064A342C5
:102FE8000ED0B3F1804F0BD0A4F59834A34207D08C
:102FF80004F58064A34203D004F58064A34204D19D
:10300800496822F080020A439A60012380F83D3023
:10301800002380F83C30184630BD00BF002C01402A
:1030280090F83C30012B1FD0CB688A6823F440739A
:1030380013434A6823F4806313430A6823F4006344
:1030480013430A6923F4805313434A6923F4005352
:103058001343CA6923F4804313430268536400236B
:1030680080F83C3018467047022070477047704718
:103078000368DA6822F49072DA605A6922F0010271
:103088005A61026B012A02BFDA6822F01002DA6084
:10309800202380F83E3000230363704710B50446B0
:1030A8000368C1681A6922F440520A431A618268A7
:1030B8000069D9680243606921F4B05121F00C011C
:1030C80002430A43DA605A69A16922F440720A434A
:1030D8005A610E4A934215D1FFF77CFC19235843D5
:1030E800636864229B00B0FBF3F0B0FBF2F102FBD3
:1030F80011031B013233B3FBF2F3246803EB011312
:10310800A36010BDFFF756FCE8E700BF0038014098
:1031180010B5044640B390F83D3003F0FF021BB9E8
:1031280080F83C20FEF752FC2423226884F83D30C6
:10313800D368204623F40053D360FFF7AFFF23681A
:1031480000201A6922F490421A615A6922F02A0270
:103158005A61DA6842F40052DA602023206484F865
:103168003D3084F83E3010BD0120FCE770477047C1
:1031780008B50023406AC385C384FFF7F8FF08BD7C
:10318800704790F83E3013B5222B48D18168836A86
:10319800B1F5805F026833D10169002933D15268E3
:1031A800C2F3080223F8022BC48D8362013CA4B247
:1031B800C4851CBB0368DA6822F02002DA60DA688A
:1031C80022F48072DA605A6922F001025A612022E0
:1031D80080F83E20026B012A1ED10463DA6822F0CF
:1031E8001002DA601A68D20605D501941A680192AD
:1031F8005B680193019B818DFFF7C2FF00200FE000
:1032080031B9016921B952681A70836A0133CBE771
:10321800526802F07F02F7E7FDF70EFDEEE70220A5
:1032280002B010BD036837B51A68044612F00F0FD4
:10323800D9685D6908D195065DD58D065BD503B063
:10324800BDE83040FFF79DBF15F0010502D111F42C
:10325800907F50D0D00705D5CB0542BF236C43F0F3
:1032680001032364500704D51DB1236C43F0020306
:103278002364930704D51DB1236C43F0040323642E
:10328800100706D58B0600D41DB1236C43F0080344
:103298002364236C4BB3900604D58A0602D52046D6
:1032A800FFF76FFF236820465D69226C130702D47D
:1032B80015F040051BD0FFF7DBFE23685A69550659
:1032C80010D55A69A06B22F040025A6150B1534B95
:1032D8004363FEF705FD40B1A06B436B03B0BDE847
:1032E800304018472046FFF742FF03B030BDFFF7D4
:1032F8003EFF2564F9E7206B012855D1D00653D548
:10330800CD0651D5002101911A6801925A6801929F
:10331800019A5A6912F040022AD0A06B02685268DA
:1033280092B2002AE1D0A58D9542DED9E285826964
:10333800202A15D0DA6822F48072DA605A6922F0FD
:1033480001025A615A6922F040025A61202284F827
:103358003E202163DA6822F01002DA60FEF79EFC54
:10336800E38DA18DC91A89B22046FFF709FFBCE792
:10337800E18D88B2E18D89B20029B6D0A18D091AF4
:1033880089B20029B1D0D86820F49070D860586903
:1033980020F001005861202084F83E002263DA689A
:1033A80022F01002DA60DFE7100626D50D0624D5D4
:1033B80094F83D20212A98D1A168226AB1F5805F4E
:1033C80016D12169A1B932F8021BC1F3080159606D
:1033D8002262E28C013A92B2E284002A85D1DA684C
:1033E80022F08002DA60DA6842F04002DA607CE7B4
:1033F800511C216212785A60EBE750067FF575AFD1
:103408004A067FF572AFDA68204622F04002DA6099
:10341800202384F83D30FFF7A9FE66E779310008DC
:10342800C28582858162034622220020186483F8BF
:103438003C0083F83E201B68DA6842F48072DA6048
:103448005A6942F001025A61DA6842F02002DA60F1
:10345800704770B490F83E60202E10D161B15AB117
:1034680090F83C40012C0AD0012480F83C4000240C
:10347800046370BCFFF7D4BF012070BC7047022002
:10348800FBE70000014B1868704700BF38000020B8
:1034980070B500250C4E0D4CA41BA410A54209D1F3
:1034A80003F068FD00250A4E0A4CA41BA410A5428F
:1034B80005D170BD56F8253098470135EEE756F826
:1034C800253098470135F2E7307B0008307B00084B
:1034D800307B0008347B000803460244934200D145
:1034E800704703F8011BF9E7002B2DE9F0471E464A
:1034F800BBBF03F100431E4600232D2388B0149F51
:10350800DDE9121A27F02007462F1446109D0B708C
:1035180004D0452F00D10135022300E0032307AA78
:10352800049206AACDE902A2CDE900352246334627
:1035380001F086FD472F804602D1119BDB0726D577
:10354800462F08EB050911D198F80030302B0AD125
:103558000022002320463146FDF78EFA18B9C5F13E
:103568000105CAF80050DAF8003099440022002317
:1035780020463146FDF780FA38B93022079B4B4583
:1035880005D2591C07911A70F8E7CDF81C904046EF
:10359800079B159AA3EB0803136008B0BDE8F087F2
:1035A800F7B50029B4BF2D232B230446B8BF4942E1
:1035B800092904F8022B437021DD0DF107031F468A
:1035C8000A2691FBF6F506FB1511092D01F13001CC
:1035D80003F8011C03F1FF32294609DC3031023BB4
:1035E80002F8011CBB42224604D3101A03B0F0BDF6
:1035F8001346E6E713F8012B04F8012BF2E7302312
:1036080019448370021DC170EFE700002DE9F04FE7
:1036180091B00C461A9F93461E46054602F0F2FDED
:10362800036818460993FCF7FBFD00230E933B68DB
:103638000A90073323F0070303F1080294F818806F
:10364800D4F800A03A60D3E90023C4E91223D4E9EE
:10365800127929F000430B934FF0FF32A64B3846FE
:103668000B99FDF73BFA68BB4FF0FF32A24B384687
:103678000B99FDF715FA28BB002200233846494666
:10368800FDF704FA10B12D2384F843309B4F9C4B6F
:10369800B8F1470F98BF1F4603234FF00009236175
:1036A8002AF00403236000965B460FAA21462846A9
:1036B80000F0E2F9013040F090804FF0FF3011B097
:1036C800BDE8F08F3A464B4638464946FDF706FABC
:1036D80010B18C4F8C4BDBE763684AF48062591C4D
:1036E8000DA80EA940D1062363604FF0000C0DF120
:1036F8003303CDE9012363682260CDE90308009311
:103708003A464B46CDE9051C2846FFF7EDFE08F082
:10371800DF03472B074609D10D9BD81C02DB6268E3
:10372800934247DDA8F102085FFA88F8B8F1650FFF
:103738000D9924D80139424604F150000D91FFF744
:103748002FFF0E9A81461318012A236102DC226892
:10375800D10701D5013323619DF83330002BA2D066
:103768002D2384F843309EE7B8F1670F00F06E818F
:10377800B8F1470FB9D1002BB7D10123B4E7B8F19D
:10378800660F19D1002963680CDD216113B922681D
:10379800D20702D501330B4423610D9B4FF000097A
:1037A800A365D9E713B92268D00701D50233F3E737
:1037B8000123F1E74FF06708DDE90D32934205DB9D
:1037C80022682361D107E8D50133E5E7002BCCBF98
:1037D8000123C3F102031344DEE723685A0507D423
:1037E80023693A4659462846B047013029D164E74B
:1037F800B8F1650F40F2D780D4E912010022002306
:10380800FDF73AF988B30123404A59462846B0479C
:1038180001303FF452AFDDE90D239A4202DB236801
:10382800D8070ED5DDE9092359462846B0470130A7
:103838003FF443AF002704F11A080E9B013BBB423B
:1038480009DC23689F0700F1FD80E0680F9B984220
:10385800B8BF184633E70123424659462846B047C1
:1038680001303FF42AAF0137E7E70D9B002B2BDC33
:103878000123264A59462846B04701303FF41DAF78
:103888000D9B23B90E9B13B92368D907D9D5DDE958
:10389800092359462846B04701303FF40EAF4FF090
:1038A800000804F11A090D9B5B42434501DC0E9B9D
:1038B80097E701234A4659462846B04701303FF466
:1038C800FCAE08F10108EEE70E9AA36D9A42A8BF74
:1038D8001A46002A904607DD134659463A462846B6
:1038E800B04701303FF4E9AE04F11A034FF0000A83
:1038F80028EAE8780B9315E0FFFFEF7F14780008BB
:10390800107800081C78000818780008207800084B
:1039180001230B9A59462846B04701303FF4CDAEF3
:103928000AF1010AD4F85890A9EB08035345EFDCD3
:10393800DDE90D239A424F4414DB2368DA0711D4DA
:103948000E9B0D99A3EB0902A3EB01099145A8BFB2
:103958009146B9F1000F0DDC002729EAE97904F155
:103968001A0818E0DDE9092359462846B04701300E
:10397800E6D1A2E64B463A4659462846B0470130BA
:10398800EAD19AE60123424659462846B047013013
:103998003FF493AE0137DDE90D239B1AA3EB09032E
:1039A800BB42EFDC4DE70E9A012A01DCDB0738D574
:1039B80001233A4659462846B04701303FF47DAEC8
:1039C800DDE9092359462846B047013007F10107C8
:1039D8003FF473AED4E912010E9B002203F1FF38C5
:1039E8000023FDF749F8C0B943463A4659462846E8
:1039F800B04701300DD160E60123424659462846BA
:103A0800B04701303FF459AE01370E9B013BBB4232
:103A1800F2DC4B4604F15002E4E6002704F11A08F0
:103A2800F3E70123E1E70123424659462846B04718
:103A380001303FF442AE0137E3680F9A9B1ABB424C
:103A4800F1DC02E7002704F11908F5E7002B3FF441
:103A580094AE4FF0000CCDE9051C0DF13301226046
:103A6800CDE90308CDE9012100933A464B462846A3
:103A7800FFF73AFD07464FE62DE9F04791461F4606
:103A88008A680B6906469342B8BF1346C9F80030E6
:103A980091F843200C46DDF8208012B10133C9F8B3
:103AA80000302368990642BFD9F800300233C9F8BC
:103AB8000030256815F0060507D104F1190AE368F6
:103AC800D9F800209B1AAB4229DC94F843302268CD
:103AD800003318BF012392062ED404F1430239465D
:103AE8003046C047013021D02368E56803F006035B
:103AF800042B18BF0025D9F800204FF0000908BF93
:103B0800AD1AA368226908BF25EAE5759342C4BFC8
:103B18009B1AED181A344D451AD1002008E00123EC
:103B2800524639463046C047013003D14FF0FF3086
:103B3800BDE8F0870135C2E73020E11881F843007D
:103B48005A1C94F845102244023382F84310C4E703
:103B58000123224639463046C0470130E6D009F1F4
:103B68000109D8E72DE9F04301F1430C0C46097E21
:103B780085B06E291746064698460C9A00F0B38021
:103B880022D8632936D00AD8002900F0B9805829EC
:103B980000F0838004F1420584F8421032E0642981
:103BA80001D06929F6D120681368050603F10401DC
:103BB8002AD51B681160002B03DA2D225B4284F89A
:103BC80043206F480A2239E0732900F09D8008D805
:103BD8006F2920D07029DDD1236843F020032360AA
:103BE80003E0752917D07829D4D17823654884F85B
:103BF800453055E0136804F14205191D1B68116032
:103C080084F8423001238CE01B6810F0400F1160EB
:103C180018BF1BB2CFE713682568181D1060280667
:103C280001D51B6802E06806FBD51B886F2914BF05
:103C38000A2208225248002184F843106568002DA2
:103C4800A560C0F29580216821F004012160002B55
:103C58003DD1002D40F08E806546082A0BD123689F
:103C6800DB0708D5236962689A42DEBF302305F86E
:103C7800013C05F1FF35ACEB05032361CDF800806D
:103C88003B4603AA21463046FFF7F6FE01304DD1E8
:103C98004FF0FF3005B0BDE8F083394884F845108F
:103CA800136821681D1D1B6815600A060BD5CA0715
:103CB80044BF41F0200121601BB9226822F0200294
:103CC80022601022B7E74D0648BF9BB2EFE7654672
:103CD800B3FBF2F102FB1133C35C05F8013D0B465F
:103CE8000029F5D1B9E713682568181D61691060C6
:103CF80028061B6801D5196002E06A06FBD5198001
:103D0800002365462361B9E71368191D11601D6812
:103D180062680021284602F09DFA08B1401B6060E5
:103D280063682361002384F84330A7E723692A46A0
:103D380039463046C0470130AAD023689B0713D4C0
:103D4800E068039B9842B8BF1846A3E701234A4698
:103D580039463046C04701309AD00135E368039AA6
:103D68009B1AAB42F2DCEBE7002504F11909F5E7F1
:103D7800002BACD1037804F1420584F842306CE79B
:103D880022780008337800082DE9F04F9A468B68AE
:103D980016465A1EB2F5AE7F88BF6FF4AE7287B072
:103DA80085BF9B180193002340F25D1388464FF0AE
:103DB800000B8CBF8B6001930B68074643F4F063DC
:103DC80048F81C3B0C4645465A46D946CDE903BB44
:103DD800CDF808B0A16881B133681B78492B71D040
:103DE8004DD8392B40D8312B80F088802D2B00F00E
:103DF800908015D82B2B00F08C80B9F1000F03D0E0
:103E0800236823F480732360013A012A00F2EA80D0
:103E1800454500F2DC800126304607B0BDE8F08F4A
:103E28002E2B00F09F80302BE7D1206810F4807F84
:103E380064D0019B20F08000206009F101091BB1CA
:103E4800013B01310193A160A368013BA360236991
:103E5800013323617368013B002B736040F3AC802E
:103E6800336801333360B5E7452B00F08580462B76
:103E78006AD0412BC1D1012ABFD1022246E0652B6D
:103E88007AD018D8542B66D011D84E2BB5D1002A29
:103E980046D1B9F1000F45D1216801F4E060B0F5D1
:103EA800E06F3FD121F4F061216001222EE0592B0F
:103EB8001ED0612BDEE76E2BE9D015D8662B43D0D8
:103EC800692B9AD1BBF1000F38D1B9F1000F97D106
:103ED800216801F4E060B0F5E06F95D121F4F0615C
:103EE80021604FF0010B11E0742B34D0792B84D171
:103EF800BBF1070F81D14FF0080B07E012EB0B0F56
:103F08007FF47BAF216821F4C07121602B700135EB
:103F18009AE7216808067FF570AF21F08001F4E781
:103F2800022A47D0BBF1010F03D0BBF1040F7FF485
:103F380064AF0BF1010B5FFA8BFBE7E7BBF1030FF3
:103F4800F7D0BBF1050FF2E7BBF1020F7FF455AFD5
:103F58004FF0030BDAE7BBF1060F7FF44EAF4FF0DB
:103F6800070BD3E7216888057FF547AF21F4207157
:103F78002160CDF80890C9E7216801F4A060B0F588
:103F8800806F06D048057FF538AFB9F1000F3FF4D0
:103F98003BAF880558BF029821F4F06158BFA9EBE0
:103FA800000041F4C07158BFCDE9030521604FF00E
:103FB8000009ABE70322A9E7D4F880313146384637
:103FC80005929847059A00283FF404AF15E7D4F8FE
:103FD8007C31324615F8011D384698472369013B64
:103FE800236115E70BF1FF33062B0AD8BBF1020F4B
:103FF80067D9ABF1030B5FFA8BFBA5EB0B0B5D45A8
:104008004AD12368DA051FD55B0567D415F8011C6A
:104018002369652903F1FF3305F1FF3B23610DD0C7
:1040280045290BD0D4F87C31324638469847236965
:1040380015F8021C013BA5F1020B2361D4F87C3171
:104048003246384698475D46266816F0100676D1FF
:104058002E70236803F4C063B3F5806F41D1029BCF
:10406800A9EB03035A42002B48D1414600223846A7
:1040780000F0BAFE2568804615F0020F8946DAF886
:10408800003046D01A1DCAF800201B68C3E9008911
:10409800E3680133E360BFE6D4F87C31324615F8B3
:1040A800011D384698472369013B2361A7E7D4F8E7
:1040B8007C31324615F8011D384698472369013B83
:1040C80023614545F3D8A6E6D4F87C31324615F885
:1040D800011D384698472369013B23614545F3D8BC
:1040E80099E6039B002BC0D004990A23324601317C
:1040F800384600F005FF039B049DC21A04F26F13B3
:104108009D4228BF04F5B7750E49284600F020F8EF
:10411800ABE71F1D15F00405CAF80070B5D11F687C
:1041280002460B46FCF7DAFC20B1284600F00CF8F2
:104138003860ADE740464946FCF72EFDF8E7002613
:104148006AE600BF44780008004870470000C07F56
:104158000EB46FF0004100B59CB01DAB0290069004
:10416800079104910848094953F8042B0591006800
:1041780002A9019302F08EFD0022029B1A701CB066
:104188005DF804EB03B07047380000200802FFFF19
:10419800034611F8012B03F8012B002AF9D17047C7
:1041A8002DE9F0410F46904602F038FB04460D46D3
:1041B800B8F1000F11D0C7F30A53C3F16B03002BFA
:1041C8000BDD00241B0503F17F5505F5401522463C
:1041D8002B46FCF7E9F904460D4620462946BDE87A
:1041E800F0810000000000002DE9F04F1F46002379
:1041F800A1B0834638460E4617921C9301F0FFFF84
:1042080080460068FCF70CF84FF0000904464FF0B0
:10421800000A1B961B9B1A780D2A32D8092A36D217
:10422800002A3ED000230D931B9D2B78302B40F0A5
:10423800AC806B78582B01D0782B67D10D9B0297F7
:1042480001931CAB0093894A1DAB1BA9584601F08A
:10425800FBFC10F00704064605D0062C2BD10023E2
:1042680001351B950D93179B002B40F0A6850D9BE0
:10427800E3B14A460AF100431046194621B0BDE8A9
:10428800F08F2B2A15D02D2A04D0202ACAD1013329
:104298001B93BFE701220D925A1C1B925B78002BDF
:1042A800C2D1179B1B96002B40F085854A46534682
:1042B800E2E70022EFE71C9A3AB135211EA802F086
:1042C800A0FB1C99584602F012F8013C042C06D8B1
:1042D800DFE804F00A0314170A00DDE91E9A310723
:1042E800C1D54AF0004ABEE71D9ADDE91E9302F2E5
:1042F800334223F4801343EA025AF0E7DFF870A14F
:10430800EDE76FF0004A4FF0FF39E8E71B9B5A1CB6
:104318001B925B78302BF9D0002BA4D00123002509
:104328000A2207931B9B0695089304951B98077808
:10433800A7F13003D9B2092929D92246D8F80010A3
:1043480002F0B0FD002831D000203B460246049C14
:104358000590652B01D0452B14D124B910B9079BC2
:10436800002B9ED000241B9E731C1B9373782B2B51
:1043780078D02D2B70D04FF0000CA3F13007092F07
:104388007CD91B964FF0000E9AE00023C7E70499EA
:1043980001300829D7BF069902FB053502FB013316
:1043A8000693049B1B9001330493BFE71B9B1A19C8
:1043B8001B92049A1B5D002A37D00246049CA3F185
:1043C8003001092913D901210591C2E71B9B01304E
:1043D8005A1C1B925B78302BF8D0A3F13102082AC3
:1043E80000F2F0841B9A0892024600200446B3F1BA
:1043F800300E00F1010112D00A440A27214600EBD1
:10440800040C8C4513D12118082904F10104044433
:1044180019DC0A21069B01FB03E3069300211B9B81
:10442800581C1B905B780846C9E70498D3E708290D
:1044380001F1010103DC069B7B430693E1E71029A8
:10444800D8BF7D43DDE7102CDCBF0A2101FB05E561
:10445800E4E70123059381E74FF0010CB31C1B939C
:10446800B3788AE74FF0000CF8E700BF4C780008F3
:104478000000F07F1B9B5F1C1B975B78302BF9D0EB
:10448800A3F13107082F3FF67DAFA3F1300E1B9B38
:1044980009931B9B5F1C1B975B78A3F13008B8F14D
:1044A800090F37D909997F1A082F44F61F6737DC97
:1044B800BE45A8BFBE46BCF1000F01D0CEF1000E2C
:1044C800002C51D100287FF4CEAE079A002A7FF441
:1044D800CAAE059A002A7FF4E4AE4E2B27D021DC21
:1044E800492B7FF4DEAEA4491BA801F0E1FD0028AA
:1044F8003FF4D7AE1B9BA149013B1BA81B9301F0BE
:10450800D7FD10B91B9B01331B93DFF884A24FF032
:104518000009A8E60A2101FB0E3EAEF1300EB8E70D
:10452800BE46C8E7692BDED06E2B7FF4BAAE94493D
:104538001BA801F0BDFD00283FF4B3AE1B9B1B7800
:10454800282B0ED11EAA8F491BA801F0C5FD0528EE
:1045580007D11F9BDDF8789043F0FF4A4AF4E00A40
:1045680081E6DFF834A2D2E7AEEB02030793049B9F
:104578000698002B08BF2346102C0493A046A8BF1A
:104588004FF01008FBF796FF092C81468A4613DC8A
:10459800079B002B3FF467AE079B7EDD162B65DC7F
:1045A800794A02EBC30E4A46DEE900015346FBF79F
:1045B800FBFF81468A4656E6734B03EBC80353E973
:1045C8001223FBF7F1FF064628460F46FBF772FF5A
:1045D80002460B4630463946FBF730FE0F2C814623
:1045E8008A46D5DD079BA4EB08089844B8F1000F6C
:1045F80040F39A8018F00F030AD063494A4601EB4A
:10460800C301D1E900015346FBF7CEFF81468A4634
:1046180038F00F0877D0B8F59A7F4BDD4FF00008D7
:10462800CDF81080CDF82080CDF8188022234FF0E7
:104638000009DFF85CA1CBF80030089B002B3FF4A1
:1046480012AE1C99584601F052FE0699584601F0E0
:104658004EFE0499584601F04AFE0899584601F062
:1046680046FE4146584601F042FEFCE5079AC4F171
:1046780025039342B6DB444DC4F10F0405EBC40196
:104688004A46D1E900015346FBF78EFF079B1C1BE6
:1046980005EBC405D5E9002389E713F1160FA1DB63
:1046A800394A4846A2EBC302D2E900235146FCF737
:1046B800A5F87EE70023484651461D46334E4FEA8B
:1046C8002818B8F1010F21DC0BB181468A462F4B1F
:1046D800AAF1547A03EBC5054A46D5E900015346C9
:1046E800FBF762FF2A4B0A460B402A4981468B4258
:1046F80094D8A1F580118B4286BF4FF0FF39DFF8BF
:104708009CA002F1547A002305937BE018F0010F76
:1047180006D006EBC503D3E90023FBF745FF0123C9
:1047280001354FEA6808CCE7EDD0C8F1000818F069
:104738000F020AD0144B484603EBC2035146D3E993
:104748000023FCF75BF881468A465FEA2818DAD02E
:10475800B8F11F0F24DD4FF00008CDF81080CDF818
:104768002080CDF8188022234FF000094FF0000A6E
:10477800CBF8003061E700BF15780008A37800087F
:104788001D7800086078000848790008207900083A
:104798000000F07F0000A07C0000F8FFFFFFEF7F23
:1047A80018F0100318BF6A234846059351460023A2
:1047B800A14DB8F1000F00F313810BB181468A4671
:1047C800059BBBB1CAF30A53C3F16B03002B5146D7
:1047D80010DD1F2B40F31081342BD8BF4FF0FF3270
:1047E8004FF00009CFBF4FF05C7A203B02FA03F389
:1047F80003EA010A0022002348465146FCF73CF927
:104808000028A8D1069B049A009308992346584685
:1048180001F0BFFD089000283FF400AF079A079BFE
:10482800002AC3F10003A8BF00234FF000080E932D
:1048380022EAE2731693CDF81080089B584659680F
:1048480001F021FD069000283FF4F0AE089B0C30E3
:104858001A6903F10C010232920001F009FD1EAB46
:1048680001931DAB00934A4653465846CDE90A9A30
:1048780002F04AF81C9000283FF4D8AE01215846AF
:1048880001F013FE0490034600283FF4CFAE1D9DAF
:104898001E9A002DABBF0E9B169BEE185C1B059B4A
:1048A800A8BF169CA5EB03051544644B05F1FF351D
:1048B800B8BF0E9E9D42C2F1360280F2AF805B1BEC
:1048C8001F2BA2EB03024FF0010700F39C80002589
:1048D80007FA03F30F93B718059BBE4214441C4410
:1048E8003346A8BF3B46A342A8BF2346002BC2BFFE
:1048F800FF1AE41AF61A0E9BBBB11A4604995846D9
:1049080001F072FE049000283FF490AE01461C9A14
:10491800584601F0D3FD099000283FF487AE1C9952
:10492800584601F0E4FC099B1C93002F7ADC079B96
:10493800002B08DD169A0699584601F055FE069098
:1049480000283FF473AE002C08DD2246069958462D
:1049580001F098FE069000283FF468AE002E08DDAE
:1049680032460499584601F08DFE049000283FF421
:104978005DAE069A1C99584601F0F2FE8046002862
:104988003FF454AE0024C3680499C4600C9301F04A
:10499800CDFEA04254DA0C9BF3B9B9F1000F1BD13C
:1049A800CAF31303C3B92AF000431B0D1B05B3F167
:1049B800D66F11D9D8F814301BB9D8F81030012B9C
:1049C8000ADD41460122584601F05CFE0499804602
:1049D80001F0ACFE002868DC059B002B72D130E6A4
:1049E80018F0010F04D0D5E90023FBF7DDFD012302
:1049F8004FEA68080835DCE64FF0FF3202FA03F3A5
:104A080003EA0909F6E6C5F17F4505F57F0505F5D1
:104A18007B45E23507FA05F50F975CE7012300258A
:104A28000F9358E73A461C99584601F02BFE1C9004
:104A380000287FF47CAFF9E57878000802FCFFFFD6
:104A4800CDF824A040F089800C9ACAF3130342B32E
:104A5800AF4A934256D1059B4846EBB15346AD4AFF
:104A68004FF0FF311A40B2F1D46F18D8120DC2F1CD
:104A78006B0301FA03F3984244D1A74B099A9A426F
:104A880002D101303FF4D2ADA24B099A4FF0000990
:104A98001A4002F5801A9FE74FF0FF33EBE70B4609
:104AA800E9E77BBBB9F1000F2CD105995346994A28
:104AB800F1B102EA0A01B1F1D66F19DCB1F15C7FFC
:104AC8007FF751AE0023954A4846CDE91432514646
:104AD800DDE91423FBF768FD81468A4600297FF447
:104AE800B0AD00287FF4ADAD2223CBF80030A8E5A7
:104AF8001340A3F580136FEA135A4FF0FF396FEA9A
:104B08000A5A69E79DB1099B1D423FF465AF0C9BAA
:104B1800059A4846514673B1FFF742FB02460B46D9
:104B2800DDE90A01FBF78AFB81468A4654E70F9BB9
:104B380013EA090FE9E7FFF733FB02460B46DDE905
:104B48000A01FBF779FB0022002381468A46FBF71E
:104B580093FF00287FF407AE3EE70499404601F032
:104B680022FF00224FF0804306460F46FBF798FFCE
:104B7800002875D00C9B002B47D00026684F684D45
:104B8800099B23F000431B0D1B050F930F9A654BE0
:104B98009A4240F0CF80DDE90A23CDE91423099B2E
:104BA8004846A3F1547A514601F038FE02460B46B6
:104BB80030463946FBF7F8FC4A465346FBF73EFBBE
:104BC8000B465449584A1940914281465ED90B9B7D
:104BD80002F15472934203D10A9B01333FF426AD8C
:104BE8004FF0FF39DFF830A11C99584601F07FFBE0
:104BF8000699584601F07BFB0499584601F077FB6B
:104C08004146584601F073FB17E6B9F1000F19D178
:104C1800099BC3F31303E3B90022414B30463946DD
:104C2800FBF734FFC8B90022404B30463946FBF742
:104C3800BBFC04460D4605F1004318941993DDE9C1
:104C480018679DE7B9F1010F03D1099B002B3FF4C9
:104C58008AAD0026364F002491E70C9C334DEAE7D5
:104C6800324B002230463946FBF79EFC0C9B04462B
:104C78000D4633B901F1004310901193DDE9106737
:104C88007EE702460B46CDE91023F7E703F1547A95
:104C9800059B002BA8D12AF000431B0D0F9A1B057A
:104CA8009A425646A0D129462046FBF72DFFFBF72E
:104CB80011FC0B46024629462046FBF7BDFA0C9B21
:104CC80004460D4633B9B9F1000F03D1CAF31306F0
:104CD800002E6AD00AA3D3E9002320462946FBF711
:104CE800D5FE00287FF4ADAC07A3D3E90023204606
:104CF8002946FBF7E9FE00283FF476AFA1E400BFA0
:104D08009535A094FFFFDF3F35E5AF350000E03F64
:104D1800FFFF0F000000F07FFFFFEF7F000050391A
:104D28000000F03F0000E07FFFFF9F7C0000E03FB5
:104D38000000F0BF059B13B30F9BB3F1D46F1ED8CF
:104D480025A3D3E9002320462946FBF7A9FE90B105
:104D580029462046FBF700FF002808BF0120FBF783
:104D6800A9FB0C9B04460D46D3B901F100431290F0
:104D78001393DDE912670F9A07F1D6639F1ADDE9ED
:104D88000A0101F04BFD02460B4630463946FBF757
:104D98000BFCDDE90A23FBF751FA81468A4677E7DF
:104DA80002460B46CDE91223E3E70DA3D3E900231E
:104DB800FBF76CFE9FE700230D931B9B179A13606C
:104DC800FFF755BA652B4FF000023FF442AB0121C3
:104DD80014460591FFF7BFBA0000C0FFFFFFDF418F
:104DE8009535A094FFFFCF3F054B10B41B68054CC9
:104DF8001B6A002B08BF234610BCFFF7F5B900BF9C
:104E0800380000209C0000202DE9F04780468946A4
:104E180092461E460F463D46089815F8014B01F08C
:104E2800EBF92044437813F0080332D12D2C32D10A
:104E380001227C78BD1C002E5DD0102E09D1302CAB
:104E480007D12B7803F0DF03582B4FD110266C784D
:104E58000235002A14BF4FF000416FF000410027CF
:104E6800B1FBF6FC384606FB1C1EA4F13003092BE7
:104E780017D81C46A64223DD7B1C07D084451CD3CB
:104E880001D1A64519DB012700FB064015F8014BA7
:104E9800EBE72F46BFE72B2C04BFBD1C7C781A46D6
:104EA800C9E7A4F14103192B01D8373CE2E7A4F183
:104EB8006103192B04D8573CDCE74FF0FF37E5E7CF
:104EC8007B1C08D122230846C8F80030BAF1000F2D
:104ED80007D1BDE8F08702B14042BAF1000FF8D01F
:104EE8000FB105F1FF39CAF80090F2E73024002E1F
:104EF800AFD10826ADE7302CA3D00A26A9E70000D9
:104F080037B5064C064D2468246A002C08BF2C4689
:104F18000094FFF779FF03B030BD00BF38000020D0
:104F28009C0000202DE9F74F03690C698046A342D5
:104F3800C0F28480013C01F1140700F1140657F80F
:104F4800245056F824000135B0FBF5F54FEA840CDF
:104F580006EB0C0307EB0C0901939DB34FF0000A15
:104F68003846B646D34650F8042B93B205FB03A344
:104F7800120C4FEA134A05FB02A29BB2ABEB0303E8
:104F8800DEF800B04FEA124A1FFA8BFB5B441FFAA7
:104F980082FBDEF800208145CBEB124202EB234274
:104FA8009BB243EA02434FEA224B4EF8043BDAD263
:104FB80056F80C3033B9019B043B9E421A4631D354
:104FC800C8F81040404601F0B1FB002826DB304607
:104FD8004FF0000C013557F8041BD0F800E08BB2F5
:104FE800ACEB03031FFA8EF213440A0CC2EB1E4209
:104FF80002EB23429BB243EA0243B9454FEA224CF3
:1050080040F8043BE7D256F8242006EB84032AB97B
:10501800043B9E421A460BD3C8F81040284603B0FA
:10502800BDE8F08F1268043B002AC9D1013CC4E7EF
:105038001268043B002AEFD1013CEAE70020EEE7C2
:105048002DE9F04F16461F46456A95B00446DDF82F
:105058008480CDE902673DB9102001F0E1F8606273
:10506800C0E901550560C560636A196851B15A689D
:10507800012393404A608B60204601F038F90022F2
:10508800636A1A603B1EAFBF0023012223F000436E
:105098000393ACBFC8F80030C8F80020AE4BDDF869
:1050A8000C8033EA08031BD142F20F73209A136075
:1050B800029B23B9C8F31300002800F04585229B02
:1050C80053B9A64B21E0A64B06930833229A1360E6
:1050D800069815B0BDE8F08FA04B06930333F5E7AB
:1050E800DDE902670022002330463946FBF7C4FC9D
:1050F800824660B10123209A1360229B002B00F0A6
:105108002085984B229A1360013B0693E0E712AB87
:10511800019313AB009332463B46204601F0F4FB63
:10512800C8F30A558346002D7DD0B046C7F3130354
:1051380043F07F5949F44019A5F2FF35CDF840A056
:105148000022894B40464946FBF776F87CA3D3E911
:105158000023FBF729FA7CA3D3E90023FBF76EF8B9
:10516800064628460F46FBF7B5F979A3D3E900238D
:10517800FBF71AFA02460B4630463946FBF75EF84B
:1051880006460F46FBF7C0FC002282460023304645
:105198003946FBF77BFC48B15046FBF79BF9324692
:1051A8003B46FBF769FC08B90AF1FF3ABAF1160F5A
:1051B8005AD8DDE902236D4901EBCA01D1E90001A2
:1051C800FBF782FC002851D000230AF1FF3A0D9327
:1051D800129B5D1B6B1E079343BF0023C5F101099A
:1051E80007934FF00009BAF1000F41DB079BCDF898
:1051F80030A053440793002308931E9B092B00F209
:105208008F80052BC4BF043B1E931E9BC8BF00257F
:10521800A3F10203D8BF0125032B00F28D80DFE83C
:1052280003F07B7D2F6FDDE912531D4405F23240F8
:10523800202813DDC0F14000029B08FA00F805F2AF
:10524800124023FA00F048EA0000FBF733F9012383
:105258008046A1F1F879013D109371E7029BC0F1F6
:10526800200003FA00F0F0E70123B0E70D90AFE764
:10527800CAF1000308930023A9EB0A090C93BCE7C1
:10528800012309931F9B002B74DD98460493002289
:10529800666A7260042202F11400984271686ED93D
:1052A800204600F0F0FF636A30601B68B8F10E0F0B
:1052B800069300F2ED80002D00F0EA80DDE902237C
:1052C800BAF1000FCDE90E2377DD284A0AF00F0363
:1052D8004FEA2A1602EBC303F006D3E90023CDE90F
:1052E8000A2368D5DDE90E01214B0325D3E90823FC
:1052F800FBF784FACDE9020106F00F061C4F4FE0D8
:10530800012309931F9B534403F101080493434667
:10531800012BB8BF0123BAE70023B2E70023F0E767
:105328000125002309951E934FF0FF3300220493B3
:10533800984612231F92AAE701230993F4E700BFB6
:1053480061436F63A787D23FB3C8608B288AC63F83
:10535800FB799F501344D33F0000F07FA9780008E1
:10536800A0780008217800080000F83F4879000874
:10537800207900080123049398461A46DAE7013198
:105388007160520087E7F10708D5DDE90A01D7E91E
:105398000023FBF709F9CDE90A0101357610083732
:1053A800002EF0D1DDE90A23DDE90201FBF726FA38
:1053B800CDE902011BE00225A0E700F0A480DDE9A9
:1053C8000E01CAF10006A04B06F00F0203EBC20360
:1053D800D3E90023FBF7E8F802250023CDE9020111
:1053E8009A4F3611002E40F08380002BE0D10D9BA0
:1053F800002B00F08A80DDE90223CDE90A23DDE9EC
:105408000A010022924BFBF741FB00287DD0B8F13E
:10541800000F7AD0049B002B36DDDDE90A0100225B
:105428008C4BFBF7C1F8CDE90201049E0AF1FF3766
:1054380001352846FBF74EF8DDE90223FBF7B4F8FF
:105448000022854BFAF7FAFEA1F15075CDE90A0161
:105458000B95002E5CD1DDE9020100227F4BFAF7A3
:10546800EBFE0A9A2B46CDE90201FBF72DFB00283B
:1054780040F08182DDE902010A9A05F10043FBF759
:1054880005FB002840F07582DDE90E23CDE90223F3
:10549800139B002BC0F24B81BAF10E0F00F347812A
:1054A800694B03EBCA03D3E90023CDE904231F9B0F
:1054B800002B80F2D780B8F1000F00F3D38040F0C2
:1054C8005782DDE904010022644BFBF76DF8DDE942
:1054D8000223FBF7EFFA46464746002840F02D82A4
:1054E800069B069A5D1C31230AF1010A137028E213
:1054F800F20705D5D7E90023FBF756F80123013554
:10550800761008376EE7022571E75746464690E75A
:105518004D4B03EBC60353E90201099B002B48D00E
:1055280002460B4600204E49FBF768F9DDE90A23DD
:10553800FAF782FECDE90A01069DDDE90201FBF7D3
:10554800E3FA1190FAF7C6FF02460B46DDE90201BD
:10555800FAF772FE119BCDE90201303305F8013BE1
:10556800DDE90A23FBF792FA002863D1DDE902237B
:1055780000203749FAF760FEDDE90A23FBF786FACF
:10558800002840F0B580069BEB1A9E427FF77CAF5F
:10559800DDE90A0100222F4BFBF706F80022CDE9CE
:1055A8000A01DDE902012B4BFAF7FEFFCDE9020102
:1055B800C3E7DDE90A23FAF7F7FF069BCDE90A01FD
:1055C8009D191E46DDE90201FBF79EFA1190FAF7D4
:1055D80081FF02460B46DDE90201FAF72DFE119B19
:1055E800CDE90201303306F8013BAE424FF000022C
:1055F80024D1DDE90A011A4BFAF720FE02460B46D0
:10560800DDE90201FBF760FA002871D1DDE90A2320
:1056180000201349FAF710FE02460B46DDE90201A5
:10562800FBF734FA00283FF42FAF15F8013C6A1E47
:10563800302B01D0BA464AE01546F6E7054BFAF793
:10564800B3FFCDE90201BDE74879000820790008D9
:105658000000F03F0000244000001C4000001440FF
:105668000000E03F069DDDE90267DDE904233046DE
:105678003946FBF7C3F8FBF747FA8146FAF72AFFE2
:10568800DDE90423FAF790FF02460B463046394617
:10569800FAF7D2FD09F1300605F8016B069E0246BD
:1056A800AE1BB0450B4635D1FAF7C8FDDDE904233A
:1056B80006460F46FBF708FAC8B9DDE90423304669
:1056C8003946FBF7D9F910B119F0010F0FD1594636
:1056D800204600F00CFE0023209A2B700AF10103EB
:1056E8001360229B002B3FF4F3AC1D60F0E4574697
:1056F80015F8012C6B1E392A06D1069A9A4207D151
:1057080030231370134601371A7801321A7091E763
:105718001D46EDE70022994BFAF746FF00220023C9
:1057280006460F46FBF7A8F900289ED0CFE7099A4E
:10573800002A00F088801E9A012A6DDC109A002A3F
:1057480066D003F233434D46089E079A01211A4456
:1057580020469944079200F0A8FE0746002D0BDD6D
:10576800079B002B08DDAB42A8BF2B46079AA9EB85
:105778000309ED1AD31A0793089BEBB1099B002B79
:1057880065D08EB139463246204600F02DFF5A4684
:1057980001460746204600F091FE59460A902046E9
:1057A80000F0A5FD0A9B9B46089B9A1B04D059460E
:1057B800204600F019FF83460121204600F075FEBF
:1057C8000C9B0646002B00F0C6811A46014620466F
:1057D80000F00AFF1E9B0646012B3EDC029B002BB5
:1057E80037D1039BC3F31303002B34D1039B23F05E
:1057F80000431B0D1B052BB1079B09F10109013360
:105808000793012308930C9B002B28D101202EE03D
:10581800129BC3F1360396E7089B08F1FF36B342A3
:10582800B7BF089B9E1BF21A0C9BBFBF08969B181C
:105838000C930026B8F1000FB9BFA9EB08050023A7
:105848004D46434681E7089E4D46099F86E7089ADC
:10585800ADE70023D6E7029BD4E70023089333691A
:1058680006EB8303186900F0D2FDC0F12000079B06
:10587800184410F01F0047D0C0F12003042B3BDD73
:10588800079BC0F11C008144054403440793B9F108
:10589800000F05DD59464A46204600F0F3FE8346D0
:1058A800079B002B05DD31461A46204600F0EAFE2C
:1058B80006460D9B53B33146584600F037FF002883
:1058C80024DA002359460A22204600F027FD099BC6
:1058D8000AF1FF3A8346002B00F044810023394641
:1058E8000A22204600F01AFD049B0746002B4DDCD7
:1058F8001E9B022B4ADD11E0C9D0079A1C331A44BB
:1059080099441D441346C1E70346F6E7B8F1000F72
:1059180036DC1E9B022B33DDCDF81080049B63B967
:1059280031460522204600F0F9FC01460646584655
:1059380000F0FCFE00283FF7D3AD1F9B069D6FEAE1
:10594800030A4FF000093146204600F0D0FC002F32
:105958003FF4BDAEB9F1000F05D0B94503D04946B3
:10596800204600F0C4FC3946204600F0C0FCAEE6F4
:1059780000263746E1E7BA463746B1E5000024403D
:10598800099BCDF81080002B00F0F380002D05DD79
:1059980039462A46204600F075FE0746089B002B2C
:1059A8004CD07968204600F06EFC05463A6907F14C
:1059B8000C01023292000C3000F05AFC01222946F8
:1059C800204600F05FFEB9460746069B0793029BF8
:1059D80003F00103089331465846FFF7A3FA4946F6
:1059E800054600F13008584600F0A0FE3A460290FD
:1059F8003146204600F0B4FEC368024603BB0146A8
:105A08000990584600F092FE0346099A114620462E
:105A1800099300F06CFC099BA3B91E9A92B9089AE5
:105A280082B9B8F1390F29D0029B002B01DD05F1AD
:105A38003108079B5D1C83F8008084E73846C2E77D
:105A48000123E3E7029A002A04DB23D11E9A0ABB4A
:105A5800089AFAB9002BECDD59460122204600F0DD
:105A680011FE3146834600F061FE002803DCE0D1D8
:105A780018F0010FDDD0B8F1390FD8D1079B079A7C
:105A88005D1C3923137015F8013C6A1E392B4DD063
:105A9800013352E0079A002B02F1010506DDB8F147
:105AA800390FEBD008F10108079BC4E7069B049A5D
:105AB800EB1A934205F8018C21D0594600230A229B
:105AC800204600F02BFCB94583464FF000034FF009
