:020000040800F2
:10000000380D0020A94F0008E90A0008EB0A000893
:10001000EF0A0008F30A0008F70A000800000000D1
:10002000000000000000000000000000FB0A0008C3
:10003000FD0A000800000000FF0A0008010B00088C
:10004000C34F0008C34F0008C34F0008C34F000848
:10005000C34F0008C34F0008C34F0008C34F000838
:10006000C34F0008C34F0008C34F0008C34F000828
:10007000C34F0008C34F0008C34F0008C34F000818
:10008000C34F0008C34F0008C34F0008C34F000808
:10009000C34F0008C34F0008C34F0008C34F0008F8
:1000A000C34F0008C34F0008C34F0008C34F0008E8
:1000B000C34F0008C34F000889750008C34F0008EC
:1000C000C34F0008C34F0008C34F0008C34F0008C8
:1000D000C34F0008154F0008C34F0008F54E000835
:1000E000C34F0008C34F0008C34F0008C34F0008A8
:1000F000C34F0008C34F0008C34F0008C34F000898
:10010000C34F0008C34F0008C34F0008C34F000887
:10011000C34F0008C34F0008C34F0008C34F000877
:10012000C34F0008C34F0008C34F0008C34F000867
:10013000C34F0008C34F0008C34F0008C34F000857
:10014000C34F0008C34F0008C34F0008C34F000847
:10015000C34F0008C34F0008C34F0008C34F000837
:10016000C34F0008C34F0008C34F0008C34F000827
:10017000C34F0008C34F0008C34F0008C34F000817
:10018000C34F0008C34F000800F002F800F06DF8FC
:100190000AA090E8000C82448344AAF10107DA45E2
:1001A00001D100F062F8AFF2090EBAE80F0013F0C7
:1001B000010F18BFFB1A43F00103184770C300007A
:1001C00090C300000A444FF0000C10F8013B13F0FC
:1001D000070408BF10F8014B1D1108BF10F8015BA0
:1001E000641E05D010F8016B641E01F8016BF9D193
:1001F00013F0080F1EBF10F8014BAD1C0C1B09D1EA
:100200006D1E58BF01F801CBFAD505E014F8016B5B
:1002100001F8016B6D1EF9D59142D6D370470000ED
:100220000023002400250026103A28BF78C1FBD8FF
:10023000520728BF30C148BF0B607047642907F0E0
:100240009987752907F09687782907F0CF87632962
:1002500008F0D981732908F0DE81002070471FB5AE
:1002600009F06DFD1FBD10B510BD08F059FA11461B
:10027000FFF7F5FF00F0DCF908F077FA03B4FFF7B9
:10028000F2FF03BC04F084FD10B5044600BF40211A
:10029000FE4805F05BFD0028F9D02146FB4805F03B
:1002A000A5FC10BDF0B589B006460F4615461C2DBD
:1002B00001DD09B0F0BD002101AAE81C115488201D
:1002C0008DF804008DF805608DF80650002405E0D7
:1002D000395DE01C01AA1154601CC4B2AC42F7DBCA
:1002E00000240AE001A9E81C085C095D0844C1B2C9
:1002F00001AAE81C1154601CC4B2E81C8442F1DB62
:10030000002405E001A9085DFFF7BEFF601CC4B230
:10031000281D8442F6DB00BFCBE72DE9FE430446EF
:100320000D4617461E46DDE90A89200A8DF80000B1
:10033000E0B28DF80100280A8DF80200E8B28DF8CD
:100340000300380A8DF80400F8B28DF80500300A71
:100350008DF80600F0B28DF807004FEA18208DF8EE
:10036000080008F0FF008DF809004FEA19208DF809
:100370000A0009F0FF008DF80B000C226946A1204D
:10038000FFF790FFBDE8FE832DE9F04F87B00446EC
:100390000D4616461F46DDE911ABDDF840904FF0E3
:1003A000000806E000200DF8080008F1010000F048
:1003B000FF08B8F11C0FF5DB200A8DF80000E0B251
:1003C0008DF80100280A8DF80200E8B28DF80300CC
:1003D000300A8DF80400F0B28DF80500380A8DF867
:1003E0000600F8B28DF807004FEA19208DF80800D2
:1003F00009F0FF008DF809004FEA1A208DF80A0075
:100400000AF0FF008DF80B004FEA1B208DF8120058
:100410000BF0FF008DF813001398000A8DF81400FC
:100420001398C0B28DF815001498000A8DF81600C4
:100430001498C0B28DF817001C226946AF20FFF750
:1004400031FF07B0BDE8F08F40F6C4114FF4FA70E9
:100450008F4A12688A4201DD8D4A11608D4A126806
:100460008A4201DD8B4A11608B4A12688A4201DDA3
:10047000894A1160864A1268824201DA844A106011
:10048000844A1268824201DA824A1060824A126803
:10049000824201DA804A1060704710B52DED0A8B58
:1004A0007E4890ED000A7E48D0ED000A30EE600AEA
:1004B0007C4880ED000A006809F0D0FB41EC1C0B81
:1004C0009FED790B53EC102B09F008F941EC1B0B55
:1004D0009FED770B53EC102B08F0BAFE41EC190B93
:1004E0007548006809F0BAFB41EC1A0B53EC192B64
:1004F00009F0F4F841EC180B09F0AAF86549086016
:100500006E4890ED000A6E48D0ED000A30EE600AA9
:100510006C4880ED000A6A48006809F09FFB41ECD6
:100520001C0B9FED610B53EC102B09F0D7F841EC3D
:10053000190B9FED5F0B53EC102B08F089FE41EC7B
:100540001A0B5D48006809F089FB41EC1B0B53EC6A
:100550001A2B09F0C3F841EC180B09F079F84C4953
:100560000860594890ED000A5848D0ED000A30EE76
:10057000600A574880ED000A5448006809F06EFB95
:1005800041EC1C0B9FED480B53EC102B09F0A6F827
:1005900041EC180B9FED460B53EC102B08F058FE66
:1005A00041EC1B0B4448006809F058FB41EC190B67
:1005B00053EC1B2B09F092F841EC1A0B09F048F8A8
:1005C00035490860FFF740FFBDEC0A8B10BD10B540
:1005D0003B4890ED000ABDEEC00A2D4880ED000AB0
:1005E0002F4890ED000ABDEEC00A2A4880ED000AAF
:1005F000364890ED000ABDEEC00A274880ED000A9B
:1006000034480178344805F0F1FA2148008881B275
:10061000314805F0EBFA1F48008881B22E4805F0FA
:10062000E5FA1D48008881B22B4805F0DFFA10BDBD
:1006300008B5002400BF4FF4A06004F0D5FCA8204A
:1006400004F024FB254804F0B1FB4FF4165004F0ED
:10065000FFFB00F05FFB00F07DFB04F080F900F091
:10066000B2FD04F073FA0AE010231DA218210C2039
:1006700004F01EF903F02FFFC82004F069FB02F01C
:10068000DEFE0028F0D103F065FF31E000100140EC
:10069000380000203C000020400000202C000020FA
:1006A0000400002020000020B81E85EB51382640B1
:1006B0000000000000407F4034000020280000209F
:1006C000000000201C000020300000200800002056
:1006D00024000020460000200048004020A1070020
:1006E0004D505536303530204572726F7200000023
:1006F0000C23D9A20021084604F0DAF80C23DAA270
:100700001946002004F0D4F80C23DBA218210020A5
:1007100004F0CEF80C23DCA22421002004F0C8F859
:100720000C23DDA23021002004F0C2F803F0D3FE38
:1007300090E1042004F077FADB4908700C200423D0
:1007400000900846027800212A2004F052F8D74A87
:10075000D749D84802F0C3FE00287DD100F0AAFD99
:10076000D5490880D54AD649D64800F002FED64A77
:10077000D649D74800F0D5FD00BF4FF41B7004F0F8
:100780009FFAAA21D34805F031FA4FF41B7004F008
:1007900097FAC948B0F9000000280EDA01200C23AE
:1007A0002D2219460090242003F038FFC24800880B
:1007B000404200B2C049088007E001200C232022FB
:1007C00019460090242003F029FFBB48B0F900002F
:1007D000642190FBF1F50C2003232A46014600908A
:1007E0002A2004F006F8B448B0F900000A2190FB72
:1007F000F1F201FB12050C2001232A46014600906C
:10080000422003F0F6FFA8480178B24805F0EEF95F
:100810004FF41B7004F054FAA64890ED000AF2EE73
:10082000040A20EE200ABDEEC00A10EE100A00B243
:10083000A14908800846B0F90000002810DA01201C
:100840000C232D2218210090242003F0E7FE9A4863
:100850000088404200B200E0FAE09749088007E0D3
:1008600001200C23202218210090242003F0D6FE22
:100870009148B0F900000A2190FBF1F50C20032308
:100880002A46182100902A2003F0B3FF8A48B0F9C5
:1008900000000A2190FBF1F201FB12050C2001235C
:1008A0002A4618210090422003F0A3FF814890EDD2
:1008B000000ABDEEC00A884880ED000A008881B2B7
:1008C000844805F093F94FF41B7004F0F9F9784867
:1008D00090ED000AF2EE040A20EE200ABDEEC00AF6
:1008E00010EE100A00B2744908800846B0F9000002
:1008F00000280EDA01200C232D2224210090084626
:1009000003F08CFE6C480088404200B26A490880BF
:1009100007E001200C23202224210090084603F048
:100920007DFE6548B0F900000A2190FBF1F50C202E
:1009300003232A46242100902A2003F05AFF5E4810
:10094000B0F900000A2190FBF1F201FB12050C2026
:1009500001232A4624210090422003F04AFF5448F4
:1009600090ED000ABDEEC00A5C4880ED000A0088E8
:1009700081B2584805F03AF94FF41B7004F0A0F921
:100980004A4890ED000AF2EE040A20EE200ABDEE7D
:10099000C00A10EE100A00B2474908800846B0F9B4
:1009A000000000280EDA01200C232D2230210090B7
:1009B000242003F033FE40480088404200B23E4904
:1009C000088007E001200C23202230210090242001
:1009D00003F024FE3848B0F900000A2190FBF1F53D
:1009E0000C2003232A46302100902A2003F001FF27
:1009F0003148B0F900000A2190FBF1F201FB120529
:100A00000C2001232A4630210090422003F0F1FE01
:100A1000264890ED000ABDEEC00A314880ED000A7C
:100A2000008881B22B4805F0E1F803F054FD002462
:100A30002C48006808B9012000E00020294908601E
:100A40004FF41B7004F03CF9EE21224805F0CEF87B
:100A5000601CC4B26DE6000020414443203A2020CF
:100A600020202020200000002054656D703A2020B6
:100A700020202E204300000050697463683A202033
:100A800020202E204300000020526F6C6C3A202062
:100A900020202E204300000020596177203A20209A
:100AA00020202E20430000004600002008000020E7
:100AB000040000200000002018000020100000208A
:100AC0000E0000200C000020160000201400002062
:100AD0001200002000480040380000203C000020A8
:100AE00040000020A4824242704700BFFEE700BFE2
:100AF000FEE700BFFEE700BFFEE7704770477047A4
:100B0000704700000CB50020019000907648006806
:100B100040F480307449086000BF7348006800F4F6
:100B2000003000900198401C0190009818B901987D
:100B3000B0F5A04FF1D16C48006800F4003010B15E
:100B40000120009001E0002000900098012846D18B
:100B500065484030006840F080506349403108608B
:100B60006248006840F44040604908605E480830D0
:100B700000685D49083108600846006840F400409C
:100B800008600846006840F4A05008605848091FF3
:100B90000860081F006840F08070091F086000BFEF
:100BA0005148006800F000700028F9D040F205704C
:100BB000504908604C480830006820F003004A495A
:100BC000083108600846006840F00200086000BF75
:100BD00045480830006800F00C000828F8D10CBD2A
:100BE00010B54548006840F47000434908603E482D
:100BF000006840F001003C49086000203A49083193
:100C00000860394800683D490840374908603C4859
:100C1000091D0860081F006820F48020091F086073
:100C2000002031490C310860FFF76CFF4FF0006085
:100C300031498039086010BD70B5002000220223C0
:100C400000240221284D08352D6805F00C0020B144
:100C5000042806D0082834D107E02A4D2A4E3560F2
:100C600033E02A4D284E35602FE01F4D2D1D2D6895
:100C7000C5F380541C4D2D1D2D6805F03F0154B166
:100C8000224DB5FBF1F5184E361D3668C6F38816B1
:100C900005FB06F209E01B4DB5FBF1F5124E361DC2
:100CA0003668C6F3881605FB06F20F4D2D1D2D681C
:100CB000C5F301456D1C6B00B2FBF3F5124E3560B8
:100CC00003E0104D104E356000BF00BF064D0835E3
:100CD0002D68C5F303150E4E705D0B4D2D68C54094
:100CE000094E356070BD00000038024000700040C1
:100CF00008544007003C024088ED00E0FFFFF6FE8C
:100D0000103000240024F4004800002000127A0073
:100D10004C0000201CB50121202004F0F9FC4FF408
:100D2000C060009001208DF8040000208DF80600BE
:100D300003208DF8050001208DF80700694604485E
:100D400004F048FA4FF4C061014804F0BFFA1CBD3A
:100D5000001402401CB50121112004F0D9FC1C2014
:100D6000009000208DF8040003208DF8050001207C
:100D70008DF807006946354804F02CFA01200090F0
:100D800002208DF807006946314804F023FA1CBDA3
:100D900010B5044614B101202E4908702D48007882
:100DA000002837D01021294804F076FA78B10821BC
:100DB000264804F071FA50B10421244804F06CFA7A
:100DC00028B10121224804F067FA012822D10A2023
:100DD00003F0BEFF00201F49087010211B4804F0DB
:100DE0005BFA08B9012010BD0821184804F054FA34
:100DF00008B90220F7E70421144804F04DFA08B9B5
:100E00000320F0E70121124804F046FA01281BD123
:100E10000420E8E710210D4804F03EFA012813D120
:100E200008210A4804F038FA01280DD104210748A6
:100E300004F032FA012807D10121054804F02CFA08
:100E400010B90120034908700020CCE700100240CF
:100E5000000002405C0000201CB50121022004F0CB
:100E600057FC4FF44070009001208DF804000020E2
:100E70008DF8060003208DF8050001208DF807008D
:100E80006946894804F0A6F9012088490860884924
:100E9000C1F8A4021CBD10B58348006820F44020AE
:100EA000814908600846006840F4802008600120FD
:100EB0007E49091D08607E49C1F8A002042003F0A4
:100EC000FFFE00207949091D0860042003F0F8FEA8
:100ED00000207749C1F8A00210BD10B57248006823
:100EE00020F44020704908600846006840F48020E3
:100EF000086000206D4908606D49C1F8A402042013
:100F000003F0DEFE0120694908606949C1F8A402C6
:100F1000042003F0D5FE10BD10B50024624800681F
:100F200020F44020604908600846006808600120FD
:100F30005E49091D086003F0C3FE01205C49C1F849
:100F4000A00203F0BDFE07E0601CC4B2FA2C03DD72
:100F5000FFF7C3FF012010BD54487C38006800280B
:100F6000F2D15249086000BFF5E710B500204F49A3
:100F700008604D48006820F440204B49086008464E
:100F8000006840F48020086000204949C1F8A402AC
:100F9000022003F095FE012044490860022003F07E
:100FA0008FFE00204249C1F8A00210BD10B50020FC
:100FB0003E4908603C48006820F440203A490860F7
:100FC0000846006840F48020086001203849C1F8D4
:100FD000A402022003F074FE0120344908600220BC
:100FE00003F06EFE00203249C1F8A00210BD70B5BA
:100FF00004462D48006820F440202B49086008462C
:10100000006840F48020086000202849086000251E
:1010100017E0E0092549091D08606006040E02205A
:1010200003F04EFE01202249C1F8A002022003F085
:1010300047FE00201D490860022003F041FE681CA5
:10104000C5B2082DE5DB70BD70B505460024164815
:10105000006820F4402014490860084600680860D1
:10106000002616E0002011490860022003F028FE47
:1010700001200F49C1F8A0026006040E0B487C381D
:10108000006808B1601CC4B2012003F019FE701C96
:10109000C6B2082EE6DB15B9FFF788FF01E0FFF7BF
:1010A00064FF204670BD000000040240A082404260
:1010B0000080404270B505460C46FFF7ECFED0209C
:1010C000FFF795FFFFF728FF18B1FFF706FF012094
:1010D00070BD2846FFF78BFFFFF71EFF2046FFF786
:1010E00086FFFFF719FF18B1FFF7F7FE0120EFE7C2
:1010F000FFF7F3FE0020EBE770B504460025BC2C9B
:1011000001DB012510E0622C01DB02250CE02A2C1A
:1011100001DB032508E0142C01DB042504E00A2C84
:1011200001DB052500E0062529461A20FFF7C2FF4E
:1011300070BD70B50446B4F57A7F01DD4FF47A7462
:10114000042C00DA04244FF47A7090FBF4F0401E73
:10115000C5B229461920FFF7ADFF0546264604EB28
:10116000D671C1F34F00FFF7C7FF70BD70B50446DD
:10117000FFF791FED020FFF73AFFFFF7CDFE2046A4
:10118000FFF735FFFFF7C8FEFFF785FED120FFF719
:101190002EFFFFF7C1FE0020FFF756FF0546FFF7C1
:1011A0009CFE284670BD10B50446E006010E1C20CA
:1011B000FFF780FF10BD10B50446E006010E1B20AE
:1011C000FFF778FF10BD10B5FFF746FE80216B20BA
:1011D000FFF770FF642003F0BBFD00216B20FFF7D9
:1011E00069FF0320FFF7E7FF0020FFF7DCFF322055
:1011F000FFF79FFF00213820FFF75CFF00216A20E6
:10120000FFF758FF00212320FFF754FF80213720EC
:10121000FFF750FF7520FFF7A9FF0446682C0BD19C
:1012200001216B20FFF746FF00216C20FFF742FFF2
:101230003220FFF77EFF01E0012010BD0020FCE717
:101240002DE9F04106460F4614461D46FFF723FEE2
:10125000002141EA4601C8B2FFF7C9FEFFF75CFE74
:1012600020B1FFF73AFE0120BDE8F0813846FFF7D4
:10127000BEFEFFF751FEFFF70EFE012101EB460116
:10128000C8B2FFF7B4FEFFF747FE0DE0012C04D112
:101290000020FFF7D9FE287003E00120FFF7D4FEFD
:1012A0002870601EC4B26D1C002CEFD1FFF715FE34
:1012B0000020D9E710B52DED088B82B001AB0222DA
:1012C00041216820FFF7BCFF9DF805009DF8041040
:1012D00040EA012004B2204608F0E9F941EC1B0B7A
:1012E0009FED500B53EC102B08F05AF841EC1A0B01
:1012F0009FED4E0B53EC102B07F0AAFF41EC190B9E
:1013000007F074FF08EE100A9FED4A0A28EE000A63
:10131000BDEEC00A10EE100A00B202B0BDEC088BA0
:1013200010BD2DE9FC4104460D4616466B460622CB
:1013300043216820FFF784FF0746BFB99DF80100ED
:101340009DF8001040EA012000B220809DF80300C3
:101350009DF8021040EA012000B228809DF80500A7
:101360009DF8041040EA012000B230803846BDE804
:10137000FC812DE9FC4104460D4616466B460622CB
:101380003B216820FFF75CFF0746BFB99DF80100CD
:101390009DF8001040EA012000B220809DF8030073
:1013A0009DF8021040EA012000B228809DF8050057
:1013B0009DF8041040EA012000B230803846BDE8B4
:1013C000FC812DE9F04105460E4617469846FFF789
:1013D00062FD002141EA4501C8B2FFF708FEFFF7B0
:1013E0009BFD20B1FFF779FD0120BDE8F08130467B
:1013F000FFF7FDFDFFF790FD00240CE018F8040056
:10140000FFF7F5FDFFF788FD18B1FFF766FD012036
:10141000EBE7601CC4B2BC42F0DBFFF75EFD0020CE
:10142000E3E700000000000000407540A4703D0AA2
:10143000D74342400000C84238B50446F74890F808
:101440002400C0B114B10220009001E000200090FF
:10145000F24A1268D17BF14A526810786B46012239
:10146000FFF7AFFF10B14FF0FF3038BD9DF800100F
:10147000EA48417423E0E948807A10B94FF0FF3020
:10148000F3E724B1E548407C08B10020EDE714B152
:101490000120009001E000200090E04A1268D17B1A
:1014A000DE4A526810786B460122FFF78AFF10B1BE
:1014B0004FF0FF30D9E79DF80010D8484174002064
:1014C000D3E738B500241FE0D4480068C07AA042B2
:1014D00004D0D2480068407DA04200D112E0CF493C
:1014E000496808786B4601222146FFF7A9FE10B132
:1014F0004FF0FF3038BD9DF800202146C8A006F00F
:10150000DDFD00BF601CC4B2C44840680079A04241
:10151000DADC0020EEE770B504460D46BF480068EF
:10152000C07AA04204D0BD480068407DA04202D1EC
:101530004FF0FF3070BDB94840680079A04202DC2E
:101540004FF0FF30F6E7B549496808782B4601228D
:101550002146FFF775FEEDE738B50446AF4890F831
:101560002300A04201D1002038BD14B130200090EA
:1015700001E000200090A948807C20B19DF8000087
:1015800040F002000090A54890F8220020B19DF89C
:10159000000040F080000090A04A1268117D9F4A30
:1015A000526810786B460122FFF70BFF10B14FF025
:1015B000FF30D9E7994880F823400020D4E738B5B8
:1015C000044604F0700010B10120009005E014B151
:1015D0000020009001E040200090904A1268917C29
:1015E0008E4A526810786B460122FFF7EAFE20B15E
:1015F00000218A488172481E38BD9DF8000020F005
:101600004001864801730020009004F0400020B99A
:101610009DF8000040F00400009004F0200020B984
:101620009DF8000040F00200009004F0100020B986
:101630009DF8000040F00100009004F0080020B97F
:101640009DF8000040F038000090744A1268D17C88
:10165000724A526810786B460122FFF7B2FE20B141
:1016600000216E488172481EC6E724B1082C02D0C2
:101670000020FFF771FF6948847200210175322054
:1016800003F066FB0020B7E738B504466348807C6A
:10169000A04201D1002038BD002C46D05F4A12681C
:1016A00011795E4A526810786B460122FFF7C8FD37
:1016B00010B14FF0FF30EEE79DF8000020F0200061
:1016C0000090564A12681179544A526810786B4655
:1016D0000122FFF776FE10B14FF0FF30DBE7032069
:1016E00003F036FB022000904C4890F8220020B115
:1016F0009DF8000040F080000090484890F82300DA
:1017000020B19DF8000040F030000090434A12687C
:10171000117D424A526810786B460122FFF751FE54
:10172000002851D04FF0FF30B5E73C4A12681179DC
:101730003A4A526810786B460122FFF781FD10B1DA
:101740004FF0FF30A7E73548807A00F0010028B15C
:101750009DF8000040F02000009004E09DF800009B
:1017600020F0200000902D4A126811792B4A52680F
:1017700010786B460122FFF724FE10B14FF0FF30C6
:1017800089E7032003F0E4FA244890F8220010B11E
:101790008020009001E000200090204890F8230075
:1017A00020B19DF8000040F0300000901B4A126804
:1017B000117D1A4A526810786B460122FFF701FE2C
:1017C00010B14FF0FF3066E714488474002062E7E0
:1017D00008B51248807A10B94FF0FF3008BD0020DC
:1017E00000900E4A1268D17B0C4A526810786B4602
:1017F0000122FFF7E6FD10B14FF0FF30EEE7074A98
:1018000012685179054A526810786B460122FFF739
:10181000D8FD68B14FF0FF30E0E700006000002025
:10182000252335783A20252335780D0A000000005D
:10183000F84A12681179F74A526810786B4601220B
:10184000FFF7BFFD10B14FF0FF30C7E7F14890F848
:101850002400002853D00C200090EE4A1268117921
:10186000EC4A526810786B460122FFF7AAFD10B1CE
:101870004FF0FF30B2E7322003F06AFAC020009048
:10188000E448807A00F0010020B19DF8000040F0AB
:1018900020000090DF4A12681179DE4A5268107801
:1018A0006B460122FFF78DFD10B14FF0FF3095E739
:1018B000D848407C10B10220009001E00020009048
:1018C000D44A1268D17BD34A526810786B46012201
:1018D000FFF777FD10B14FF0FF307FE70020009059
:1018E000CC4A12685179CB4A526810786B46012273
:1018F000FFF767FD002855D04FF0FF306EE704205A
:101900000090C44A12681179C24A526810786B4636
:101910000122FFF756FD10B14FF0FF305EE7BD48E2
:10192000807C20B9BB48807A00F0010010B94020CB
:10193000009001E060200090B64A12681179B54A23
:10194000526810786B460122FFF73BFD10B14FF053
:10195000FF3043E7322003F0FBF9AE48407C10B182
:101960000120009001E000200090AA4A1268D17B7B
:10197000A84A526810786B460122FFF722FD10B189
:101980004FF0FF302AE7A34A12685179A14A526802
:101990001078A04B10330122FFF713FD10B14FF068
:1019A000FF301BE7002019E770B50446002624F03D
:1019B0000104984890F8240008B1002070BD9548B3
:1019C000807A10B94FF0FF30F8E79248057C807AB2
:1019D0002040904908740846007CA04202D04FF095
:1019E000FF3600E0002614B98A48007D18B10120B6
:1019F000FFF722FD02E00020FFF71EFD3CB1FFF7DC
:101A0000E7FE20B1834805744FF0FF30D6E730463B
:101A1000D4E738B504467F48807A10B94FF0FF30DC
:101A200038BDBC2C02DB0120009015E0622C02DBEB
:101A30000220009010E02A2C02DB032000900BE033
:101A4000142C02DB0420009006E00A2C02DB0520A7
:101A5000009001E0062000906E48C07A9DF80010CA
:101A6000884201D10020DBE76A4A12689178694A0E
:101A7000526810786B460122FFF7A3FC10B14FF0BB
:101A8000FF30CDE79DF800106248C1720020C7E723
:101A900038B50446282C02DD4FF0FF3038BDDCB9E4
:101AA0000020FFF759FD00208DF8000007208DF879
:101AB0000100584A1268917C564A526810786B4669
:101AC0000222FFF77EFC10B14FF0FF30E6E7002165
:101AD000504801750020E1E70120FFF73DFD20207F
:101AE0008DF80000012C06D100208DF801000520A2
:101AF000FFF78FFF17E0052C06DC01208DF80100B1
:101B00000520FFF786FF0EE0142C06DC02208DF87E
:101B100001000A20FFF77DFF05E003208DF801009A
:101B20001420FFF776FF9DF80100072101EB8010DC
:101B3000C0B28DF80100374A1268917C354A52686C
:101B400010786B460222FFF73CFC10B14FF0FF30DB
:101B5000A4E708212F48817200210173012101753A
:101B60000020FFF721FF002098E738B504462948F8
:101B7000807A10B94FF0FF3038BD264890F8240025
:101B800010B14FF0FF30F7E72248007D50B134B17B
:101B9000282C04DCE0B2FFF77BFF0020ECE70020FC
:101BA000FFF776FF042C01DA042404E0B4F57A7F11
:101BB00001DD4FF47A744FF47A7090FBF4F0401E1C
:101BC000C0B20090134A12685178124A52681078D5
:101BD0006B460122FFF7F5FB10B14FF0FF30CBE76A
:101BE0009DF80000401C4FF47A7191FBF0F081B237
:101BF0000848C1810146C9894810FFF70AFF002043
:101C0000BAE738B504460348807A28B94FF0FF3068
:101C100038BD000060000020022C06D0042C07D044
:101C2000082C08D0102C0CD108E0002000900BE00C
:101C30000820009008E01020009005E01820009097
:101C400002E04FF0FF30E3E700BFF748407A9DF82D
:101C50000010B0EBE10F01D10020D9E7F24A126881
:101C6000D179F14A526810786B460122FFF7A9FB3F
:101C700010B14FF0FF30CBE79DF80000C110EA48EB
:101C800041720020C4E738B50446E748807A10B9AD
:101C90004FF0FF3038BDFA2C09D0B4F5FA7F09D0E7
:101CA000B4F57A7F09D0B4F5FA6F0CD108E00020C2
:101CB00000900BE00820009008E01020009005E064
:101CC0001820009002E04FF0FF30E3E700BFD64855
:101CD000007A9DF80010B0EBE10F01D10020D9E7A8
:101CE000D14A12689179D04A526810786B46012225
:101CF000FFF767FB10B14FF0FF30CBE79DF8000016
:101D0000C010C94908720020C4E71CB580208DF8B6
:101D10000000C54A1268917CC34A526810786B462D
:101D20000122FFF74EFB10B14FF0FF301CBD6420C5
:101D300003F00EF800208DF80000BB4A1268917C79
:101D4000B94A526810786B460122FFF73AFB10B18E
:101D50004FF0FF30EAE7B44A1268917DB24A526808
:101D600010786B460622FFF76BFA10B14FF0FF3088
:101D7000DCE79DF80500C007400F9DF8031001F057
:101D8000010140EA41009DF8011001F0010140EA23
:101D9000010494B1012C03D10121A348C17431E0A5
:101DA000022C03D10021A048C1742BE021469FA042
:101DB00006F084F94FF0FF30B8E79B4A1268D178FB
:101DC000994A526810786B460122FFF739FA10B130
:101DD0004FF0FF30AAE79DF8000000F00F042CB987
:101DE0009C4806F06BF94FF0FF309FE7042C06D1BA
:101DF00099A006F063F901218B48C17402E000212B
:101E00008948C174FF2188488172FF208649087281
:101E1000FF2185484172C1724FF6FF71C181FF21D8
:101E2000017481740121017380F82210002180F86F
:101E300023104175017516300160416081601638CC
:101E400080F8241080F82510C1844FF4FA60FFF761
:101E50001AFF10B14FF0FF3068E70220FFF7D1FE04
:101E600010B14FF0FF3061E72A20FFF7D2FD10B12B
:101E70004FF0FF305AE73220FFF777FE10B14FF0F6
:101E8000FF3053E70020FFF78FFD10B14FF0FF3018
:101E90004CE70020FFF7F8FB10B14FF0FF3045E7AB
:101EA0000020FFF78CFB002040E770477CB504461C
:101EB0000D465D48807A00F0700010B94FF0FF3099
:101EC0007CBD594A1268117B574A526810786B469C
:101ED0000622FFF7B5F910B14FF0FF30F0E79DF89B
:101EE00001009DF8001040EA012000B220809DF81A
:101EF00003009DF8021040EA012000B260809DF8C6
:101F000005009DF8041040EA012000B2A08015B140
:101F10002846FFF7CAFF0020D2E77CB504460D46ED
:101F20004148807A00F0080010B94FF0FF307CBDC6
:101F30003D4A1268517B3C4A526810786B46062233
:101F4000FFF77EF910B14FF0FF30F0E79DF8010088
:101F50009DF8001040EA012000B220809DF80300A7
:101F60009DF8021040EA012000B260809DF8050053
:101F70009DF8041040EA012000B2A08015B1284667
:101F8000FFF793FF0020D2E7F8B506460C46264837
:101F9000807A10B94FF0FF30F8BD234A1268917B68
:101FA000214A526810786B460222FFF749F910B1B6
:101FB0004FF0FF30F0E79DF801009DF8001040EA77
:101FC000012005B214B12046FFF76FFF16484068A4
:101FD000B0F9080000EE100AF8EEC00A00EE105A40
:101FE000B8EEC00A70EE600A0F484068C08800EE84
:101FF000100AB8EE400A80EE801A9FED1F0A31EEFB
:10200000000ADFED1E0A20EE200ABDEEC00A86EDB2
:10201000000A0020C0E710B588B004461CB94FF094
:10202000FF3008B010BD2BE060000020556E7375C6
:1020300070706F7274656420736F66747761726517
:102040002070726F64756374207265762025642E2B
:102050000A000000E8C3000848616C662073656EE2
:102060007369746976697479207061727420666F1F
:10207000756E642E0A00000000000C4200008047CC
:10208000206830B9606820B9A06810B9002008B095
:1020900010BDF9494968087806AB03221146FFF7DD
:1020A000CFF810B14FF0FF30F1E79DF8180008218C
:1020B00001EB201000F00F00ADF800009DF81900B2
:1020C00001EB201000F00F00ADF802009DF81A009F
:1020D00001EB201000F00F00ADF804002068410073
:1020E000BDF90000403091FBF0F000B2ADF81000F7
:1020F00060684100BDF90200403091FBF0F000B291
:10210000ADF81200A0684100BDF90400403091FB19
:10211000F0F000B2ADF81400D7494968087806AB72
:1021200006221146FFF78CF810B14FF0FF30AEE7F2
:102130009DF819009DF8181040EA012000B2ADF892
:1021400008009DF81B009DF81A1040EA012000B21B
:10215000ADF80A009DF81D009DF81C1040EA012012
:1021600000B2ADF80C00BDF81000BDF8081008442E
:1021700000B2ADF81000BDF81200BDF80A10084416
:1021800000B2ADF81200BDF81400BDF80C10084400
:1021900000B2ADF81400BDF81000000A8DF8180068
:1021A000BDF81000C0B28DF81900BDF81200000A89
:1021B0008DF81A00BDF81200C0B28DF81B00BDF8F2
:1021C0001400000A8DF81C00BDF81400C0B28DF890
:1021D0001D00A9494968087806AB06221146FFF799
:1021E000F0F810B14FF0FF3051E700204FE7014603
:1021F000A148007A30B1012807D0022809D003286D
:102200000FD10AE0FA2008800EE04FF4FA7008803F
:102210000AE04FF47A70088006E04FF4FA60088014
:1022200002E00020088000BF00BF00207047014688
:102230009148407A30B1012807D0022808D00328FD
:102240000CD108E0022008700BE00420087008E0C0
:102250000820087005E01020087002E04FF0FF3001
:10226000704700BF8448C07C18B108784006000E53
:1022700008700020F4E701467F48C07A082817D28A
:10228000DFE800F01704070A0D101318BC200880BF
:1022900013E06220088010E02A2008800DE014205E
:1022A00008800AE00A20088007E00520088004E092
:1022B00000BF00BF0020088000BF00BF00207047A3
:1022C00001466D4890F8240010B14FF0FF30704780
:1022D0006948C08908800020F9E70146002008808D
:1022E000401E704701464FF0FF307047014662487C
:1022F000007A30B1012809D002280CD0032814D16B
:102300000EE09FED5E0A81ED000A11E09FED5C0A90
:1023100081ED000A0CE09FED5B0A81ED000A07E009
:102320009FED590A81ED000A02E04FF0FF3070473F
:1023300000BF0020FBE701464F48407A30B101283A
:1023400008D002280AD0032810D10BE04FF48040B7
:1023500008800EE041F69C7008800AE04FF480503F
:10236000088006E04FF40060088002E04FF0FF3084
:10237000704700BF4048C07C10B1088840100880FA
:102380000020F5E701463C48007C087000207047BB
:1023900001463948807A10B10120087001E0002020
:1023A00008700020704738B504463348807A10B969
:1023B0004FF0FF3038BD304A1268117C2E4A526807
:1023C00010786B460222FEF73BFF10B14FF0FF3052
:1023D000F0E79DF801009DF8001040EA012000B2EE
:1023E00020800020E6E72DE9FE4F0746884692460A
:1023F0001D46DDF830B0002600241F4890F8240068
:1024000010B1601EBDE8FE8F002028701A48807A47
:1024100010B94FF0FF30F5E71748007C10B94FF0C6
:10242000FF30EFE71448007C00F0400008B1B01C1A
:10243000C6B21148007C00F0200008B1B01CC6B242
:102440000D48007C00F0100008B1B01CC6B20A486C
:10245000007C00F0080008B1B01DC6B2064A126840
:10246000917A054A526810786B460222FEF7E8FE20
:1024700060B14FF0FF30C5E760000020000003436B
:102480000000834233330342333383419DF801001C
:102490009DF8001040EA0129B14501DA0020B1E7BA
:1024A000FA4840684088B9EB600F17DDF74A1268B8
:1024B000517CF64A526810786B460122FEF7C0FE46
:1024C00010B14FF0FF309DE79DF8000000F01000C4
:1024D00020B1FFF77DF96FF0010093E75046FFF759
:1024E000E4FCEA4A1268D17AE84A526810786B46EE
:1024F0003246FEF7A5FE10B14FF0FF3082E799FBA0
:10250000F6F0401E8BF8000000202870B4422AD05C
:10251000DE48007C00F0080028B3601C1DF80000B5
:102520001DF8041040EA012000B2A8F80000E01CE9
:102530001DF80010A01C1DF8000041EA002000B2A8
:10254000A8F80200601D1DF80010201D1DF80000F5
:1025500041EA002000B2A8F80400287840F0080002
:102560002870A01D84B2B44213D0C848007C00F08B
:10257000400070B1601C1DF800001DF8041040EA16
:10258000012000B23880287840F040002870A01C5C
:1025900084B2B44213D0BD48007C00F0200070B17A
:1025A000601C1DF800001DF8041040EA012000B274
:1025B0007880287840F020002870A01C84B2B442B3
:1025C00013D0B248007C00F0100070B1601C1DF800
:1025D00000001DF8041040EA012000B2B8802878FD
:1025E00040F010002870A01C84B200200AE7F8B563
:1025F00004460F461646A54890F8240010B94FF03F
:10260000FF30F8BDA148807A10B94FF0FF30F8E7ED
:102610009E4A1268917A9D4A526810786B4602224F
:10262000FEF70EFE10B14FF0FF30EAE79DF8010013
:102630009DF8001040EA0125A54203DA0020307021
:10264000401EDEE7914840684088B5EB600F17DD1B
:102650008E4A1268517C8D4A526810786B4601226E
:10266000FEF7EEFD10B14FF0FF30CAE79DF8000015
:1026700000F0100020B1FFF7ABF86FF00100C0E7E9
:10268000E2B2824B1B68D97A804B5B6818783B4674
:10269000FEF7D6FD10B14FF0FF30B2E795FBF4F036
:1026A000401E30700020ACE70146784880F82210C8
:1026B000002070477CB5054674494968087801AB2D
:1026C00004220D21FEF7BCFD08B107207CBD9DF85A
:1026D0000700C0F301109DF8041001F0E00140EA8A
:1026E000E1008DF800009DF80700C0F381009DF81F
:1026F000051001F0E00140EAE1008DF801009DF8CD
:10270000070000F003009DF8061001F0E00140EA28
:10271000E1008DF80200002427E01DF8040030B924
:102720009FED5B0A05EB840080ED000A1BE09FED46
:10273000590A05EB840080ED000A0BE005EB8400EC
:1027400090ED000ADFED540A20EE200A05EB84002C
:1027500080ED000A1DF80400401EC0B20DF8040010
:102760000028EBD100BF601CC4B2032CD5DB0020D5
:10277000ACE7F0B52DED028B83B006460F46002581
:102780006846FFF797FF002447E056F8241057F8F3
:102790002420881A002801DB014600E0414200EEB7
:1027A000101AB8EEC00ADFED3D0A80EE208A6846B6
:1027B00000EB840090ED000AB5EEC00AF1EE10FACD
:1027C00018D0684600EB8400D0ED000A88EE200A9D
:1027D000F7EE000A70EE608AB0EEE80A3048D0EDFD
:1027E000090AB4EEE00AF1EE10FA15DD0120A0406E
:1027F000054311E02A4890ED070AB4EEC80AF1EE4D
:1028000010FA06DC90ED080AB4EEC80AF1EE10FAF0
:1028100002D20120A0400543641C032CB5DB2846EE
:1028200003B0BDEC028BF0BDF0B52DED048B81B093
:1028300006460F4600251549496808786B4603226D
:102840000D21FEF7FDFC20B1072001B0BDEC048B8B
:10285000F0BD9DF8000000F01F008DF800009DF80D
:10286000010000F01F008DF801009DF8020000F04B
:102870001F008DF80200002461E056F8241057F87C
:102880002420881A00280DDB01460CE0600000209F
:10289000000000007B14AE3E1D5A843F00008047BC
:1028A0007C9D0008414200EE101AB8EEC00A5FEDB0
:1028B000050A80EE208A1DF8040068B3FE4890EDFA
:1028C000000AB8EE400ADFEDFD0A80EE801AF0EE55
:1028D000418A05E09FEDFA0A28EE800AF0EE408A70
:1028E0001DF80400401EC0B20DF804000028F1D10C
:1028F00088EE280AF7EE000A30EE609AB0EEC90AB8
:10290000ED48D0ED060AB4EEE00AF1EE10FA15DD5E
:102910000120A040054311E0E74890ED040AB4EE21
:10292000C80AF1EE10FA06DC90ED050AB4EEC80A0A
:10293000F1EE10FA02D20120A0400543641C032CE2
:102940009BDB284681E72DE9F04F87B005460C4612
:10295000914601208DF8100000208DF81100D94A11
:102960001268917CD74A5268107804AB0222FEF7B5
:1029700028FD20B14FF0FF3007B0BDE8F08FC82030
:1029800002F0E6F900208DF81000CE4A1268D17BE3
:10299000CC4A5268107804AB0122FEF712FD10B148
:1029A0004FF0FF30E8E7C74A12685179C54A5268CC
:1029B000107804AB0122FEF704FD10B14FF0FF3098
:1029C000DAE7C04A1268917CBE4A5268107804ABBC
:1029D0000122FEF7F6FC10B14FF0FF30CCE7B94A08
:1029E0001268D17DB74A5268107804AB0122FEF715
:1029F000E8FC10B14FF0FF30BEE7B24A126811791F
:102A0000B04A5268107804AB0122FEF7DAFC10B12C
:102A10004FF0FF30B0E70C208DF81000A94A126883
:102A20001179A84A5268107804AB0122FEF7C9FC5C
:102A300010B14FF0FF309FE70F2002F089F9A14855
:102A4000806A407A8DF810009E4A126891789D4AFB
:102A50005268107804AB0122FEF7B3FC10B14FF0BE
:102A6000FF3089E79748806A007A8DF81000954A10
:102A700012685178934A5268107804AB0122FEF72D
:102A8000A0FC10B14FF0FF3076E7B9F1000F07D08E
:102A90008C48806A807A40F0E0008DF8100004E0F5
:102AA0008848806A807A8DF81000864A1268917989
:102AB000844A5268107804AB0122FEF782FC10B100
:102AC0004FF0FF3058E7B9F1000F07D07D48806A1A
:102AD000C07A40F0E0008DF8100003E07648C07A3C
:102AE0008DF81000774A1268D179764A52681078CA
:102AF00004AB0122FEF765FC10B14FF0FF303BE75D
:102B0000B9F1000F02D0C82002F022F940208DF860
:102B100010006C4A126811796A4A5268107804AB46
:102B20000122FEF74EFC10B14FF0FF3024E7782071
:102B30008DF81000634A12685179624A5268107821
:102B400004AB0122FEF73DFC10B14FF0FF3013E75C
:102B50005949888902F0FCF800208DF81000594A84
:102B600012685179574A5268107804AB0122FEF777
:102B700028FC10B14FF0FF30FEE6524A1268917AFD
:102B8000504A5268107804AB0222FEF759FB10B18C
:102B90004FF0FF30F0E69DF811009DF8101040EA6C
:102BA000012B0C209BFBF0F0C6B20020A8606860EF
:102BB0002860A06060602060824665E0414A12683B
:102BC000D17A404A5268107804AB0C22FEF738FBE9
:102BD00010B14FF0FF30CFE69DF811009DF81010B6
:102BE00040EA012000B2ADF808009DF813009DF8FE
:102BF000121040EA012000B2ADF80A009DF815005D
:102C00009DF8141040EA012000B2ADF80C00BDF9A7
:102C10000810206808442060BDF90A106068084464
:102C20006060BDF90C10A0680844A0609DF8170012
:102C30009DF8161040EA012000B2ADF800009DF8A2
:102C400019009DF8181040EA012000B2ADF802000A
:102C50009DF81B009DF81A1040EA012000B2ADF863
:102C60000400BDF90010286808442860BDF902106E
:102C7000686808446860BDF90410A8680844A86042
:102C80000AF1010000F0FF0AB24597DB0A48D0F8CC
:102C900000C02868C117090441EA104107046246D0
:102CA0000023384605F0E5F932460023CDE902015C
:102CB00005F0DFF9286007E07C9D000800B04C4576
:102CC00054E3853F60000020F848D0F800C06868F1
:102CD000C117090441EA104107046246002338463F
:102CE00005F0C7F932460023CDE9020105F0C1F92C
:102CF0006860EE48D0F800C0A868C117090441EA2E
:102D00001041070462460023384605F0B2F9324606
:102D10000023CDE9020105F0ACF9A860E348D0F842
:102D200004C02168C817000440EA11480F04624635
:102D300000233846414605F09CF932460023CDE990
:102D4000020105F096F92060D848D0F804C0606808
:102D5000C117090441EA10410704624600233846BE
:102D600005F087F932460023CDE9020105F081F92B
:102D70006060CE48D0F804C0A068C117090441EAD9
:102D80001041070462460023384605F072F93246C6
:102D90000023CDE9020105F06CF9A060A0680028CD
:102DA00004DDA068A0F58030A06003E0A06800F515
:102DB0008030A0600020DFE538B50446BC4890F8BC
:102DC0002400A04201D1002038BD24B3B84890F8B7
:102DD000250010B94FF0FF30F6E70020FEF72CFB7E
:102DE0000020FEF751FCB249C88CFEF7BEFE002061
:102DF0000090AF49496808786B4601222321FEF70D
:102E0000E0FA0121AA4880F824100120FEF714FB03
:102E1000FEF7DEFC13E00020FEF70EFBA448007C6A
:102E20000090A349496808786B4601222321FEF7E8
:102E3000C8FA00219E4880F82410FEF7C9FC002043
:102E4000C2E72DE9F04F8DB083460F4602200C906B
:102E5000974890F8240020B10020FFF7ADFF01262D
:102E600000E0002603A8FFF7C2F905A8FFF7DFF985
:102E700001A8FFF700FA02A8FFF722FA8C4890F8A1
:102E80000AA004A8FFF77EFA002407E000223946D2
:102E90005846FFF758FD00B902E0641C022CF5DB30
:102EA00000BF022C01D1002528E0002407E0012208
:102EB00006A909A8FFF747FD00B902E0641C022C2F
:102EC000F5DB00BF022C01D1002517E006A938462A
:102ED000FFF74FFC00F0FF0809A95846FFF7A4FCD4
:102EE00000F0FF090025B9F1000F01D145F00105FF
:102EF000B8F1000F01D145F0020500BFFF206C4979
:102F00000872FF216A484172C1724FF6FF71C18198
:102F1000FF218172017401210173BDF80C00FEF7DD
:102F2000B2FE9DF81400FEF76CFEBDF80400FEF73B
:102F300070FDBDF80800FEF718FE5046FEF73FFB97
:102F40009DF81000FEF730FD16B10120FFF734FFA9
:102F500028460DB0BDE8F08FF8B504460D4616467C
:102F600016B94FF0FF30F8BD5148807A10B94FF0D4
:102F7000FF30F8E720128DF80000E0B28DF8010074
:102F80009DF8010028444A4949684989884202DD80
:102F90004FF0FF30E7E7464A1268117E444A526814
:102FA00010786B460222FEF70CFA10B14FF0FF309A
:102FB000D9E7EAB23E4B1B68597D3D4B5B681878F8
:102FC0003346FEF7FEF910B14FF0FF30CBE700209B
:102FD000C9E7F8B504460D46164616B94FF0FF305E
:102FE000F8BD3348807A10B94FF0FF30F8E720126F
:102FF0008DF80000E0B28DF801009DF80100284432
:103000002B4949684989884202DD4FF0FF30E7E7E4
:10301000274A1268117E264A526810786B460222AF
:10302000FEF7CFF910B14FF0FF30D9E7EAB2204BED
:103030001B68597D1E4B5B6818783346FEF700F914
:1030400010B14FF0FF30CBE70020C9E72DE9F04386
:1030500085B005460E4690469946154890F82500DD
:1030600020B14FF0FF3005B0BDE8F08316B94FF046
:10307000FF30F8E7002428E0281B102801DD10208D
:1030800000E0281B87B2321939462046FFF764FF5B
:1030900010B14FF0FF30E6E701AA39462046FFF7AE
:1030A00098FF38B14FF0FF30DDE700007C9D00084D
:1030B0006000002030193A4601A905F087F910B1E7
:1030C0006FF00100CFE7E01984B2AC42D4DB4FEAE5
:1030D00028208DF8000008F0FF008DF80100F94A63
:1030E0001268917EF74A526810786B460222FEF70A
:1030F00068F910B14FF0FF30B5E70121F14880F8D1
:103100002510A0F826900020ADE70146ED4890F884
:1031100024000870002070474FF0FF3070470246CF
:103120004FF0FF30704701464FF0FF307047F8B561
:1031300005460F461446002C70D0B5F5FF5F01DD43
:10314000FF2605E0202D01DA012601E0C5F3471630
:1031500007B90127282C02DD4FF0FF30F8BDD94810
:10316000407D28BBD74890F8240038B10020FFF7F5
:1031700023FE0121D34880F8201003E00021D1482C
:1031800080F82010CF481630FFF731F8CD481830BE
:10319000FFF74DF8CB481A30FFF76DF8C9481C30DF
:1031A000FFF78EF8C748817A81771F30FFF7EAF87A
:1031B0000020FEF741F90020FEF76AFC00208DF8A0
:1031C0000000C04A12689178BE4A526810786B4677
:1031D0000122FEF7F6F810B14FF0FF30BEE74020B5
:1031E0008DF80000B74A1268D17BB64A5268107851
:1031F0006B460122FEF7E5F800B165E08DF800604E
:103200008DF80170AF4A1268117AAE4A5268107890
:103210006B460222FEF7D5F808B155E047E00520DD
:1032200001F096FDA748407A072101EBC000C0B22B
:103230008DF80000A34A1268D179A24A526810782A
:103240006B460122FEF7BDF800B13DE020208DF86D
:103250000000012C03D100208DF801000EE0052CA8
:1032600003DC01208DF8010008E0142C03DC0220AF
:103270008DF8010002E003208DF801009DF80100A7
:10328000072101EB8010C0B28DF801008D4A126851
:10329000917C8C4A526810786B460222FEF791F8B6
:1032A00000B111E0012187484175002056E7854AA9
:1032B0001632002103E0505C00B105E0491C0C29E6
:1032C000F9D34FF0FF3049E7FF207E490872FF2114
:1032D0007C484172C1724FF6FF71C181FF2181723A
:1032E0000174012101730146887FFEF768F9754971
:1032F000C88AFEF7C8FC7349087EFEF782FC714954
:10330000488BFEF786FB6F49888BFEF72EFC6D49D4
:10331000C87FFEF749FB6B4890F8200010B10120F0
:10332000FFF74AFD002167484175002016E710B5F8
:1033300088B002A905A8FFF784FD0446032C41D1FB
:1033400001A8FEF7D3FF9DED050AB8EEC00ADDED3A
:10335000010A20EE200ABDEEC00A8DED050A9DEDA2
:10336000060AB8EEC00ADDED010A20EE200ABDEE25
:10337000C00A8DED060A9DED070AB8EEC00ADDED24
:10338000010A20EE200ABDEEC00A8DED070A05A84D
:1033900000F04DFA6846FEF7CEFFBDF80010029827
:1033A00048430290BDF80010039848430390BDF8CD
:1033B000001004984843049002A800F0CBFA0020C3
:1033C00008B010BD0120FBE7014691F90020002A5A
:1033D00001DD00201EE091F90020002A01DA04201E
:1033E00018E091F90120002A01DD012012E091F995
:1033F0000120002A01DA05200CE091F90220002AC0
:1034000001DD022006E091F90220002A01DA0620FF
:1034100000E00720704710B504462046FFF7D4FFB0
:103420000346E01CFFF7D0FF43EAC00083B2A01DB3
:10343000FFF7CAFF43EA801083B2184610BD70B58B
:103440000024FDF709FDFEF760FC002845D1782037
:10345000FEF7B5F8C4B20CB1012070BD7820FEF7BC
:10346000A3FAC4B20CB10220F7E76420FEF77DFB9B
:10347000C4B20CB10320F0E700F03EF9C4B20CB1C5
:103480000420EAE71048FFF7C6FF054600F03EF9C2
:10349000C4B20CB10520E0E740F2731000F087FDE4
:1034A000C4B20CB10620D8E7642000F0E9FAC4B237
:1034B0000CB10720D1E7FFF73AFF044634B10820EA
:1034C000CBE70000600000208C0000200120FFF707
:1034D00073FCC4B20CB10920BFE70020BDE770B592
:1034E0002DED0C8B8EB004460D461646B7EE000A45
:1034F000F0EE409A9FED7C0AB0EE408A9FED7A0A8A
:10350000F0EE408A9FED780AB0EE409A07A808A92D
:103510000DAB03AACDE9001009A90BA800F0A6FE87
:1035200020B101200EB0BDEC0C8B70BDBDF82000A9
:1035300000F4807000287CD09DED030AB8EEC00A2C
:10354000DFED6A0A80EE201AF0EE419A9DED040A42
:10355000B8EEC00ADFED650A80EE201AB0EE418AAF
:103560009DED050AB8EEC00ADFED600A80EE201A74
:10357000F0EE418A9DED060AB8EEC00ADFED5B0A67
:1035800080EE201AB0EE419AB8EE000A28EE000A4A
:1035900020EE090AF0EE000A69EEA00A00EEA80A81
:1035A00010EE101A084606F059FB41EC1C0BB0EE69
:1035B0004C0AF0EE6C0A05F0F7F8B0EE40BAF0EE07
:1035C00060BA9FED4B0B53EC102B51EC1B0B06F02C
:1035D00085F841EC1A0B05F009FE2060B8EE000AF0
:1035E00028EE000A20EE080AF0EE000A68EEA00AB3
:1035F00000EEE80AF7EE000A30EE200A10EE101A8C
:10360000084606F02BFB41EC1C0BB0EE000A28EE3E
:10361000800A20EE090AF0EE000A69EEA00A00EE28
:10362000880A10EE101A084606F018FB41EC1D0B34
:1036300000E054E0B0EE4C1AF0EE6C1AB0EE4D0A19
:10364000F0EE6D0A05F0CCFBB0EE40BAF0EE60BAD9
:103650009FED270B53EC102B51EC1B0B06F03EF8A3
:1036600041EC1A0B05F0C2FD286029EEA90A08EE0C
:10367000080A08EEE80A09EE490A10EE101A084690
:1036800006F0ECFA41EC1C0B28EE280A09EE890A38
:10369000F0EE000A20EE200A10EE101A084606F09E
:1036A000DDFA41EC1D0BB0EE4C1AF0EE6C1AB0EEE8
:1036B0004D0AF0EE6D0A05F093FBB0EE40BAF0EE65
:1036C00060BA9FED0B0B53EC102B51EC1B0B06F06B
:1036D00005F841EC1A0B05F089FD306001E002208D
:1036E00020E700201EE70000000000000000804EE0
:1036F0006666666666A64C4010B5C8234FF48062C5
:10370000F74940F6F630FFF7A1FC10BD10B586B0C2
:103710000446F4A000680390F3A000680290F3A0B0
:1037200000680190F2A00068009004F0030003A973
:10373000085C8DF8140003A8C4F3C101405C8DF847
:10374000150003A8C4F38111405C8DF8160004F045
:10375000030002A9085C8DF8100002A8C4F3C1019F
:10376000405C8DF8110002A8C4F38111405C8DF813
:10377000120005AA032140F22640FFF7EDFB18B125
:103780004FF0FF3006B010BD04AA032140F22A40DA
:10379000FFF7E2FB10B14FF0FF30F3E7019805901F
:1037A0000098049004F0040058B19DF8140040F013
:1037B00001008DF814009DF8100040F001008DF814
:1037C000100004F0200058B19DF8150040F00100F1
:1037D0008DF815009DF8110040F001008DF81100E2
:1037E00004F4807058B19DF8160040F001008DF887
:1037F00016009DF8120040F001008DF8120005AA95
:1038000003214FF48860FFF7A7FB10B14FF0FF30A2
:10381000B8E704AA032140F23140FFF79DFB10B145
:103820004FF0FF30AEE7B34804810020AAE71FB590
:103830000446B048007A00F0030054F820000190DC
:10384000AC48007A00F0040010B1019840420190A9
:10385000A848007AC0F3C10054F820000290A5489F
:10386000007A00F0200010B1029840420290A14876
:10387000007AC0F3811054F8200003909D4800891D
:1038800000F4807010B10398404203909A49019867
:1038900080FB0101800F40EA810001909649029867
:1038A00080FB0110820042EA9170029092490398D5
:1038B00080FB0110820042EA917003900198000E93
:1038C0008DF800000198000C8DF801000198000AA5
:1038D0008DF802000198C0B28DF803006A460421F9
:1038E0004FF47470FFF738FB18B14FF0FF3004B09D
:1038F00010BD0298000E8DF800000298000C8DF8A3
:1039000001000298000A8DF802000298C0B28DF8FA
:1039100003006A4604214FF47570FFF71DFB10B1D8
:103920004FF0FF30E3E70398000E8DF80000039896
:10393000000C8DF801000398000A8DF8020003982E
:10394000C0B28DF803006A4604214FF47670FFF789
:1039500003FBCCE770B588B0064601A8FEF7EBFC88
:10396000BDF804000021C90341EA5045C403614881
:10397000007A00F0030056F8200005905D48007AB8
:1039800000F0040010B10598404205905948007AB3
:10399000C0F3C10056F8200006905648007A00F0A7
:1039A000200010B10698404206905248007AC0F3B9
:1039B000811056F8200007904E48008900F480706E
:1039C00010B10798404207900598C117A0FB042347
:1039D00001FB043100FB0510810041EA9270059063
:1039E0000698C117A0FB042301FB043100FB05105E
:1039F000810041EA927006900798C117A0FB04234A
:103A000001FB043100FB0510810041EA9270079030
:103A10000598000E8DF808000598000C8DF8090037
:103A20000598000A8DF80A000598C0B28DF80B00C1
:103A30000698000E8DF80C000698000C8DF80D000D
:103A40000698000A8DF80E000698C0B28DF80F0097
:103A50000798000E8DF810000798000C8DF81100E3
:103A60000798000A8DF812000798C0B28DF813006D
:103A700002AA0C214FF42570FFF76EFA08B070BD52
:103A800030B585B004461DA207CA02AB07C3C82CD7
:103A900003DD4FF0FF3005B030BDC82090FBF4F0DF
:103AA000401E85B2280A8DF80000E8B28DF80100AA
:103AB0006A46022140F21620FFF74EFA10B14FF08D
:103AC000FF30E8E702AA0C2140F6C120FFF744FAD4
:103AD00010B14FF0FF30DEE7064884810020DAE7BE
:103AE000A49D00084CCD6C000CC92C003656760005
:103AF00026466600FC01002009E3CA02FEF2ABC4C0
:103B0000AAF1DFDFBBAFDFDF0146F948808908801B
:103B100000207047F0B52DED028B83B006460F46AE
:103B200006F0070010B1B7F5C86F05DD4FF0FF30A4
:103B300003B0BDEC028BF0BD00EE107AB8EE400A87
:103B4000DFEDEC0A80EE208A01A8FEF770FB9DF8FD
:103B50000400022806D0042817D0082828D01028EE
:103B60004CD138E09FEDE40A28EE000ABCEEC00A12
:103B700010EE100A84B29FEDE10A28EE000ABCEEB6
:103B8000C00A10EE100A85B23BE09FEDDD0A28EE78
:103B9000000ABCEEC00A10EE100A84B29FEDD90AEA
:103BA00028EE000ABCEEC00A10EE100A85B228E02A
:103BB0009FEDD50A28EE000ABCEEC00A10EE100AEE
:103BC00084B29FEDD20A28EE000ABCEEC00A10EEC5
:103BD000100A85B215E09FEDCE0A28EE000ABCEE71
:103BE000C00A10EE100A84B29FEDCA0A28EE000A3D
:103BF000BCEEC00A10EE100A85B202E04FF0FF30B2
:103C000096E700BF20128DF80800E0B28DF8090099
:103C100028128DF80A00E8B28DF80B0006F00100BA
:103C2000A0B102AA02214FF4EA70FFF795F910B192
:103C30004FF0FF307CE70DF10A0202214FF4927041
:103C4000FFF78AF910B14FF0FF3071E706F002007C
:103C5000A0B102AA02214FF4EC70FFF77DF910B178
:103C60004FF0FF3064E70DF10A0202214FF4947027
:103C7000FFF772F910B14FF0FF3059E706F004007A
:103C8000A0B102AA02214FF4EE70FFF765F910B15E
:103C90004FF0FF304CE70DF10A0202214FF496700D
:103CA000FFF75AF910B14FF0FF3041E700203FE72E
:103CB00038B504460020009004F0010020B19DF8C2
:103CC000000040F03000009004F0020020B19DF8A8
:103CD000000040F00C00009004F0040020B19DF8BA
:103CE000000040F0030000906A4601214FF4A470E8
:103CF000FFF732F938BD38B50446012C01DA01244A
:103D000002E0042C00DD0424601EC0B200906A466C
:103D1000012140F24F10FFF71FF938BD38B50446B6
:103D2000052094FBF0F085B228128DF80000E8B26F
:103D30008DF801006A4602214FF4EF70FFF70CF98D
:103D400038BD38B50446052094FBF0F085B2281242
:103D50008DF80000E8B28DF801006A4602214FF4A8
:103D6000ED70FFF7F9F838BDF8B505460E464FF48B
:103D70007A7095FBF0F000FB06F4200E8DF8000041
:103D8000200C8DF80100200A8DF80200E0B28DF8B9
:103D900003006A4604214FF4AE70FFF7DDF8F8BD6A
:103DA00038B50446052094FBF0F084B220128DF85B
:103DB0000000E0B28DF801006A4602214FF4AD70B8
:103DC000FFF7CAF838BD38B50446052094FBF0F07B
:103DD00084B220128DF80000E0B28DF801006A462E
:103DE00002214FF4AC70FFF7B7F838BD38B5044680
:103DF00014B94FF0FF3038BD6A4604214FF45870B3
:103E0000FFF7E7F810B14FF0FF30F4E79DF800003E
:103E100000069DF8011040EA01409DF8021040EABA
:103E200001209DF80310084320600020E3E738B527
:103E30000446200E8DF80000200C8DF80100200AA9
:103E40008DF80200E0B28DF803006A4604214FF4B9
:103E50005870FFF781F838BD38B5044614B94FF0F3
:103E6000FF3038BD6A4604214FF47170FFF7B1F896
:103E700010B14FF0FF30F4E79DF8000000069DF808
:103E8000011040EA01409DF8021040EA01209DF82F
:103E90000310084300EB8000800020600020E0E772
:103EA00038B504461420B4FBF0F4200E8DF8000061
:103EB000200C8DF80100200A8DF80200E0B28DF888
:103EC00003006A4604214FF47170FFF745F838BDCE
:103ED00038B5044604B320208DF8000028208DF862
:103EE000010030208DF8020038208DF8030018E022
:103EF000FC010020000048430000804600004046CE
:103F0000000000460000C04500008045000040451C
:103F1000000000450000C044A3220421684604F0CC
:103F200081FA6A46042140F69E20FFF715F8FDF756
:103F30004FFC38BD38B5044664B1C0208DF8000090
:103F4000C2208DF80100C4208DF80200C6208DF833
:103F5000030004E08B220421684604F063FA6A46F9
:103F6000042140F69820FEF7F7FFFDF731FC38BD3D
:103F70003EB504466CB1FDA1D1E900208968CDE9C8
:103F8000002002916A4609214FF49760FEF7E4FF92
:103F90003EBDF9A2D2E900109268CDE9010200917C
:103FA0006A4609214FF49760FEF7D6FFF0E73EB569
:103FB000044602208DF80000CA208DF80100E3209D
:103FC0008DF8020009208DF803006A46042168205C
:103FD000FEF7C2FFA3208DF8000004F0400048B1B6
:103FE000C0208DF80100C8208DF80200C2208DF895
:103FF000030006E0A3208DF801008DF802008DF883
:10400000030004F4C07048B1C4208DF80400CC2033
:104010008DF80500C6208DF8060006E0A3208DF877
:1040200004008DF805008DF80600A3208DF8070028
:104030008DF808008DF809006A460A2140F6A7208D
:10404000FEF78AFF04F0030018B120208DF800006D
:1040500002E0D8208DF800006A46012140F6B62023
:10406000FEF77AFF04F0200018B10120FFF780FF6F
:1040700002E00020FFF77CFF04F4C07008B304F4F2
:10408000807060B1B2208DF800008B208DF80100A7
:10409000B6208DF802009B208DF803000BE0B020C5
:1040A0008DF8000080208DF80100B4208DF802000A
:1040B00090208DF803006A46042140F6A220FEF706
:1040C0004BFF04F0010020B3F8208DF800006A4691
:1040D00001214FF40B60FEF73FFFFA210720FFF7A5
:1040E00019FD0720FFF7E4FD0120FFF704FE64201F
:1040F000FFF714FE4FF4FA70FFF723FEC821A14822
:10410000FFF732FE2820FFF74BFE0A20FFF75BFE89
:1041100008E0D8208DF800006A4601214FF40B60BA
:10412000FEF71AFF04F0020018B1D9208DF8000044
:1041300002E0D8208DF800006A46012140F23D706F
:10414000FEF70AFF04F0040018B10120FFF7F2FEA9
:1041500002E00020FFF7EEFE04F0100018B101208D
:10416000FFF7B6FE02E00020FFF7B2FE44F00800C1
:1041700085494881FDF72CFB00208349887304F0B2
:10418000400018B10846807B801D887304F4C0701D
:1041900020B17D48807B801D7B49887304F014002A
:1041A00020B17948807B10307749887304F0030090
:1041B00020B17548807B001D7349887300203EBD87
:1041C0000146714840890880002070472DE9F04180
:1041D0000446E07800F0C006E07800F03F05607823
:1041E00000F0010098B1EF102846E91705EB517176
:1041F000C910A5EBC101491C01F0FF086248006825
:1042000020B16148414602683846904700BF607857
:1042100000F0080030B15C48406818B1B0115A4A4B
:10422000516888470020BDE8F08110B586B004468B
:1042300056A207CA03AB07C357A207CA8DE80700F7
:10424000012C09D0022C0ED103AA0B2140F68220AA
:10425000FEF782FE06B010BD6A460B2140F68220B2
:10426000FEF77AFEF6E74FF0FF30F3E72DE9F04F67
:104270008DB00746884615469946DDE9166B002441
:10428000002030804049887B5A4605A9FEF7AFF9E7
:1042900018B1601E0DB0BDE8F08F3B48807A00F089
:1042A0001400002861D09DF8140000069DF8151038
:1042B00040EA01409DF8161040EA01209DF81710D1
:1042C000084328609DF8180000069DF8191040EA80
:1042D00001409DF81A1040EA01209DF81B10084388
:1042E00068609DF81C0000069DF81D1040EA014022
:1042F0009DF81E1040EA01209DF81F100843A86099
:104300009DF8200000069DF8211040EA01409DF82C
:10431000221040EA01209DF823100843E86004F1D0
:104320001000C4B22868001401906868001402905C
:10433000A86800140390E8680014049001984043B2
:10434000029901FB0100039901FB0100049901FBA3
:10435000010ABAF1706F02DBBAF1885F22DDFDF766
:1043600037FA00203080401E94E721E0B8AAB38DD0
:10437000B4980D355D000000B8AAAAAAB088C3C5DC
:10438000C700000009E3CA02FC010020D8B1B9F35C
:104390008BA391B609B4D900DAB1B9F38BA391B666
:1043A000DAB4DA00B6F9000040F48070308000BF63
:1043B0003448807A00F0400020B305A9601C085CF6
:1043C000095D40EA012000B2A8F8000005A9E01C40
:1043D000095C05AAA01C105C41EA002000B2A8F804
:1043E000020005A9601D095C201D105C41EA002047
:1043F00000B2A8F80400A01DC4B2B6F9000040F055
:10440000080030801F48408900F4C07008B305A937
:10441000601C085C095D40EA012000B2388005A9F3
:10442000E01C095C05AAA01C105C41EA002000B257
:10443000788005A9601D095C201D105C41EA002000
:1044400000B2B880A01DC4B2B6F9000040F0700000
:1044500030800C48807A00F0030018B105A90819D3
:10446000FFF7B4FE4846FDF720FD002012E70146A5
:104470000448016000207047014602484160002066
:1044800070470000FC01002010B5FE4B19600023AE
:10449000FD4CC4F89C32002214E00023FB4C236046
:1044A00000F080031BB10123241D236003E00023DF
:1044B000F64C241D23600123F44C23604306180EA0
:1044C000531CDAB2082AE8DB0123F14C2360F14CDB
:1044D000C4F8983210BD30B500241CE004F1B001DE
:1044E000C8B20021FFF7D0FF00210846FFF7CCFF3C
:1044F00000211020FFF7C8FF002508E0E64901EB86
:10450000C501085D0121FFF7BFFF681CC5B2802D02
:10451000F4DB601CC4B2082CE0DB30BD00B5002128
:104520008D20FFF7B1FF00211420FFF7ADFF002120
:10453000AF20FFF7A9FF00BD00B500218D20FFF7D8
:10454000A3FF00211020FFF79FFF0021AE20FFF7FF
:104550009BFF00BD30B500240CE0002506E00020E4
:10456000CD4901EBC5010855681CC5B2802DF6DBAD
:10457000601CC4B2082CF0DBFFF7ADFF30BDF0B516
:10458000144600267F2801DC3F2900DDF0BD0B46E4
:10459000CF1701EB5777FF10C7F10707FAB2CF1714
:1045A00001EB5777FF10A1EBC707FDB2C5F1070775
:1045B0000123BB40DEB24CB1B74B03EBC0039B5CA5
:1045C0003343B54F07EBC007BB5408E0B24B03EBD6
:1045D000C0039B5CB343B04F07EBC007BB5400BFA5
:1045E000D4E72DE9F04706460F4690469946DDF898
:1045F00020A034460CE03D4606E0524629462046BF
:10460000FFF7BDFF681CC5B24D45F6DD601CC4B2A6
:104610004445F0DDFFF75FFFBDE8F0872DE9F84F77
:1046200080460F4616461C46BA462046E31704EB62
:104630005373DB1021464FEAE47C04EB5C7C4FEAC9
:10464000EC0CA4EBCC0CBCF1000F02D04FF0010C31
:1046500001E04FF0000C6344224604EBD27C4FEAA9
:104660006C0C03FB0CF303F0FF0BA6F12000C6B2A9
:10467000002556E00C2C07D106EB4600874901EBDC
:104680008000405D00901BE0102C05D1844800EBB9
:104690000610405D009013E0102C05D1814800EB1E
:1046A0004610405D00900BE0182C07D106EBC600C9
:1046B0007D4901EB8000405D009001E0BDE8F88F8E
:1046C0004FF0000927E0009800F0800028B139463B
:1046D00040460A9AFFF753FF09E00A9808B90120FB
:1046E00000E00020024639464046FFF748FF0098A8
:1046F0004006000E0090781CC7B2A7EB0A00A0424B
:1047000005D1574608F1010000F0FF0806E009F165
:10471000010000F0FF09B9F1080FD4DB00BF681CED
:10472000C5B25D45A6DB00BFC8E72DE9FF4F0746D0
:104730000D461C46AA462046E21704EB5272D210E0
:104740002146E31704EB5373DB10A4EBC3030BB157
:10475000012300E000231A44624302F0FF0B00260D
:1047600038E0102C06D14F49029801EB401010F8A8
:10477000068001E0BDE8FF8F4FF0000924E008F05B
:10478000800028B1294638460D9AFFF7F8FE09E067
:104790000D9808B9012000E000200246294638465D
:1047A000FFF7EDFE4FEA48604FEA1068681CC5B29B
:1047B000A5EB0A00A04203D15546781CC7B206E01B
:1047C00009F1010000F0FF09B9F1080FD7DB00BFC4
:1047D000701CC6B25E45C4DB00BFCBE710B5024615
:1047E000012000E050430B00A1F10104E1B2F9D136
:1047F00010BD2DE9FF4F81B0074691461E460E9D24
:104800004FF0000A002439E0301B401EC1B20A20DC
:10481000FFF7E4FFB9FBF0F00A21B0FBF1F201FB76
:104820001208BAF1000F16D1701EA04213DDB8F1C4
:10483000000F0ED10120AB4605EBDB71491001FBE7
:1048400004710090C8B22B4620220299FFF7E6FEC1
:1048500012E04FF0010A0120AB4605EBDB71491075
:1048600001FB04710090C8B208F13001CAB22B46B6
:104870000299FFF7D3FE00BF601CC4B2B442C3DB91
:1048800005B013E0988241420080404298024142C4
:104890009C824042008041420C0200209AA90008FC
:1048A0000EAE00085AC10008FEB30008BDE8F08F44
:1048B000F8B506460F4615461C4621E004EBD471B8
:1048C0004910C1F18001B14202DA00263819C7B29D
:1048D000C4F14000B84204DA002006460746FFF75C
:1048E00039FE012000902A78234639463046FFF7EA
:1048F00095FE204604EBD07106EB6101CEB26D1C33
:1049000028787E2802DC28782028D7DAF8BDF8B588
:1049100005460E4617461C461EE004EBD4714910AE
:10492000C1F18001A94202DA00253019C6B2C4F1F2
:104930004000B04204DA002005460646FFF70AFEB2
:10494000012023463A46314600902846FFF7EDFE07
:104950002819C5B2781CC7B20B2FDEDBF8BD1CB519
:1049600001215F2000F0D4FE8020009001208DF80E
:10497000040000208DF8060003208DF805000120BA
:104980008DF807006946484800F024FCC0200090DC
:104990006946464800F01EFC4020009069464448A5
:1049A00000F018FC4FF4004000906946414800F0C8
:1049B00011FC0120404908604049C1F89802404973
:1049C00008604049086000203F490860642000F00A
:1049D000BFF901203D49C1F8BC020021AE20FFF71C
:1049E00053FD0021D520FFF74FFD00215020FFF798
:1049F0004BFD0021A820FFF747FD00213F20FFF7D6
:104A000043FD0021D320FFF73FFD00210846FFF7BB
:104A10003BFD00214020FFF737FD00218D20FFF7EF
:104A200033FD00211420FFF72FFD00212020FFF788
:104A30002BFD00210220FFF727FD0021A120FFF719
:104A400023FD0021C020FFF71FFD0021DA20FFF722
:104A50001BFD00211220FFF717FD00218120FFF729
:104A600013FD0021EF20FFF70FFD0021D920FFF7F4
:104A70000BFD0021F120FFF707FD0021DB20FFF7F0
:104A800003FD00213020FFF7FFFC0021A420FFF7E9
:104A9000FBFC0021A620FFF7F7FC0021AF20FFF769
:104AA000F3FCFFF757FD1CBD000402400008024064
:104AB000000C0240001802409C02414200004142AA
:104AC0009C82404298824142BC02434200004342E1
:104AD00000B58DB00121084600F01AFE0121080240
:104AE00000F070FE20200B9003208DF83000002095
:104AF0008DF833000BA9624800F06CFB012108021D
:104B000000F0B5FE00214FF4807000F0B0FE0020F0
:104B100007900A9009904FF48030089007A802F09F
:104B200001F8002001908DF808008DF8090003902D
:104B3000059001208DF8180001A9524801F0C3FF2B
:104B40000121504802F005F80DB000BD00B58DB050
:104B50000121084600F0DCFD0121080200F032FED0
:104B600010200B9003208DF8300000208DF83300CA
:104B70000BA9434800F02EFB0121080200F077FE4C
:104B800000214FF4807000F072FE002007900A9020
:104B900009904FF48030089007A801F0C3FF4FF050
:104BA0000070019000208DF808008DF80900039036
:104BB000059001208DF8180001A9324801F083FF0B
:104BC0000121304801F0C5FF0DB000BD10B504460D
:104BD0000723012221462C4801F0FBFF2A4802F05E
:104BE00054F800BF0221284802F070F90028F9D0DB
:104BF000254802F086F810BD2DE9F04107460C4625
:104C00000025002608E03846FFF7E0FF05440520B0
:104C100000F09EF8701CC6B2A642F4DBB5FBF4F0BF
:104C200080B2BDE8F08110B5044607230122214679
:104C3000144801F0CEFF134802F027F800BF02210C
:104C4000104802F043F90028F9D00E4802F059F854
:104C500010BD2DE9F04107460C460025002608E06E
:104C60003846FFF7E0FF0544052000F071F8701C9E
:104C7000C6B2A642F4DBB5FBF4F080B2BDE8F08129
:104C800000000240002001400021014010B5044610
:104C90006FF0040000F0FAF9E11704EB5171C1F371
:104CA000C701394A11701046007800EB4001C1EB92
:104CB000C0104FF6FF7101EAC0003449088010BDF2
:104CC0000146314A12784A434FF0E0235A610022EC
:104CD0009A611A46126942F001021A6100BF4FF050
:104CE000E022106900F001021AB100F48032002ABB
:104CF000F5D04FF0E022126922F001024FF0E023DC
:104D00001A6100229A6170470146204A12884A437C
:104D10004FF0E0235A6100229A611A46126942F06C
:104D200001021A6100BF4FF0E022106900F0010299
:104D30001AB100F48032002AF5D04FF0E022126957
:104D400022F001024FF0E0231A6100229A617047BD
:104D500070B504464FF4077094FBF0F0C6B24FF400
:104D6000077094FBF0F100FB114085B205E04FF4B1
:104D70000770FFF7C9FF701EC6B2002EF7D115B13C
:104D80002846FFF7C1FF70BD960000209800002064
:104D9000014600BF704700BF7D4A128802F0400202
:104DA000002AF9D0C2B27A4B9A80704710B588B009
:104DB00004460121084600F0ABFC0121102000F060
:104DC00001FD07220921734800F08FFA07220A210A
:104DD000704800F08AFA4FF4C060069002208DF807
:104DE0001C008DF81D0000208DF81E0001208DF89C
:104DF0001F0006A9674800F0EDF902940020ADF805
:104E00000C00ADF80E00ADF81000ADF814000C2049
:104E1000ADF8120002A95E4800F035FE01215C48A1
:104E200000F0B9FE012240F22551594800F069FF17
:104E300025208DF8040003208DF805008DF806006C
:104E400001208DF8070001A800F0D3F808B010BDCC
:104E500010B588B004460121042000F059FC01215E
:104E6000880400F09EFC07220A214B4800F03DFA1E
:104E700007220B21484800F038FA4FF440600690B2
:104E800002208DF81C008DF81D0000208DF81E00FA
:104E900001208DF81F0006A93F4800F09BF90294FD
:104EA0000020ADF80C00ADF80E00ADF81000ADF824
:104EB00014000C20ADF8120002A9384800F0E3FD00
:104EC0000121364800F067FE012240F225513348A7
:104ED00000F017FF27208DF8040000208DF8050052
:104EE0008DF8060001208DF8070001A800F081F878
:104EF00008B010BD10B540F22551284800F03CFF25
:104F000038B1264800F076FE04462146234800F0DA
:104F10006DFE10BD10B540F225511D4800F02CFF6C
:104F200010B31B4800F066FEC4B21D48008800F4B0
:104F30000040C8B91A48008800F4804060B10A2CCB
:104F400003D000201649088020E01548008840F46E
:104F500000401349088019E00D2C06D11048008844
:104F600040F480400E49088010E00D480088C0F3EE
:104F70000D000C490C540A480088401C0849088060
:104F800008460088C72801DD0020088010BD000009
:104F900000100140000002400008024000480040AC
:104FA000A00000200C06002009488047094800475F
:104FB000FEE7FEE7FEE7FEE7FEE7FEE7FEE7FEE7C9
:104FC000FEE7FEE704480549054A064B7047000026
:104FD000E10B00088901000838070020380D002087
:104FE000380900203809002032490143324A116053
:104FF000704770B5002100230F22C4781CB32E4CDB
:10500000246804F4E064C4F5E064C4F30721C1F14A
:105010000404E3B20A4144789C40E1B2847814402D
:1050200021430C07210E254C05786155047804F0C6
:105030001F050124AC4005786D11AD0005F1E02598
:10504000C5F8004109E0047804F01F050124AC40D4
:105050001B4D0678761145F8264070BD194A0A4066
:105060000243154B1B1F1A60704739B1124A121DBB
:1050700012680243104B1B1D1A6006E00E4A121DF7
:10508000126882430C4B1B1D1A607047042808D11C
:105090004FF0E021096941F004014FF0E022116175
:1050A00007E04FF0E021096921F004014FF0E02210
:1050B000116170470000FA050CED00E000E400E02B
:1050C00080E100E080FFFF1F10B50446984884424D
:1050D00008D10121084600F086FB0021012000F0E4
:1050E00082FB76E09348844208D10121022000F03F
:1050F0007AFB0021022000F076FB6AE08E488442B1
:1051000008D10121042000F06EFB0021042000F0F2
:105110006AFB5EE08948844208D10121082000F042
:1051200062FB0021082000F05EFB52E084488442CC
:1051300008D10121102000F056FB0021102000F0C2
:1051400052FB46E07F48844208D10121202000F034
:105150004AFB0021202000F046FB3AE07A488442D6
:1051600008D10121402000F03EFB0021402000F04A
:105170003AFB2EE07548844208D10121802000F0DE
:1051800032FB0021802000F02EFB22E07048844298
:1051900008D10121801500F026FB0021A01500F0A8
:1051A00022FB16E06B48844208D10121401500F033
:1051B0001AFB0021601500F016FB0AE066488442E5
:1051C00007D10121001500F00EFB0021201500F091
:1051D0000AFB10BDF0B50A4600210023002400BFE1
:1051E0003DE0012505FA01F3156805EA03049C4238
:1051F00034D105684F000326BE40B54305601579DC
:105200004E00B5400668354305601579012D02D082
:105210001579022D16D185684F000326BE40B5438F
:10522000856055794E00B540866835438560456890
:1052300001268E40B5434560456896798E40B6B2EA
:1052400035434560C5684F000326BE40B543C56081
:10525000D5794E00B540C6683543C560491C102954
:10526000BFD3F0BD4FF6FF710160002101714171A4
:105270008171C171704708B54FF480320092009A75
:105280000A430092009AC261C161009AC261C26978
:105290000092C269009208BD0246002013690B40CB
:1052A0000BB1012000E0002070470146086980B280
:1052B00070470246002053690B400BB1012000E00B
:1052C000002070470146486980B2704701837047EB
:1052D000418370470AB1018300E041837047416117
:1052E000704742694A4042617047F0B5002300248C
:1052F0004D07ED0E02FA05F3CE1000F1200555F82A
:1053000026504E07F70E0F26BE40B543CF1000F1D2
:10531000200646F82750CE1000F1200555F82650FB
:1053200045EA0304CE1000F1200545F82640F0BD03
:10533000000002400004024000080240000C02404D
:10534000001002400014024000180240001C0240FD
:10535000002002400024024000280240F948006872
:1053600040F00100F74908600020F6490831086064
:10537000F4480068F4490840F2490860F348091D00
:105380000860F348EF4984310860F0481038091D7F
:105390000860EC48006820F48020EA49086000209A
:1053A000E8490C310860E7498C31086070470021FA
:1053B000E44A921C117011460870704710B50146FE
:1053C0000022002300204A11012A02D1DD4C23686B
:1053D00008E0022A03D1DB4C7034236802E0D94C88
:1053E0007434236801F01F02012494401C400CB166
:1053F000012000E0002010BD38B5002000900024FE
:10540000002500BF3120FFF7D9FF05460098401C5A
:1054100000900098B0F5A04F01D0002DF2D03120BF
:10542000FFF7CCFF08B1012400E00024204638BD7E
:1054300001460020C34A106820F0F80040EAC1008D
:1054400010607047C349086070470021BD4A703240
:1054500011701170012802D004280AD104E0012142
:10546000B84A7032117005E00521B64A70321170E9
:1054700000E000BF00BF7047B7490860704770B5D3
:10548000049C41EA82150126C6EB530645EA06450F
:10549000054345EA0465AB4E361D356070BDAD4928
:1054A00008667047820142EA0172A64B84331A6093
:1054B0007047A8498866704710B5830143EA0163C5
:1054C00043EA02739F4C8834236010BDA1490867EA
:1054D0007047A049C864704702460020994B0833C2
:1054E000186820F0EC6042EA01031843954B08333A
:1054F0001860704702460020924B0833186820F06D
:10550000784042EA010318438E4B08331860704715
:10551000014600208B4A0832106820F0030008433F
:105520001060704787480830006800F00C00704732
:1055300001460020834A0832106820F0F00008433A
:1055400010607047014600207E4A0832106820F43F
:10555000E05008431060704701460020794A083245
:10556000106820F4604040EAC10010607047F0B558
:10557000002100220024022500260223714F083753
:105580003F6807F00C0121B1042905D0082937D163
:1055900005E0724F076036E0714F076033E0694FF6
:1055A0003F1D3F68C7F38056664F3F1D3F6807F0B9
:1055B0003F036EB16A4FB7FBF3F7DFF888C10CF118
:1055C000040CDCF800C0CCF3881C07FB0CF40CE0E6
:1055D000624FB7FBF3F7DFF86CC10CF1040CDCF899
:1055E00000C0CCF3881C07FB0CF4564F3F1D3F68EE
:1055F000C7F301477F1C7D00B4FBF5F7076002E0AD
:10560000564F076000BF00BF4E4F08373F6807F096
:10561000F0010909534F7A5C0768D7404760494F4A
:1056200008373F6807F4E051890A4E4F7A5C4768B3
:10563000D7408760434F08373F6807F46041490B04
:10564000484F7A5C4768D740C760F0BD002100F43E
:105650004072B2F5407F0AD13A4A0832116821F40B
:10566000F811414A02401143364A08321160354A66
:1056700070321268C0F30B031A43324B70331A6056
:1056800070473549443908607047334940390860EC
:10569000704736490860704701460020294A8C321D
:1056A000106820F01F004A1E1043264A8C321060FA
:1056B000704701460020234A8C32106820F4F850CD
:1056C0004A1E40EA02201F4A8C3210607047014691
:1056D00000201C4A8C32106820F4401008431060EF
:1056E000704701460020174A8C32106820F44000B1
:1056F00008431060704701460020124A8C3210683F
:1057000020F4403008431060704719490860704722
:1057100039B10C4A3032126802430A4B30331A60F6
:1057200006E0084A303212688243064B30331A6072
:105730007047F9B1034A343212680243014B3433E3
:105740001A601CE000380240FFFFF6EA1030002427
:105750000030002000004742800E47420024F40041
:1057600000127A00A2000020FFFCFF0F5C014742FC
:10577000E01147428F4A126882438E4B1A6070478D
:1057800039B18C4A121D126802438A4B1B1D1A60E4
:1057900006E0884A121D12688243864B1B1D1A6060
:1057A000704739B1834A0C3212680243814B0C3383
:1057B0001A6006E07F4A0C32126882437D4B0C333C
:1057C0001A60704739B17B4A103212680243794B34
:1057D00010331A6006E0774A103212688243754B24
:1057E00010331A60704739B1724A243A1268024382
:1057F000704B243B1A6006E06E4A243A12688243DA
:105800006C4B243B1A60704739B16A4A203A1268DF
:105810000243684B203B1A6006E0664A203A126851
:105820008243644B203B1A60704739B1614A1C3A8D
:10583000126802435F4B1C3B1A6006E05D4A1C3A4B
:10584000126882435B4B1C3B1A60704739B1594A5E
:10585000143A12680243574B143B1A6006E0554A4B
:10586000143A12688243534B143B1A60704739B1A3
:10587000504A103A126802434E4B103B1A6006E041
:105880004C4A103A126882434A4B103B1A607047E8
:1058900039B1484A1C3212680243464B1C331A6025
:1058A00006E0444A1C3212688243424B1C331A60A1
:1058B000704739B13F4A2032126802433D4B2033D2
:1058C0001A6006E03B4A203212688243394B20338B
:1058D0001A60704739B1374A243212680243354B97
:1058E00024331A6006E0334A243212688243314B73
:1058F00024331A60704739B12E4A2C3212680243A1
:105900002C4B2C331A6006E02A4A2C321268824350
:10591000284B2C331A60704739B1264A303212684E
:105920000243244B30331A6006E0224A30321268B8
:105930008243204B30331A607047012808D11D493B
:105940003C31096841F008011A4A3C32116007E015
:1059500018493C31096821F00801164A3C321160AF
:10596000704739B1134A273A12780243114B273B4B
:105970001A7006E00F4A273A127882430D4B273BF4
:105980001A7070470B484030006840F08070094939
:1059900040310860704701460020064A283A1268E4
:1059A0000A400AB1012000E0002070470149263971
:1059B000087070473438024010B50446FA488442F3
:1059C00008D101211020FFF752FF00211020FFF71E
:1059D0004EFF57E0F548844209D101214804FFF702
:1059E00035FF00214FF40030FFF730FF4AE0F04868
:1059F000844209D101218804FFF728FF00214FF4D8
:105A00008020FFF723FF3DE0EA48844209D10121CD
:105A1000C804FFF71BFF00214FF40020FFF716FF1B
:105A200030E0E548844209D101210805FFF70EFF67
:105A300000214FF48010FFF709FF23E0DF48844284
:105A400008D101212020FFF712FF00212020FFF7BD
:105A50000EFF17E0DA48844209D101218807FFF7D9
:105A6000F5FE00214FF08040FFF7F0FE0AE0D54838
:105A7000844207D101214005FFF7E8FE00216005BF
:105A8000FFF7E4FE10BD2DE9FF4705460E46002452
:105A9000A14600BFA046B08900B100BF2C8A24F403
:105AA0004054F08804432C82AC8941F20C6084435A
:105AB000B08831890843718908430443AC81AC8ABA
:105AC00024F44074B0890443AC826846FFF74FFD6C
:105AD000B548854202D0B948854202D1DDF80C9024
