:020000040800F2
:10000000880F002031020008933F000841370008A4
:100010004D3F0008CD1500082151000800000000E8
:10002000000000000000000000000000CF4A0008AF
:10003000BD16000800000000CD4A0008814B0008F2
:100040004B0200084B0200084B0200084B0200085C
:100050004B0200084B0200084B0200084B0200084C
:100060004B0200084B020008BF1600084B020008B4
:100070004B0200084B0200084B0200084B0200082C
:100080004B0200084B0200084B0200084B0200081C
:100090004B0200084B0200084B0200084B0200080C
:1000A0004B0200084B0200084B0200084B020008FC
:1000B0004B0200084B0200084B0200084B020008EC
:1000C0004B0200084B0200084B0200084B020008DC
:1000D0004B020008095100084B02000815510008A6
:1000E0004B0200084B0200084B0200084B020008BC
:1000F0004B0200084B0200084B0200084B020008AC
:100100004B0200084B0200084B0200084B0200089B
:100110004B0200084B020008794C0008854C00088F
:100120004B0200084B0200084B0200084B0200087B
:1001300000F002F800F06DF80AA090E8000C82448C
:100140008344AAF10107DA4501D100F062F8AFF269
:10015000090EBAE80F0013F0010F18BFFB1A43F0A5
:1001600001031847386F0000586F00000A444FF031
:10017000000C10F8013B13F0070408BF10F8014B06
:100180001D1108BF10F8015B641E05D010F8016B4B
:10019000641E01F8016BF9D113F0080F1EBF10F8AF
:1001A000014BAD1C0C1B09D16D1E58BF01F801CBD2
:1001B000FAD505E014F8016B01F8016B6D1EF9D555
:1001C0009142D6D37047000000230024002500266A
:1001D000103A28BF78C1FBD8520728BF30C148BFAA
:1001E0000B607047662906F05682642900F0A480EF
:1001F000632900F01E84002070471FB500F026FC24
:1002000004000020002105F0CBFCE0601FBD10B50C
:1002100010BD00F01BFD1146FFF7EFFF05F0A8F839
:1002200000F039FD03B4FFF7F2FF03BC00F07CFDE2
:100230000948804709480047FEE7FEE7FEE7FEE77A
:10024000FEE7FEE7FEE7FEE7FEE7FEE704480549B6
:10025000054A064B70470000774C00083101000842
:1002600088090020880F0020880B0020880B0020C0
:100270000FB41CB5074B06AA7B446946009005984D
:1002800000F0B5FB0020694600F0C4FB1CBC5DF823
:1002900014FB00009907000070B5044685690068EA
:1002A000C10601D5302600E02026C00707D070BD6A
:1002B000D4E9012130469047206A401C20626D1E1F
:1002C000F6D570BD70B5044685690078C00707D1C2
:1002D00070BDD4E9012120209047206A401C206293
:1002E0006D1EF6D570BD70B50C460546012A05D0C9
:1002F0002878800600D5EA69002302E0012305E0A2
:100300005B1C934202D2E05C0028F9D1A869E61890
:10031000C01AA861286A184428622846FFF7BCFF63
:1003200004E0D5E9012114F8010B9047B442F8D359
:100330002846FFF7C7FF70BD2DE9F04106460024AF
:1003400010687529314616A510D0AFF3008000283B
:1003500002DA404213A507E031688A0701D512A5E9
:1003600002E0490704D511A5012401E0AFF30080A4
:1003700000210A2206F1240709E0B0FBF2FCB0FBE1
:10038000F2F302FB1C00303078541846491C002858
:10039000F3D123462A463046BDE8F04100F0B9B813
:1003A000000000002D0000002B00000020000000D5
:1003B0002DE9F0474FF0000A89460446C0F820A016
:1003C0002046E1688847002876D0252806D0D4E961
:1003D00001219047206A401C2062F1E7E168204635
:1003E00000258847C4F81CA006460027C4F818A0BA
:1003F0002A2E09D0304604F023FF38B304EB8708D7
:10040000303EC8F8186019E059F8041B204604EB88
:1004100087029161E1688847012F064618D1E0699B
:10042000002820DA25F020051DE0D8F8180000EBA0
:10043000800006EB40003038C8F818002046E1681C
:100440008847064604F0FCFE0028EED1012F0AD0B2
:100450002E2E08D12046E16888477F1C0646022FD1
:1004600045F02005C4DBA069002803DA404245F0CE
:100470000105A061E80701D025F01005B6B1A6F18D
:100480004100192802D8203645F400654A46314615
:10049000204625604D46FFF7A5FE58B1012806D03D
:1004A000ED1D25F0070000F1080989E704E005F1DA
:1004B000040985E730468AE7206ABDE8F0874FF0F7
:1004C000000200B5134694469646203922BFA0E8A4
:1004D0000C50A0E80C50B1F12001BFF4F7AF0907B0
:1004E00028BFA0E80C5048BF0CC05DF804EB8900A1
:1004F00028BF40F8042B08BF704748BF20F8022BE4
:1005000011F0804F18BF00F8012B704770477047FB
:1005100070472DE9F0470D4699469246044600F192
:1005200024080168880604D5E06921F010012160E3
:1005300000E00120A84201DD471B00E00027A1697F
:100540007A1902EB0900081AA0612078C00602D4CB
:100550002046FFF7A1FE002608E0D4E901211AF8A1
:1005600006009047206A401C761C20624E45F4DB52
:100570002078C0060AD52046FFF78EFE06E0D4E9B3
:10058000012130209047206A401C2062381EA7F1CC
:100590000107F4DC07E0D4E9012118F805009047D1
:1005A000206A401C2062281EA5F10105F3DC2046CC
:1005B000FFF788FE2078000602D50220BDE8F0870C
:1005C0000120FBE770472DE9FF4F0C461E464FF018
:1005D000FF378BB0D2E90001DDF860800A908A46CF
:1005E000C1F30A5505B93D46002108464FF0000009
:1005F000BAF1000F00F4400005DA00EB80004FF480
:10060000400101EA50004FEA9059B9F1010F00DDB5
:10061000B9460A9850EA4A000ED044F61050A5F2A6
:10062000FF3545432F14B8F1000F1ED07542291E27
:100630001EDDC9F100021CE0B8F1010F4FF000000F
:1006400001D0302103E0F24305E02154401CB042C8
:10065000FBDB30460022002121540B99C1F80880B1
:10066000C1E900200FB0BDE8F08FBD1B6D1CDEE7B7
:100670004A4600DA694206A800F072FA06AB93E82F
:10068000070003AB83E8070050460A9900F053FBCC
:100690008DE80700A0F500501F3800900398002D4A
:1006A0000ADD42F21F014A460844002303A90390D1
:1006B000684600F0BCFD09E0A0F500504A461F382E
:1006C000002303A90390684600F0C6FD8DE80700EB
:1006D0000004000C03D04FF0FF30410800E010464A
:1006E000B8F1000F03D00022009215461EE0751EDF
:1006F00005D400F0AFF9303262556D1EF9D5B3461E
:100700000122084302D000227F1C04E02078302818
:1007100001D100227F1E002A099784D01DE0112DEF
:1007200007DA00F097F9303262556D1C50EA010289
:10073000F5D1084302D00098C8B10EE00021681E30
:1007400005E0235C625C63542254401E491C8142D4
:10075000F7DBAB46A81B401E0990002004F80B00F5
:100760000B98099AC0F80880C0E9002B7AE7112697
:100770004FF0000857E72DE9F04F88460446D21D98
:1007800022F0070191B0D1E90001CDE90A0104F09E
:1007900033FD02460B98C00F01D02D2007E02068E2
:1007A000810701D52B2002E0202101EAC000032AA5
:1007B000099001D0072A05DB03464146204600F098
:1007C0008FF90BE12078800601D5E06900E0062072
:1007D000B8F1650F814606D0B8F1660F18D0B8F1B0
:1007E000670F70D131E00020B9F1110F009001DBEB
:1007F000112301E009F101030AAA01A90CA8FFF7DE
:10080000E2FEDDE90C70002609F10105834647E0B0
:1008100001204B4600904FF000470AAA01A90CA8FE
:10082000FFF7D1FEDDE90DB00C995D46002610B949
:1008300009F101000D18B9EB050003D4C0F1FF3632
:1008400009F10105A5EB09002BE0B9F1010F01DA6F
:100850004FF001090020B9F1110F0090484601DD69
:10086000112300E003460AAA01A90CA8FFF7ABFE7A
:10087000DDE90C704D4600268346207800070AD437
:10088000AB4500DA5D4601A8012D04DD411911F8E0
:10089000011C302907D04F4502DA17F1040F04DAA2
:1008A000012082460FE06D1EEEE7002F02DCED1BFB
:1008B0003E4403E0781CA84200DD7D1CB81B00F11B
:1008C000010A4FF000472078000703D4AA4501DB56
:1008D0004FF0FF3A0021B7F1004F0DF143088DF8BA
:1008E000431024D002202B23002F01DA7F422D2336
:1008F0000A21021EA0F1010000DC5FB197FBF1FCB0
:1009000097FBF1F201FB1C7C17460CF1300C08F848
:1009100001CDEEE7A8F1010003702188090501D59A
:10092000452100E06521A0F1010800F8011C0998AB
:100930000FA9A1EB0807FF1D00B10120411901EB30
:10094000EA70A1693844081A401EA0612078C006E8
:1009500002D42046FFF7A0FC099828B1D4E9012170
:100960009047206A401C20622078C00622D520468D
:10097000FFF792FC1EE0002E04DBB34502DD01A868
:10098000805D00E03020D4E901219047206A401CBE
:100990002062761CAAF101005FEA000A0AD100F089
:1009A00055F8C0680168405CD4E901219047206A8D
:1009B000401C2062281EA5F10105DCDC07E0D4E91B
:1009C000012118F8010B9047206A401C2062381E54
:1009D000A7F10107F3DC2046FFF774FC032011B0F8
:1009E00041E6000001694A1C02610878704700B5C1
:1009F0008FB0CDE901310021059105497944CDE958
:100A0000031011466846FFF7D3FC0FB000BD00008D
:100A1000E5FFFFFF0A6802F8010B0A60704710B596
:100A2000436913B1AFF3008001E0FFF75CFC0120E4
:100A300010BD127800F124010A7000224A700122D0
:100A4000EDE711684FF0FF32E9E70000004870471A
:100A50004809002030B5B0F10A024FEA900E71F15A
:100A600000034EEA817EB0EB0E0061EB91014FEA8C
:100A7000101E4EEA017E10EB0E0041EB11114FEA01
:100A8000102E4EEA016E10EB0E0041EB11214FEAE1
:100A9000104E4EEA014E10EB0E0041EB1141401892
:100AA00041F100014FEAD00040EA41704FEAD10124
:100AB00010EB80054FEA810444EA907444EB010492
:100AC0006D1944EB0404521BA3414FF0000348BFCF
:100AD0000A3200D530BD401C41F1000130BD00009C
:100AE0002DE9F0411F46044603260168072A01F458
:100AF000006004DB08B116A505E016A503E008B107
:100B000015A500E015A521F010002060A069C01E09
:100B1000A0610FB1401EA0612046FFF7BDFB4FB1A1
:100B2000D4E9012138469047206A401C2062C01C4D
:100B3000206206E0206AFAE7D4E9012115F8010BEA
:100B40009047761EF8D22046FFF7BCFBBDE8F08147
:100B50004E414E006E616E00494E4600696E660061
:100B60002DE9F047814616468AB0354878440DC8CD
:100B70008DE80D0032487844801C03AC0DC884E831
:100B80000D0041F69B300844372190FBF1F290FBB9
:100B9000F1F5A5F1800501FB12041B3C02D564426E
:100BA000012000E00020DFF898A080460027FA44EA
:100BB000AAF1BE0A0EE0E0070AD03246684607EB0B
:100BC000470101230AEB810100F046FB8DE8070095
:100BD00064107F1C002CEED1194F7F44AE3F19E00A
:100BE000E80715D007EB04100DF1180A90E80E0085
:100BF0008AE80E00C068F04201D198190890324688
:100C0000012306A903A800F027FB03AB83E8070034
:100C10006D10641C002DE3D14FF00103324669468C
:100C2000B8F1000F03A802D000F001FB01E000F0D2
:100C300013FBC9E90001C9F808200AB0BDE8F08734
:100C40001465000000487047280900207546FFF72A
:100C5000F9FFAE4605006946534620F00700854679
:100C600018B020B5FFF7F2FABDE820404FF00006BB
:100C70004FF000074FF000084FF0000B21F0070184
:100C8000AC46ACE8C009ACE8C009ACE8C009ACE8C7
:100C9000C0098D46704710B50446AFF3008020466A
:100CA000BDE81040FFF7BEBA4FF0013C50F8042BEE
:100CB00051F8043B9A4221D1A2EB0C03934313EA6F
:100CC000CC1317D150F8042B51F8043B9A4215D19C
:100CD000A2EB0C03934313EACC130BD150F8042B73
:100CE00051F8043B9A4209D1A2EB0C03934313EA57
:100CF000CC13DBD04FF00000704700BFD01A01BA10
:100D0000B1FA81F101F0180122FA01F0CB40C1F1F2
:100D10002001DBB2C0B2C01A2CFA01F3D11A914300
:100D200011EAC311E6D1704701491820ABBEFEE7B6
:100D30002600020070475FEA400C08BF91F0000FE8
:100D40004FEA8C234FEAC12243EA51514FEA1C502B
:100D500018BF00F5F0404FEA300018BF41F00041E5
:100D60005FEA6C5C00F02980BCF1FF3F08BF40F0F7
:100D700080407047130C06BF12044FF0100C4FF068
:100D8000000C130E04BF12020CF1080C130F04BF69
:100D900012010CF1040C930F04BF92000CF1020C31
:100DA000D30F04BF52000CF1010C11464FF00002AA
:100DB000A0F11F00A0EB0C00704711F0004F08BF1E
:100DC000704731F000413FF4D5AF0B0C06BF09046A
:100DD0004FF0100C4FF0000C0B0E04BF09020CF189
:100DE000080C0B0F04BF09010CF1040C8B0F04BF9E
:100DF00089000CF1020CCB0F04BF49000CF1010C6F
:100E0000CCF12003A0EB0C0022FA03F302FA0CF25F
:100E100041EA030100F10100704720F07F4C80EAB5
:100E2000030023F07F47ACEB070303F57C5300F08E
:100E3000004003F1FF032DE980494FEA154B09B447
:100E40004FEA144325EA0B4E24EA03480FF2042626
:100E500006EB132749083E785FEA320203FB066778
:100E6000C7F5000707FB06F64FEA54374FEAD646A8
:100E700006F1020607FB066CCCF1005C4FEA1C474A
:100E80002CEA074C07FB06F40CFB06F504EB1546B1
:100E90004FEA961634BF00204FF000404FEAD1379A
:100EA00006FB07FC4FEA1C4C0CFB0BF7D21B03FBA9
:100EB0000CF761EB07010CFB0EF7B0EB074072EB90
:100EC00017420CFB08F734BFA2EB0742B2EB074214
:100ED00061EB17414FEA0C444FEA910706FB07FC10
:100EE0004FEA1C4C0CFB0BF7B0EBC74072EB5732D0
:100EF00003FB0CF734BFA2EBC742B2EBC74261EB76
:100F000057310CFB0EF7B0EBC70072EB57720CFBBE
:100F100008F734BFA2EBC702B2EBC70261EB57710F
:100F2000039F4FEA816141EA921104EBCC044FEA3E
:100F3000D1374FEA826206FB07FC42EA90124FEA81
:100F400080604FEA1C4C0CFB0BF7D21B03FB0CF729
:100F500061EB07010CFB0EF7B0EB074072EB174299
:100F60000CFB08F734BFA2EB0742B2EB074261EB80
:100F700017414FEA8C554FEA910704EB9C2406FB7E
:100F800007FC4FEA1C4C0CFB0BF7B0EBC74072EBB5
:100F9000573203FB0CF734BFA2EBC742B2EBC74298
:100FA00061EB57310CFB0EF7B0EBC70072EB5772D9
:100FB0000CFB08F734BFA2EBC702B2EBC70261EB30
:100FC000577115EB4C254FEA816141EA92114FEAC6
:100FD00082624FEAD13742EA901206FB07FC44F1E5
:100FE00000044FEA80604FEA1C4C0CFB0BF7D21B4D
:100FF00003FB0CF761EB07010CFB0EF7B0EB0740AE
:1010000072EB17420CFB08F734BFA2EB0742B2EBBE
:10101000074261EB174115EB1C154FEA813141EA9C
:1010200092414FEA823242EA90424FEA80304FEAE0
:101030000C7644F1000448EA03434EEA0B484FF0B3
:10104000000EB2EB080C71EB030724BF6246394671
:101050004EEB0E0E4FF0000B0018524149414BEB86
:101060000B0BB2EB080C71EB03077BF1000B24BFF9
:10107000624639464EEB0E0E4FF0000B00185241FF
:1010800049414BEB0B0BB2EB080C71EB03077BF107
:10109000000B24BF624639464EEB0E0E51EA0207A2
:1010A00018BF46F0010616EB0E7655F1000254F11A
:1010B000000103D5BDE88901BDE80088BDE88901CC
:1010C000BDE80048B619524141EB0101A3F101030B
:1010D000704780807F7E7D7C7B7A797877767675A5
:1010E0007473727171706F6E6E6D6C6C6B6A6A691D
:1010F0006868676666656464636362616160605FB7
:101100005F5E5E5D5D5C5C5B5B5A5A59595858572F
:101110005756565555555454535352525251515097
:1011200050504F4F4F4E4E4D4D4D4C4C4C4B4B4BEA
:101130004A4A4A4949494848484747474746464630
:10114000454545444444444343434342424242416B
:101150004141002B9C4630D477002BD01CB54FEA80
:10116000370703B44FF010004FF01001BAF1000F31
:1011700006D0BCF1000FDCBF40F0080040F00801D1
:101180004FF000000FBCBDE810400BF1010BBBF1AC
:10119000010F08BF5FEA170722BF12F1010211F128
:1011A00001014FF0004143F1000300F0004043EA29
:1011B00000007047F9D35708D0E746EA064613F116
:1011C000400F4FEA16461FDD13F1200FDFBF164315
:1011D0000A46002120335B42BED0C3F1200746EA15
:1011E000064602FA07F74FEA164646EA0706C3F133
:1011F000200722FA03F201FA07F721FA03F14FF070
:10120000000342EA0702A7E746EA020646EA064664
:101210004FEA164646EA0106BCBF46EA0646360CC9
:101220004FF000034FF000024FF0000194E72DE96A
:10123000804C9A46934670B491E8380007C831EA6A
:10124000400C48BF34EA430C03D5FFF7E6FDFFF737
:1012500080FFF0BCBDE8008C2DE9804C9A46934697
:1012600070B491E8380007C810F0804F08BF13F041
:10127000804F03D100F005F8FFF76BFFF0BCBDE82D
:10128000008C20F07F4780EA030023F07F4C07EBBF
:101290000C03A3F57C5300F00040A3F1FE0392F091
:1012A000000F00F0B38095F0000F00F077802DE97B
:1012B00001494FEA11404FEA144621EA004800FB79
:1012C00006FC24EA064708FB06F607FB08F800FBC5
:1012D00007F718EB06484CEB164C4FEA124B18EB8D
:1012E00007484FEA15464CEB174022EA0B4E0BFB22
:1012F00006FC25EA06470EFB06F607FB0EFE0BFB77
:1013000007F71EEB064E4CEB164C4FF000061EEB9B
:10131000074E4CEB174B18EB0B0840F1000018EB95
:101320000E0B58EB000840F100008F1A4FF000013F
:101330003CBFC943661B14BFB5EB040C00213CBF86
:10134000C943F61B4FEA17444EEA8E0E27EA0445BE
:101350004FEA1C4704FB07622CEA074C05FB07F722
:101360000CFB05F604FB0CFC16EB074642EB1742A0
:1013700016EB0C4642EB1C421BEB060658EB020236
:10138000414146EA9E0601D5BDE80189B6195241A0
:1013900041EB0101A3F10103BDE801894FEA1445C6
:1013A0004FEA114724EA054621EA074C05FB07F4FA
:1013B00006FB07F70CFB06F105FB0CFC11EB0741E4
:1013C00044EB17444FEA124711EB0C4144EB1C4429
:1013D00022EA074C05FB07F206FB07F70CFB06F6B3
:1013E00005FB0CFC16EB074642EB174216EB0C46CE
:1013F00042EB1C456A1854F1000148BF7047B6190A
:10140000524141EB0101A3F10103704795F0000F38
:1014100037D04FEA11424FEA144721EA024624EA44
:10142000074C02FB07F106FB07F70CFB06F402FB77
:101430000CFC14EB074441EB17414FEA154714EB42
:101440000C4441EB1C4125EA074C02FB07F506FB67
:1014500007F70CFB06F602FB0CFC16EB074645EB08
:10146000174516EB0C4645EB1C42121951F10001D1
:1014700048BF7047B619524141EB0101A3F1010386
:1014800070474FEA14454FEA114724EA054621EA1E
:10149000074C05FB07F106FB07F70CFB06F24FF0C4
:1014A000000605FB0CFC12EB074241EB174112EB67
:1014B0000C4251EB1C4148BF7047921841EB0101AF
:1014C000A3F101037047000070B50446006881680D
:1014D000C943C90717D1816821F00101816000F07B
:1014E000E9FD05460AE000BF00F0E4FD401B0228CC
:1014F00004D920688068C043C00706D0206880688F
:10150000C043C007F0D0002070BDA06A40F01000BA
:10151000A062E06A40F00100E062012070BD0000BE
:10152000F8B500260446009600688168C943C907DB
:101530002DD0816841F0010181601648164900688C
:10154000B0FBF1F000E0401E00900028FBD100F05D
:10155000B1FD054616E000BF00F0ACFD401B0228BF
:1015600010D920688068C043C0070BD0A06A40F043
:101570001000A062E06A40F00100E06284F824609C
:101580000120F8BD20688068C043C007E4D1002076
:10159000F8BD00001400002040420F0070B508485C
:1015A000084D00240078A87007480078E870285D8E
:1015B00003F0B8FD641CE4B2052CF8D970BD00003E
:1015C000560400201800002020000020FEE7000044
:1015D00010B502F02DF9012300221849012806D088
:1015E000022813D003281BD04A608A600CE04868A8
:1015F000401C48600A2807DB886818B9C1E9012344
:101600000B7010BD4A6010BD0A7010BD4868401CC8
:1016100048600A28F8DB88680028F3D1022008E037
:101620004868401C48600A28EEDB88680028E9D139
:101630000320C1E90123087010BD00003400002020
:1016400070B5164D06460120687100242C72AC71ED
:10165000EC712C6330466C6304F05EFEA86130468A
:1016600004F075FC0E4A0F4B04F0EAFA00220E4B10
:1016700004F098FC04F0AAFA054601460B4804F071
:10168000A3F929460A4804F09FF904F07DF904F013
:1016900033F9084804600848046070BD70040020F5
:1016A000083D9B559F6B34400040A340E808002054
:1016B00008090020480000204C000020704710203E
:1016C00000F0DEBB72B6FEE70B4810B50468616A35
:1016D0000A4849420AB202800023636208490C6842
:1016E000616A09B24180636243681A444260826859
:1016F0001144816010BD000024050020440000203A
:10170000DC0400202DE9F041194F0121384600F09A
:10171000BFFC01250026174C01281FD0667002214E
:10172000384600F0B5FC01281AD0A670124F0121EE
:10173000384600F0ADFC012814D0E6700821384688
:1017400000F0A6FC01280FD026712021384600F0B9
:101750009FFC01280AD06671BDE8F0816570DEE764
:10176000A570E3E7E570E9E72571EEE76571F3E75A
:10177000000C01402000002000100140F8B50025B9
:101780000446009590F82400012808D0012084F830
:1017900024002046FFF798FE060002D053E0022006
:1017A000F8BDA06A20F4885040F00200A062022038
:1017B00000F022FD26490968B1FBF0F0400000E08E
:1017C000401E00900028FBD12046FFF7A9FE2068AC
:1017D000816841F00801816000F06CFC074608E078
:1017E00000F068FCC01B0A2803D920688068000745
:1017F00015D4206880680007F2D42068816841F021
:101800000401816000F056FC074612E000F052FC33
:10181000C01B0A280DD920688068400709D5A06A36
:1018200020F0020040F01000A06284F82450012053
:10183000F8BD206880684007E8D4A06A20F0020064
:1018400040F00100A06284F824503046F8BD00004A
:1018500014000020F8B50024009490F824202546B8
:10186000012A12D0012280F824204A681F23072A67
:101870000DD20668776B521E02EB820293409F43A3
:101880000B6893401F43776319E00220F8BD066898
:101890000D2A0AD2376BD21F02EB820293409F437C
:1018A0000B6893401F43376309E0F76A0D3A02EB78
:1018B000820293409F430B6893401F43F7620A687C
:1018C000072306680A2A0AD3F7680A3A02EB42029B
:1018D00093409F438B6893401F43F76008E037694C
:1018E00002EB420293409F438B6893401F43376152
:1018F0000A68102A01D0112A20D1124B02689A429C
:1019000017D193681B0219D4936843F400039360C2
:101910000968102912D10C490C4A0968B1FBF2F18F
:1019200001EB8101490000E0491E00910029FBD133
:1019300004E0816A41F020018162012480F8245092
:101940002046F8BD002401401400002040420F0052
:101950000068C06C704700002DE9F04104004FF0B2
:1019600000057FD0A06A002628B9E66284F82460CA
:10197000204600F081F82046FFF7A6FDA16AC906BF
:1019800000D420B1A06A40F01000A0626AE0A16A11
:1019900021F4885141F00201A162334923688B424E
:1019A000E16904D1B1F5402F01D14FF40021277B2B
:1019B0004FF4807C41EA470261680A43A1686145AF
:1019C00008D0012906D0002194F814E0BEF1010FDF
:1019D00002D00AE06146F7E7C7B1A76A47F02007DF
:1019E000A762E76A47F00107E7625F6827F4694783
:1019F0000F435F60236899681C4F39401143996019
:101A0000A16861450BD0012909D00CE0DFF860E046
:101A1000A7690EEB47370F4347F40061E5E7218ADA
:101A20000D05A5F580152168CB6A23F470032B43BF
:101A3000CB62216889680F4B1940914208D1E66258
:101A4000A16A21F0020141F00101A162BDE8F0812B
:101A5000A06A20F0020040F01000A062E06A40F0AE
:101A60000100E0620120F1E7003C0140FDF7E1FFE9
:101A700000E0FFFFFE0E1FFF00B585B000210091C2
:101A800001910291039100680E49884218D10E48D5
:101A9000816941F480618161816901F4806104910F
:101AA000816941F0040181618069694600F00400A8
:101AB00004901020009003200190044800F0ECF9FD
:101AC00005B000BD002801400010024000080140A0
:101AD0002DE9F84300270D460446009700F0EAFA86
:101AE000804620688168C90508D5A06A40F02000BA
:101AF000A06284F824700120BDE8F8834168C9051C
:101B000003D4C06A10F4700F2AD0022000F074FBD6
:101B10003B490968B1FBF0F62068036939490B427B
:101B20004FEA61014FEAA1121FD1C3684FEA611C5D
:101B300013EA0C0F19D103690B4225D1C06810427A
:101B400022D1142023E0681C0AD02DB100F0B2FA93
:101B5000A0EB0800A84203D920680068800725D5BB
:101B6000206800688007EED52DE003690B4202D1A2
:101B7000C168114206D0026923490A4206D1C068F1
:101B8000084203D1542002E0292000E0FC20464313
:101B9000009816E0681C11D02DB100F08BFAA0EB74
:101BA0000800A8420AD90098B04207D2A06A40F0C3
:101BB0000400A06284F8247003209DE70098401C74
:101BC0000090B042E6D321686FF012000860A06A6E
:101BD00040F40070A06220688068C0F3424007288B
:101BE0000CD1207B50B9A06A20F48070A062A06A5A
:101BF000C00403D4A06A40F00100A06200207BE78B
:101C000014000020244992244992240070B504460F
:101C100090F8240001280DD0012084F824002046EB
:101C2000FFF77EFC02004FF0000005D084F824008E
:101C3000104670BD022070BDA16A40F20123994395
:101C400041F48071A1621F4D23681F49AB4218D136
:101C50000E6816F4702F14D0A66A46F48016A66299
:101C60000E68760505D5A66A26F4005646F4805619
:101C7000A662A66AF6040AD5E66A26F00606E662B9
:101C800006E0A66A26F48016A6625E68E9E7E062CE
:101C900084F824006FF00200186020688368C3F3A2
:101CA0004243072B05D1A84208D1096811F4702FCF
:101CB00004D0816841F480118160B9E7816841F402
:101CC000A001F9E7002801400424014010B590F874
:101CD00021100022022905D00421816380F82020F0
:101CE000012010BD01680B6823F00E030B60016832
:101CF0000B6823F001030B6090F84030C46B0121A6
:101D000001FA03F3636080F8211080F82020104668
:101D100010BD00002DE9F05F90F821100024022989
:101D200003D004218163012485E001680A6822F060
:101D30000E020A6001680A6822F001020A603F4E42
:101D40003E4FB215DFF8F4C0DFF8F090DFF8ECA0FA
:101D5000DFF8E8B0DFF8E4E00168783F130115022E
:101D6000ACF1640CA9F15009AAF13C0AABF1280BC3
:101D7000AEF1140E4FF48018B14227D9B9420ED0FB
:101D8000614512D049451DD0514518D0594518D04C
:101D9000714501D1424615E0294EB14201D10122DF
:101DA00010E0274E1436B14201D110220AE0244E31
:101DB0002836B14206D0224A3C32914201D11A461D
:101DC00000E02A461E49091F0A602BE0B94213D0E1
:101DD000614517D0494522D051451DD059451DD0E8
:101DE000714501D142461AE0B14202D14FF08072F2
:101DF00015E0134EB14201D1012210E0104E14360D
:101E0000B14201D110220AE00D4E2836B14206D06F
:101E10000B4A3C32914201D11A4600E02A4607495A
:101E200080394A60012180F82110002180F82010BB
:101E3000416B01B188472046BDE8F09F8000024019
:101E40000804024010B5102810D10A2003F00AFA45
:101E50001021084800F01CF9012804D106484178F7
:101E600029B10021417005491020086010BD0121F1
:101E7000F8E70000001801400600002014040140AB
:101E8000044910B50A68024202D00860FFF7DAFF81
:101E900010BD0000140401402DE9F84FDFF8C8918F
:101EA000002409F1040A0AF1040B23460F270BF161
:101EB000040ED1E00125A54006EA0502AA4276D12A
:101EC000DFF8A8C14E68A6EB0C0866452BD00DDCE8
:101ED000032E34D005DC36B3012E19D0022E2FD1BB
:101EE0001BE0112E16D0122E2AD119E0B8F5881F4A
:101EF00019D006DCB8F5803F15D0B8F5801F1FD18A
:101F000011E0B8F5001F0ED0B8F5041F18D10AE093
:101F1000CB6815E0CB681B1D12E0CB6808330FE0DF
:101F2000CB680C330CE08B682BB1012B4FF008030E
:101F300003D0456104E0042302E0056100E00023D2
:101F4000FF2A01D8064601E000F104064FEA8405A5
:101F500001D9A5F12005D6F8008007FA05FC28EA8A
:101F60000C0803FA05F548EA0508C6F800804D6834
:101F7000ED0070D53E4DAE6946F00106AE61AD692B
:101F800024F0030605F0010500953A4D06EB050C1B
:101F9000DCF80850A607360F07FA06F825EA080508
:101FA000DFF8D480404503D14FF0000825E052E02F
:101FB000DFF8C880404502D14FF001081DE0DFF88E
:101FC000C080404502D14FF0020816E0DFF8B4802F
:101FD000404502D14FF003080FE0DFF8AC804045E8
:101FE00002D14FF0040808E0DFF8A080404502D19C
:101FF0004FF0050801E04FF0060808FA06F848EA35
:102000000508CCF808804D68D9F80060ED034D460E
:1020100001D5164300E096432E604D68DAF8006063
:10202000AD03554601D5164300E096432E604D683A
:10203000DBF80060ED025D4601D5164300E09643F3
:102040002E604D68DEF80060AD02754601D516437E
:1020500000E096432E60641C0A681646E2407FF456
:1020600029AFBDE8F88F0000000401400000111006
:10207000001002400000014000080140000C014037
:10208000001001400014014000180140001C0140F4
:102090008068084000D001207047C26821EA02032E
:1020A0000A4043EA0241016170470AB10161704789
:1020B0000904FBE701488068704700000800002021
:1020C000024881680278114481607047080000204E
:1020D000074810B5016841F010010160032000F0CD
:1020E00079F8002000F006F800F024F8002010BD78
:1020F0000020024070B50D4D04464FF47A712878E7
:10210000B1FBF0F00A490968B1FBF0F000F0DDFB2B
:1021100048B9102C07D200222146501E00F03AF890
:1021200000206C6070BD012070BD00000800002020
:10213000140000200E4808B5816941F00101816159
:10214000816901F001010091C16941F08051C161D3
:10215000C06900F080500090052000F03BF8054871
:10216000416821F0E06141F00071416008BD00006C
:102170000010024000000140002809DB00F01F02AF
:10218000012191404009800000F1E020C0F80011D9
:1021900070470000F0B40E4B1B680C46C3F30223DB
:1021A000C3F10705042D00D90425191D072901D203
:1021B000002300E0DB1E012606FA05F1491E21403E
:1021C00099409E40761E16403143F0BC03F028B87B
:1021D0000CED00E0064900F0070208684FF6FF0327
:1021E000184040EA0220034A10430860704700008C
:1021F0000CED00E00000FA0510B52CA401461DCC42
:1022000086B08DE81D002DA02D4C006804900020A4
:1022100004292FD00BDC01292FD0022928D100F06E
:1022200071F96168C1F38131491C49001EE0082938
:1022300020D010291CD161682268D20118D5C1F3C1
:102240008342C9031DF8020009D5616804AAC1F3DD
:102250004041515C1B4AB2FBF1F1484301E01A498D
:1022600048436168490203D440000321B0FBF1F008
:1022700006B010BD00F056F9FAE7226AC2F3012158
:10228000012903D1920701D5C803F1E7022905D13D
:10229000626A920702D549F64040E9E70329E7D18F
:1022A00021688903E4D54FF22440E1E702030405E5
:1022B000060708090A0B0C0D0E0F10100102000092
:1022C0000010024000127A0000093D002DE9F84399
:1022D00005460078354CC00754D0E0690026C000A0
:1022E00008D4E06940F08050E061E069012600F028
:1022F000805000902E480168C90512D401688046BC
:1023000041F480710160FFF7D5FE074605E000BF8C
:10231000FFF7D0FEC01B642823D8D8F80000C00502
:10232000F6D5206A10F4407021D0A98801F44071DC
:1023300081421CD0206A1F49012220F440700A60AB
:1023400000220A602062C00711D0FFF7B3FE0746E3
:1023500041F2883808E000BFFFF7ACFEC11B4145E1
:1023600002D90320BDE8F883206A8007F4D5206AEB
:10237000696820F44070084320621EB1E06920F0D3
:102380008050E0612878800705D56068A96820F44E
:102390004040084360602878C00605D560686969D8
:1023A00020F48000084360600020DBE7001002405A
:1023B00000700040400442422DE9F0470F460500FE
:1023C00061D0434E306800F00700B84209D230684F
:1023D00020F0070038433060306800F00700B84252
:1023E00051D128683B4C810712D5400703D560685E
:1023F00040F4E06060602878000703D5606840F42E
:10240000605060606068A96820F0F0000843606078
:102410002878C00728D06868012810D021680228D1
:1024200010D0890700292EDA616821F003010143E9
:102430006160FFF73FFE804641F288390DE0216878
:102440008903EFE78901EDE7FFF734FEA0EB080110
:10245000494502D90320BDE8F0876068696800F04B
:102460000C00B0EB810FEFD1306800F00700B842EC
:102470000BD9306820F0070038433060306800F036
:102480000700B84201D00120E5E72878400705D5CC
:102490006068E96820F4E06008436060287800071D
:1024A00006D56068296920F4605040EAC100606088
:1024B00000F038F86168084AC1F30311515CC84064
:1024C0000649086006480068FFF714FE0020C2E7CE
:1024D0000020024000100240D667000814000020CF
:1024E0000C0000200448054900684968044AC1F30B
:1024F0000221515CC84070471400002000100240C7
:10250000E66700080448054900684968044AC1F3C1
:10251000C221515CC84070471400002000100240E6
:10252000E667000812A185B00FC98DE80F0014A05E
:10253000144A006804905168134801F00C03042BFE
:1025400010D0082B0ED1C1F38343C9031DF803003B
:102550000AD5516804AAC1F34041515C0A4A50436C
:10256000B0FBF1F005B0704708494843FAE70000B6
:1025700002030405060708090A0B0C0D0E0F1010C4
:10258000010200000010024000127A0000093D0024
:102590002DE9F84F040070D02078C04DC00749D015
:1025A0006868C0F38100012807D06868C0F3810023
:1025B000022809D16868C00306D52868800339D588
:1025C00060680028E7D035E06068B0F5803F0BD048
:1025D00010B1B0F5A02F11D0286820F48030286009
:1025E000286820F4802002E0286840F480302860C9
:1025F000606890B1FFF75EFD06460AE0286840F487
:1026000080202860F0E700BFFFF754FD801B64289E
:1026100073D828688003F7D50CE0FFF74BFD06461A
:1026200005E000BFFFF746FD801B6428F0D828684E
:102630008003F7D420789A4E80074FF001094FF0BD
:10264000000839D5686810F00C0F07D06868C0F32F
:102650008100022809D16868C00306D42868800771
:1026600014D52069012808D110E02069B0B1C6F85E
:102670000090FFF71FFD074605E00AE1FFF71AFD8E
:10268000C01B0228C4D828688007F7D5286861696C
:1026900020F0F80040EAC10028600DE0C6F8008094
:1026A000FFF708FD074604E0FFF704FDC01B022802
:1026B00023D828688007F7D4207800072CD57948DC
:1026C000A169D9B1C0F80090FFF7F4FC074604E017
:1026D000FFF7F0FCC01B02280FD8686A8007F7D507
:1026E00071484FF4FA510068B0FBF1F0009000BF60
:1026F0000098411E0091FAD20EE080E0C0F8008000
:10270000FFF7D8FC074604E0FFF7D4FCC01B022803
:1027100075D8686A8007F7D42078400760D5E869E3
:102720000027C00008D4E86940F08050E861E869FB
:10273000012700F0805000905C480168C90513D45F
:102740000168834641F480710160FFF7B3FC824663
:1027500006E000BFFFF7AEFCA0EB0A0064284ED8ED
:10276000DBF80000C005F5D5E06801280AD008B103
:10277000052813D0286A20F001002862286A20F07A
:10278000040002E0286A40F001002862E06841F29B
:10279000883B98B1FFF78EFC82460BE0286A40F038
:1027A00004002862EEE700BFFFF784FCA0EB0A01FB
:1027B00059455AD8286A8007F6D50CE0FFF77AFC0D
:1027C000824605E0FFF776FCA0EB0A0159454CD89C
:1027D000286A8007F6D41FB1E86920F08050E861CC
:1027E000E06988B36968C1F38101022944D00228F5
:1027F000C6F8608004D0FFF75DFC044638E034E0A2
:10280000FFF758FC074604E0FFF754FCC01B022802
:102810002BD828688001F7D4206AB0F5803F05D115
:102820006868A16820F4003008436860D4E90801B2
:102830000843696821F4741108436860C6F8609021
:10284000FFF738FC044606E025E000BFFFF732FC46
:10285000001B022809D828688001F7D51BE000BFBB
:10286000FFF728FC001B022802D90320BDE8F88FDF
:1028700028688001F4D40EE00128F7D06868226A45
:1028800000F48031914204D1616A00F470108842F2
:1028900001D00120EAE70020E8E700000010024034
:1028A00000004242800442421400002000700040B8
:1028B0004FF0E0210428086903D020F004000861EB
:1028C000704740F00400FAE7704710B5401EB0F1C1
:1028D000807F01D3012010BD4FF0E02460610F2103
:1028E000601702F09DFC0020A061072020610020FD
:1028F00010BD10B5FFF7E8FF10BD7047704710B569
:1029000090F83C20012A22D0012280F83C20CA689D
:102910008C6822F4407222434C6822F48062224385
:102920000C6822F4006222430C6922F48052224394
:102930004C6922F400522243C969002322F48042E8
:102940000A4301684A6480F83C30002010BD022030
:1029500010BD000070B590F83C20012A2CD0012455
:1029600080F83C40022280F83D2003685A689D6848
:1029700022F070060A6832435A60104B02689A428D
:102980000ED00F4B9A420BD0B2F1804F08D00D4BB6
:102990009A4205D00C4B9A4202D00C4B9A4204D179
:1029A000496825F080031943916080F83D4000217B
:1029B00080F83C10084670BD022070BD002C01401C
:1029C000003401400004004000080040000C0040BA
:1029D00010B5040003D094F83D0010B107E00120C9
:1029E00010BD002084F83C00204600F01FF80220B3
:1029F00084F83D00211D206802F04AF9012084F886
:102A0000460084F83E0084F83F0084F8400084F8D3
:102A1000410084F8420084F8430084F8440084F8BC
:102A2000450084F83D00002010BD000008B5154A9F
:102A30000168154891420ED1C16941F01001C16190
:102A4000C069032200F01000009002213620FFF739
:102A5000A1FB362010E00D4A914211D1C16941F02D
:102A60002001C161C069022200F020000090012114
:102A70003720FFF78FFB3720BDE80840FFF77CBB0E
:102A800008BD00000010004000100240001400408B
:102A900090F83D10012901D001207047022180F8F3
:102AA0003D100168CA6842F00102CA6000680E4920
:102AB00088420ED00D4988420BD0B0F1804F08D02B
:102AC0000B49884205D00B49884202D00A49884206
:102AD00004D1816801F00701062903D0016841F0A3
:102AE0000101016000207047002C014000340140CA
:102AF0000004004000080040000C00402DE9F041B7
:102B00000D46040003D094F83D0018B108E0012000
:102B1000BDE8F081002084F83C00204600F040F839
:102B2000022084F83D002068816844F20702914346
:102B30008160211D206802F0ABF8226890689169DD
:102B4000166A2B68AF69034340F20330814341EAC0
:102B50000721A868EF6908434FF6FC418843E968FC
:102B600040EA0720014328692F6A000140EA073044
:102B7000084369686D6926F0220646EA051529436F
:102B800093602268906154F8460B0162012004F8BA
:102B90001F09E0752076E0762077A0750020B7E762
:102BA00000B585B000210091019102910391204A66
:102BB00001682048914221D1816941F4006181611D
:102BC000816901F400610491816941F040018161F2
:102BD0008069694600F0400004904FF42060009046
:102BE0001548FFF759F91548416821F0C00141F037
:102BF000E06141F0C001416005B000BD104A914262
:102C0000FAD1C16941F00201C161C16901F002015B
:102C10000491816941F0040181618069694600F095
:102C200004000490C02000900648FFF735F9E3E760
:102C3000002C01400010024000180140000001403B
:102C4000000400400008014070B590F83E60044662
:102C500090F83F5090F8423090F84320022021B184
:102C600004290ED0012E1BD114E0012E18D1012B06
:102C700016D184F83E0084F8420001220021206829
:102C800020E0012D0CD1012A0AD184F83F0084F8FC
:102C9000430014E0012D03D1012B01D1012A01D001
:102CA000012070BD84F83E0084F83F0084F84200A3
:102CB00084F8430001220021206802F02FF801224D
:102CC0000421206802F02AF82068016841F001011F
:102CD0000160002070BD704770B50446006801694E
:102CE0004FF00005C943890715D4C168C943890756
:102CF00011D4E91E016101202077206880698007D6
:102D0000204602D0FFF7E7FF04E000F0D5F82046A8
:102D100000F084F9257720680169C943490717D471
:102D2000C168C943490713D46FF00401016102204F
:102D300020772068806910F4407F204602D0FFF79A
:102D4000CAFF04E000F0B8F8204600F067F92577E4
:102D500020680169C943090716D4C168C943090736
:102D600012D46FF008010161042020772068C06947
:102D70008007204602D0FFF7AEFF04E000F09CF889
:102D8000204600F04BF9257720680169C943C90640
:102D900017D4C168C943C90613D46FF0100101618B
:102DA000082020772068C06910F4407F204602D0B8
:102DB000FFF791FF04E000F07FF8204600F02EF9C5
:102DC000257720680169C943C90708D1C168C9438B
:102DD000C90704D1891E0161204600F0B9F92068B5
:102DE0000169C943090609D4C168C943090605D464
:102DF0006FF0800101612046FFF77FFD20680169C7
:102E0000C943490609D4C168C943490605D46FF0CE
:102E100040010161204600F061FA20680169C94360
:102E200089060BD4C168C943890607D46FF0200115
:102E300001612046BDE87040FFF760BD70BD000035
:102E400010B586B000210091019102910391154CBB
:102E50000368154802210322A3420ED1836943F07F
:102E6000040383618069039200F0040004900C2045
:102E7000CDE9000169460D4810E00D4CA3420FD189
:102E8000836943F0100383618069039200F01000AE
:102E90000490C020CDE9000169460648FEF7FCFF1A
:102EA00006B010BD000C00400010024000080140B8
:102EB0000034014000100140704770B5044690F89E
:102EC0003C000D4601280AD0012084F83C0042B1A4
:102ED000042A18D0082A2AD00C2A4DD139E0022021
:102EE00070BD206801F028FF2068816941F0080169
:102EF00081612068816921F0040181612068816914
:102F00002A69114311E0206801F046FF20688169B9
:102F100041F4006181612068816921F480618161EF
:102F2000206881692A6941EA0221816124E02068E0
:102F300001F068FF2068C16941F00801C1612068A3
:102F4000C16921F00401C1612068C1692A69114386
:102F500011E0206801F08AFF2068C16941F4006136
:102F6000C1612068C16921F48061C1612068C169C3
:102F70002A6941EA0221C161002084F83C0070BD49
:102F800010B5040003D094F83D0010B107E0012013
:102F900010BD002084F83C00204600F01FF80220FD
:102FA00084F83D00211D206801F072FE012084F8A4
:102FB000460084F83E0084F83F0084F8400084F81E
:102FC000410084F8420084F8430084F8440084F807
:102FD000450084F83D00002010BD000008B50C4AF3
:102FE00001680C48914207D1C16941F00801C161F3
:102FF000C06900F0080009E0074A914207D18169E1
:1030000041F400518161806900F40050009008BDD6
:10301000000C0040001002400034014070470000E6
:1030200010B50446022249B104290ED0082913D054
:1030300094F84100012816D0012010BD94F83E00FC
:103040000128F9D184F83E200FE094F83F000128D0
:10305000F2D184F83F2008E094F840000128EBD139
:1030600084F8402001E084F841200122206801F02A
:1030700055FE13492068134A884201D0904203D17B
:10308000436C43F400434364206888420DD090426F
:103090000BD0B0F1804F08D00B49884205D00B49C6
:1030A000884202D00A49884204D1816801F00701B0
:1030B000062903D0016841F001010160002010BD24
:1030C000002C014000340140000400400008004092
:1030D000000C004030B504460D460068002201F0A7
:1030E0001DFE194B41F2111120688A10984202D03E
:1030F000164B984209D1036A0B4206D1036A134268
:1031000003D1436C23F4004343642068036A0B42F9
:1031100006D1016A114203D1016821F00101016069
:1031200001203DB1042D08D0082D09D084F84100BC
:10313000002030BD84F83E00FAE784F83F00F7E74E
:1031400084F84000F4E70000002C01400034014006
:103150002DE9F047574988427ED1FEF7B5FA564E21
:103160004FF41A65306890FBF5F002F0F0FEDFF8DE
:103170004C81DFF84C9142464B4602F013FF02F0BF
:1031800025FD504C504F2063386890FBF5F002F05D
:10319000DEFE42464B4602F005FF02F017FD60637B
:1031A00000F09AFB6179494800254FF00108012998
:1031B0004CD181460146A06903F01EF8216B03F053
:1031C000C3F916D84946A06903F0F0F9216B03F062
:1031D000BBF80ED8607A401CC0B2607264280AD373
:1031E000657184F80880657202F0BCFB02F072FB26
:1031F00001E025726572E078012827D12079012845
:1032000024D100F0D9FB3248006838B931683A68F7
:10321000114401EBD17149103160396003F07CF841
:103220000646E0623146E06902F0E6FF07462061AB
:103230003146606A03F0BAF9606103F051F806465E
:10324000384603F04DF8314600F081FEA0790128A0
:103250002ED1E078012800E021E002D02079012879
:1032600026D100F0A9FBE0692061606A6061A07A64
:10327000401CC0B2A072642805D3A571A572256157
:10328000656184F80780606903F02AF805462069C3
:1032900003F026F82946BDE8F04700F058BE0D4976
:1032A000884205D1BDE8F04720210B48FEF7F5BE66
:1032B000BDE8F087FC05002048000020083D9B5534
:1032C0009F6B3440700400204C0000200000C0417F
:1032D0002C000020B4050020001801407047704702
:1032E00070470000F8B5026804461068D168536959
:1032F00010F00F0F4FF0000553D003F0010601F45A
:10330000907737435FD0C20705D0CA0503D5226C3A
:1033100042F001022264420705D5DA0703D0226C8D
:1033200042F002022264820705D5DA0703D0226C3C
:1033300042F004022264020707D501F02002324362
:1033400003D0226C42F008022264226C002A34D09E
:10335000800604D5880602D5204601F0CFFD2068FE
:103360004069216CC0F38010090700D430B32046B7
:1033700001F0ACFD2068416949061BD5416921F087
:1033800040014161A06BA8B158494163A06BFEF7B1
:10339000C1FC002811D0A06B416B01B0BDE8F0402A
:1033A000084783060FD58B060DD52046BDE8F840AB
:1033B00001F0A4BD2046FFF793FFF8BD2046FFF7BC
:1033C0008FFF2564F8BD266B2023012E52D1C6063F
:1033D00050D5CE064ED51068506800905069400612
:1033E0002AD5A16B086840680004000CEAD0A68DBD
:1033F0008642E7D9E0858869202818D0D06820F473
:103400008070D0602068416921F00101416120682D
:10341000416921F04001416184F83E302563206814
:10342000C16821F01001C160A06BFEF74FFCA08DB8
:10343000E18D401A81B219E0A08DE18D401A81B270
:10344000E08D0028BED00029BCD0D06820F4907058
:10345000D0602068426922F00102426184F83E3067
:1034600025632068C26822F01002C2602046FFF780
:1034700036FFF8BD05062BD50D0629D594F83D007D
:103480002128F6D1A068B0F5805F01D12069B0B1E4
:10349000206A411C2162216800784860E08C401E4F
:1034A0000004000CE084E4D12068C16821F08001B0
:1034B000C1602068C16841F04001C160F8BD206A68
:1034C0000088C0F308005060206A801C2062E5E795
:1034D0004006F3D54806F1D5D168204621F04001D9
:1034E000D16084F83D3000F02AF9F8BDBD4E0008E7
:1034F00070B5040004D094F83D00002510B106E03A
:10350000012070BD84F83C50204600F023F82420B0
:1035100084F83D002068C16821F40051C160204654
:1035200001F048FD2068016921F4904101612068A3
:10353000416921F02A0141612068C16841F40051CC
:10354000C1602564202084F83D0084F83E000020FE
:1035500070BD000070B586B0002400940194029400
:10356000039403682E482D4E022103220515B34211
:1035700026D1836943F480438361836903F48043E4
:103580000493836943F0040383618069254E00F04E
:10359000040004900802CDE9000103926946304618
:1035A000FEF77AFCCDE90054694630460294FEF7F6
:1035B00073FC002202212520FEF7ECFD252028E0E7
:1035C000194EB34227D1C36943F48023C361C36951
:1035D00003F480230493836943F0080383618069C3
:1035E000CDE9005100F00800CDE903200F4D6946F8
:1035F0002846FEF751FCE814CDE900046946284648
:103600000294FEF749FC002203212720FEF7C2FDA9
:103610002720FEF7B1FD06B070BD00000038014064
:10362000001002400008014000480040000C01402A
:1036300090F83E30202B0ED159B152B190F83C3069
:10364000012B08D0012380F83C300023036301F0F4
:103650000DBD0120704702207047000010B50068C2
:103660000749884203D10748C07A01F0A1F905490A
:103670000122BDE810400B310348FFF7D9BF00001D
:103680000048004050040020D00600202DE9F843F7
:10369000044690F83D001F4616460D4620284CD1A2
:1036A000C5B1BEB194F83C00012846D0012084F891
:1036B0003C004FF00008C4F84080212084F83D0011
:1036C000FEF7F8FCA6848146E684A068B0F5805F2A
:1036D00003D004E00120BDE8F883206928B12E461C
:1036E0005FF0000584F83C800EE00026FAE78021B8
:1036F000204601F0D6FCA0B9AEB116F8010B216846
:103700004860E08C401EE084E08C4B464FF00002A5
:1037100000970028EBD14FF04001204601F0C1FC9A
:1037200030B10320D7E735F8020BC0F30800E6E715
:10373000202084F83D000020CDE70220CBE7704731
:10374000FEE7000070B50C4C012208212046FEF770
:10375000ACFC0122094E550329463046FEF7A5FC74
:10376000002229463046FEF7A0FC2046BDE8704006
:1037700000220821FEF799BC0014014000200140FE
:1037800070B5012208210948FEF78FFC084D4FF45F
:103790000054002221462846FEF787FC2146284691
:1037A000BDE870400122FEF780BC0000001401401B
:1037B0000020014010B5064C012208212046FEF7EA
:1037C00074FC20460022BDE810400821FEF76DBCC5
:1037D00000140140134810B5816986B041F04001E2
:1037E0008161816901F040010491816941F0040126
:1037F00081618069012400F0040004900020CDE97B
:103800000040022002900320039069460648FEF71C
:1038100043FB5C200090694602940448FEF73CFBA1
:1038200006B010BD00100240000801400018014021
:1038300010B50C4C04212046FEF72AFC58B1082193
:103840002046FEF725FC40B140212046FEF720FC33
:1038500028B1002010BD012010BD022010BD0320A2
:1038600010BD00000018014070B5184886B081698D
:1038700041F008018161816901F0080104918169C9
:1038800041F0400181618069012400F04000049012
:1038900003202025CDE90240CDE900540C4E6946B5
:1038A0003046FEF7F9FA02940A4C69460095204624
:1038B000FEF7F2FA012220213046FEF7F6FB012244
:1038C00020212046FEF7F1FB06B070BD001002403B
:1038D000000C01400018014010B5FDF713FF14481B
:1038E000817849B9C278012A06D102791AB1012A30
:1038F00002D140F22622C260C27851EA020305D109
:103900000379012B02D14FF41673C360012907D14B
:103910003AB1012A04D10179002901D10549C160D8
:1039200010BD01790029FBD102493239F7E70000C7
:1039300020000020DAFDFFFF10B51B48FEF766F9F6
:103940000A211948FEF7C4F8184C90B91648FDF73B
:10395000FFFF80B2208102F011FB4FF06632144B62
:1039600002F020FB6FF00B0202F0C9FE02F02EF90C
:103970002061104A21690020914208DAE071A079A3
:10398000401CC0B2A07103280DD901200AE0A0712B
:103990002078012807D1E079401CC0B2E0710328EB
:1039A00001D90220207010BDAC04002020000020AE
:1039B00066660A40CDCCCC3F10B5124CE0780128A9
:1039C00002D0207901281BD12078401CC0B2207081
:1039D000022807D30020207001F086FC206201F04D
:1039E00069FCA0620848216A01F0EEFF0748A16A5D
:1039F00001F0EAFF02F010F8E06101F0E7FF606219
:103A000010BD000070040020A8080020C808002095
:103A1000324810B50078324C012805D0022834D045
:103A200003282BD1002028E000F0B4FA2078401CB5
:103A3000C0B22070792826D011DC222821D007DCE2
:103A4000042819D00D281AD0182817D1142014E0F2
:103A50006F2818D0702816D071280FD113E0A0F16C
:103A60007A010D290AD2DFE801F00E0E0E090909CC
:103A70000909090E0E0E0E000120207010BD0A204B
:103A8000FBE71E20F9E7401EF7E700F083FA2078F5
:103A9000152821D013DC0A281ED009DC012803D008
:103AA000022801D00328E9D100EB80004000E4E7C0
:103AB0000B2811D00C280FD01428DFD10CE0A0F176
:103AC00016010C29DAD2DFE801F007070606060620
:103AD000060607070707D1E76430CEE73400002069
:103AE000400000203EB500211148009101910F4A8D
:103AF0000291026081600173017501244FF460221C
:103B00000461C2614160FDF727FF08B1FDF7DAFDEE
:103B10000420CDE90004694605480294FDF79AFEA9
:103B2000002801D0FDF7CEFD3EBD00000028014079
:103B3000AC0400202DE9F04385B0002439480094FE
:103B4000019402940394816941F04001816181698B
:103B500001F040010491816941F080018161816936
:103B600001F080010491816941F010018161816956
:103B700001F010010491816941F0040181618169C2
:103B800001F004010491816941F0080181618069BB
:103B9000DFF8948000F0080004900022C021404625
:103BA000FEF783FADFF88490002206214846FEF7EC
:103BB0007CFA102000901E480225CDE901056946D7
:103BC0001C48FEF769F9C02001260327CDE900064D
:103BD000CDE9024769464046FEF75EF92920CDE966
:103BE0000004694648460294FEF756F90620CDE9DE
:103BF000000669464846CDE90245FEF74DF9CDE994
:103C0000007469460C480294FEF746F9012203212C
:103C10000A20FEF7BFFA0A20FEF7AEFA05B0BDE8AB
:103C2000F083000000100240001C01400010014021
:103C30000000111000180140000C014010B58CB0BC
:103C400024216846FCF73BFC0024164809941449DB
:103C50000A94C0E900144FF6FF71C0E90241046103
:103C6000446184610320CDE900040120CDE9020410
:103C7000CDE90404CDE90604089069460948FEF739
:103C80003DFF08B1FDF71EFD099409A905480A94F6
:103C9000FEF760FE002801D0FDF714FD0CB010BD4A
:103CA000002C0140DC04002010B58CB024216846B3
:103CB000FCF705FC00241648099414490A94C0E94D
:103CC00000144FF6FF71C0E90241046184610320D2
:103CD000CDE900040120CDE90204CDE90404CDE9D9
:103CE0000604089069460A48FEF708FF08B1FDF788
:103CF000E9FC099409A906480A94FEF72BFE00285E
:103D000001D0FDF7DFFC0CB010BD00000004004046
:103D10002405002010B58AB0002407941C216846B1
:103D20000894FCF7CCFB1B48194901600221C0E94B
:103D3000011440F2E731C0E9031480218161FFF7EB
:103D40001FF908B1FDF7BEFC079407A911480894B4
:103D5000FEF700FE08B1FDF7B5FC6020CDE90004D8
:103D60000294082269460B480494FFF7A6F808B1AC
:103D7000FDF7A8FC0C2269460648FFF79EF808B13B
:103D8000FDF7A0FC0348FFF75BF80AB010BD000088
:103D9000000C00406C0500201CB500240F48009466
:103DA0000D490194016041F61F41C0E9011441F23F
:103DB0008731C16080218161FEF70AFE08B1FDF7FD
:103DC00081FC0094694605480194FEF7C3FD002874
:103DD00001D0FDF777FC1CBD00100040B4050020A9
:103DE0001CB500240F4800940D490194016041F670
:103DF0001F41C0E90114C721C16080218161FEF724
:103E0000E7FD08B1FDF75EFC0094694605480194A2
:103E1000FEF7A0FD002801D0FDF754FC1CBD0000FA
:103E200000140040FC05002010B592B000240F944F
:103E30001C2168461094FCF742FB202107A8FCF7E0
:103E40003EFB2548234901600221C0E9011440F2EC
:103E5000E731C0E903148021C0E90541FFF790F87C
:103E600008B1FDF72FFC0F940FA91B481094FEF723
:103E700071FD08B1FDF726FC6020CDE90004029435
:103E80000394049405940022694613480694FFF7AE
:103E900014F808B1FDF716FC042269460E48FFF736
:103EA0000CF808B1FDF70EFC0794089409944FF440
:103EB00000500A94CDE90B4007A907480E94FEF77D
:103EC0001EFD08B1FDF7FEFB0348FEF7B9FF12B077
:103ED00010BD000000340140440600200C4810B51D
:103EE0000A4901604FF416514160002181600C22A3
:103EF000C160C0E904128161C161FFF7F9FA0028CD
:103F000003D0BDE81040FDF7DDBB10BD0038014017
:103F10008C0600200C4810B50A4901604FF4E131CD
:103F20004160002181600C22C160C0E904128161FE
:103F3000C161FFF7DDFA002803D0BDE81040FDF7AE
:103F4000C1BB10BD00480040D0060020FEE770B5A0
:103F50000D46040001D4002001E04442012001F09C
:103F6000EBFC40F2CA36B44200DD3446002D01DBE2
:103F7000002001E06D42012001F096FCB54200DD19
:103F80003546A0B201F012FDA8B2BDE8704001F0C4
:103F9000C5BCFEE770B50024002104F1B00000F0BC
:103FA00000FD0021084600F0FCFC0021102000F07C
:103FB000F8FC00250121002000F0F3FC6D1CEDB29F
:103FC000802DF7D3641CE4B2082CE5D370BD00004B
:103FD000F8B520287DD017DC0C287BD009DC0C2814
:103FE00079D2DFE800F0FEFDFCFB7878787878780D
:103FF000777714380C28F3D2DFE800F0F9F8F7F6F9
:104000006D6D6D6D6D6DF5F47A287DD034DC7028A2
:1040100061D022DC21285ED100211023FDA20846B8
:1040200000F0A4FC0823FDA20321142000F09EFC54
:104030000823FCA20421142000F098FC0823FBA212
:104040000521142000F092FC0823FAA20621142076
:1040500000F08CFC0823FAA27CE078287CD0792838
:1040600039D100211023F7A2084600F07FFC082375
:104070000421F6A21420E8E0F54C83286DD06FDC13
:104080007B286CD0822826D100211023F1A208467B
:1040900000F06CFCF14CF2A1F548B4F90020FCF7FB
:1040A000E7F8B4F900003221484301F050FF6FF007
:1040B0000104224602F023FBEE4D00222B4601F0C4
:1040C000BFFDED4E0022334601F0BAFD02460B461D
:1040D00002E051E2BEE09FE0E548E8A14030FCF795
:1040E000C7F8EA4FE248EAA1B7F900208030FCF7B0
:1040F000BFF8B7F900003221484301F028FF2246FB
:1041000002F0FDFA002200E02DE12B4601F098FDBF
:104110000022334601F094FD0246D5480B46D7A154
:10412000C030FCF7A5F80823D14A0321002000F095
:104130001DFCCF4A082340320421002000F016FC69
:10414000CB4A082380320521002000F00FFCC84A2A
:104150000823C032062177E002E134E200E005E105
:10416000842870D0852857D1CD48CEA10278C04888
:10417000FCF77EF8CE48CFA10278BD484030FCF76E
:1041800077F8CF48CFA10278B9488030FCF770F8B3
:10419000CF48D0A10278B648C030FCF769F8D048C3
:1041A000D0A10278D248FCF763F800211023D1A2F5
:1041B000084600F0DBFB0823AD4A0221002000F096
:1041C000D5FBAB4A082340320321002000F0CEFB90
:1041D000A74A082380320421002009E0CEE03DE018
:1041E0001BE011E002E1DFE09FE083E067E04BE0ED
:1041F00000F0BCFBBE4A0823403A0521002000F035
:10420000B5FB0823BA4AA5E7BD4800210090082362
:104210008022084600F094FAF8BD1023B9A20021CC
:10422000282000F0A3FB0823B8A20321142000F0EB
:104230009DFB0823B7A20421142000F097FB08235C
:10424000B6A20521CBE0DEE1002001B0BDE8F040E0
:1042500000F08CBB1023B3A20021F5E71023A9A224
:104260000021282000F082FB0823A8A203211420AB
:1042700000F07CFB0823A7A20421142000F076FBA9
:104280000823A6A205216FE100211023A1A2084660
:1042900000F06CFB08236DA20321142000F066FBE4
:1042A00008236AA20421142000F060FB082367A2FF
:1042B0000521142000F05AFB082364A28EE000219F
:1042C000102394A2084600F051FB08235FA20321AB
:1042D000142000F04BFB08235CA20421142000F002
:1042E00045FB082359A20521142000F03FFB0823B9
:1042F00056A238E10021102386A2084600F036FBC2
:10430000082352A20321142000F030FB08234FA2FF
:104310000421142000F02AFB08234CA205211420BC
:1043200000F024FB082349A244E10021102379A2D4
:10433000084600F01BFB082344A20321142000F0D0
:1043400015FB082341A20421142000F00FFB0823D1
:104350003EA20521142000F009FB08233BA275E6CC
:10436000102373A204E0102374A201E0102376A2AC
:104370000021084600F0FAFA102379E6102361A222
:104380000021282000F0F2FA082360A20321142063
:1043900000F0ECFA08235FA20421142000F0E6FAF2
:1043A00008235EA2052106E1002110235BA2084636
:1043B00000F0DCFA082319A20321142000F0D6FA39
:1043C000082318A20421142000F0D0FA082317A211
:1043D0000521142000F0CAFA082316A20621142091
:1043E00000F0C4FA082316A203212DE700211023B0
:1043F0004AA2084600F0BAFA082308A203211420B2
:1044000000F0B4FA082307A20421142000F0AEFA49
:1044100008239FE07465737420340000746573741E
:104420002031000074657374203200006F70656E77
:104430006D7600006772657953656E736F72000068
:104440003E3E00005441534B2032203A0000000011
:10445000200000207465737420313A00440000206D
:104460004D5F456E634E756D3A2025356400000042
:104470001407002000004C40000026407270733A80
:1044800020202020202025322E32660046000020E9
:104490004D325F456E634E756D3A25356400000000
:1044A000210000204C325F56616C3A2025640000E8
:1044B000220000204C315F56616C3A2025640000D8
:1044C000230000204D5F56616C3A202564000000F7
:1044D0002400002052315F56616C3A2025640000B0
:1044E0002500002052325F56616C3A20256400009E
:1044F000140800204772617953656E736F723A0039
:10450000500000204D454E55000000004D505536DE
:10451000303530005441534B000000005445535493
:10452000000000004D505536303530203A00000074
:104530005441534B2031203A000000005441534B6A
:104540002033203A000000005441534B20414C4C92
:10455000203A0000AFF22C120521142000F006FAD8
:104560000823AFF230120621142000F0FFF90823CF
:10457000AFF23412042167E6002110234BA2084653
:1045800000F0F4F90823AFF26C120321142000F0BC
:10459000EDF90823AFF274120421142000F0E6F9BB
:1045A0000823AFF278120521142000F0DFF9082368
:1045B000AFF280120621142000F0D8F90823AFF2E0
:1045C0008012052140E6002110233AA2084600F09F
:1045D000CDF93A48006801F0E3FD02460B4638A1E8
:1045E0003B48FBF745FE3A4822783AA18030FBF77A
:1045F0003FFE0823364A0321002000F0B7F9344A71
:1046000008238032A6E5374837A102783048FBF707
:104610002FFE394839A102682D484030FBF728FEAB
:1046200039483AA102782A488030FBF721FE394800
:1046300039A102782648C030FBF71AFE384839A164
:1046400002783C48FBF714FE3A48227821A140301A
:10465000FBF70EFE0021102337A2084600F086F972
:1046600008231B4A0221002000F080F9184A082381
:1046700040320321002000F079F9154A08238032E6
:104680000421002000F072F92A4A0823403A05214B
:10469000002000F06BF90823264A0621002000F0D4
:1046A00065F9244A082340320721CDE57465737407
:1046B000203300007465737420323A00300000200B
:1046C0004144435F566F6C743A2025322E326600A7
:1046D000140700204C6F61645F666C61673A256463
:1046E0000000000056040020546172676574526F28
:1046F0006F6D3A20256300002C0000204C696E6528
:104700004E756D3A25640000510400204C6F523AFA
:1047100020256400500400204E756D3A2025640069
:104720005304002046696E645461736B3A2025641B
:1047300000000000140800206F70656E6D763A006E
:104740002DE9F04798461746824600260C46DDF8CC
:10475000209011E02146504600F0AFF8554607E0A2
:1047600019F806000121761C00F01BF96D1CEDB252
:10477000BD42F5D3641CE4B24445EBD3BDE8F087F9
:10478000124800B5816985B041F480718161816909
:1047900001F480710491816941F020018161806997
:1047A000694600F0200004904FF400500090012072
:1047B0000190032003900648FDF76EFB082000904F
:1047C00069460448FDF768FB05B000BD00100240D3
:1047D000002001400014014010B5FFF7D1FF002177
:1047E000AE2000F0DEF80021084600F0DAF80021E3
:1047F000102000F0D6F80021402000F0D2F800216F
:10480000B02000F0CEF80021812000F0CAF800218D
:10481000FF2000F0C6F80021A12000F0C2F800211E
:10482000A62000F0BEF80021A82000F0BAF8002170
:104830003F2000F0B6F80021C82000F0B2F80021B7
:10484000D32000F0AEF80021084600F0AAF80021BD
:10485000D52000F0A6F80021802000F0A2F8002169
:10486000D82000F09EF80021052000F09AF80021E1
:10487000D92000F096F80021F12000F092F80021F4
:10488000DA2000F08EF80021122000F08AF80021D2
:10489000DB2000F086F80021302000F082F80021B3
:1048A0008D2000F07EF80021142000F07AF800211D
:1048B000BDE81040AF2000F074B810B50A460446B9
:1048C000002102F1B00000F06CF8102040EA141052
:1048D000002100F066F804F00F00BDE81040002150
:1048E00000F05FB82DE9F041203A00240D468046E3
:1048F000D6B27F2803D900208D1C8046EDB2102B44
:10490000294610D0FFF7D9FF164906EB460001EB08
:1049100040050121285D00F044F8641CE4B2062C37
:10492000F7D3BDE8F081FFF7C8FF0F4F04EB061087
:104930000121385C00F035F8641CE4B2082CF5D392
:104940006D1CE9B24046FFF7B8FF002404EB0610E7
:1049500038440121007A00F024F8641CE4B2082CE9
:10496000F4D3DEE7EE670008166A00082DE9F0418F
:10497000984617460E46044600250DE0434631464C
:104980002046FFF7AFFF0834E4B2782C02D90024A8
:10499000B61CF6B26D1CEDB27A5D002AEED1BDE810
:1049A000F081C0B209B100F010BC00F0F7BB00000C
:1049B000F0B52B4901260A460F7AD479294B621C9F
:1049C000D5B2002237B1012F08D0022F19D0032F02
:1049D00030D005E02C2803D10E720EE012280AD048
:1049E0000A72CA715FF0000023F81020401CC0B2A8
:1049F0000A28F9D3F0BD02220A7223F81400CD71FF
:104A0000F0BD23F81400CD710A2D01D25B28F7D137
:104A10000320087203EB45004E7210F80A2D0A704D
:104A200082784A7002798A708079C8700869401C5F
:104A30000861F0BD03EB440030F8020C5B280AD09B
:104A40000A72CA715FF0000023F81020401CC0B247
:104A50000A28F9D3F0BD4A72CA710A72F0BD00008B
:104A60005004002094080020144910B5002008606C
:104A700048608860C860124AC861C1E90420886142
:104A80004039104B086048608860C8600B610E4C6C
:104A9000C861C1E905406031086048608860C8604D
:104AA000C861C1E9042088614039086048608860B5
:104AB000C8600B61C861C1E9054010BDE80800206D
:104AC0008FC2753E000020419A9919407047704787
:104AD00070B50B4D00244FF47A7609486B7B6A79E8
:104AE00008A11430FBF7C4FB0549334604221431F6
:104AF0000648FEF7CBFD641CE4B2042CEDD970BD72
:104B0000500400202A25642564260000D0060020D9
:104B10001A4802218278012A01D0B2B101E002785C
:104B20000273027B012A15D0022A15D0032A02D370
:104B3000472282714171027B092A1DD2DFE802F00F
:104B40001C0E1B10121416181A0000220273827217
:104B50000271F0E74122ECE74222EAE701210AE094
:104B6000032108E0042106E0052104E0062102E01B
:104B7000072100E008214173704700005004002025
:104B8000174910B50878174B401CC0B208701A8836
:104B9000521C1A80144B1A88521C1A80134A12781D
:104BA000012A03D1124B1A88521C1A80114A12781A
:104BB000012A03D1104B1A88521C1A800A2802D3EA
:104BC0000020087005E0012803D1FCF701FDFEF785
:104BD0001FFFFDF775FABDE81040FDF78ABE000023
:104BE00006000020020000200400002068040020CD
:104BF0006A040020AA040020A804002030B595B063
:104C000028216846FBF75BFC14210AA8FBF757FC38
:104C100018210FA8FBF753FC01210804CDE900106F
:104C20000025029502240491CDE907404FF4E010DD
:104C300009906846FDF7ACFC08B172B6FEE70AA918
:104C40000F2081E831004FF48060CDE90D0502218D
:104C50000AA8FDF7B1FB08B172B6FEE74FF40040B9
:104C600011900F940FA8FDF731FB002801D072B608
:104C7000FEE715B030BD70470148FEF72DB80000C3
:104C8000B40500200148FEF727B80000FC0500200D
:104C9000F0B502681C4B1D4D1D4E1E4F1E4C4FF0B3
:104CA000804C984209D0A04207D0604505D0A84268
:104CB00003D0B04201D0B84204D122F0700E4A684D
:104CC00042EA0E02984209D0A04207D0604505D0C2
:104CD000A84203D0B04201D0B84203D122F44075BB
:104CE000CA682A434D6922F080022A4302608A681A
:104CF000C2620A688262984201D0A04201D1096969
:104D0000016301214161F0BD002C0140000400401D
:104D100000080040000C00400034014010B501F0D4
:104D20001F030121046A99408C430462016A9A407E
:104D30001143016210BD0000F0B5026A22F00102C9
:104D40000262036A42688469124E24F073050C689B
:104D50002C4323F002058B682B430D4DA84201D054
:104D6000B04205D123F00807CB683B4323F004038E
:104D7000A84201D0B04205D14D6922F440721543DA
:104D80008A692A4342608461496841630362F0BDD5
:104D9000002C014000340140F0B5026A22F01002FC
:104DA0000262026A436884690D6824F4E64444EAB6
:104DB00005248D6822F0200242EA05120F4D104EA4
:104DC000A84201D0B04206D1CF6822F0800242EA68
:104DD000071222F04002A84201D0B04207D14D692B
:104DE00023F4406343EA85038D6943EA8503436006
:104DF0008461496881630262F0BD0000002C0140BB
:104E000000340140F0B5026A22F480720262026A44
:104E10004368C46922F4007224F073050C68124ED2
:104E20002C438D6842EA05220E4DA84201D0B042C3
:104E300006D1CF6822F4006242EA072222F480629F
:104E4000A84201D0B04207D14D6923F4405343EA50
:104E500005138D6943EA05134360C4614968C16362
:104E60000262F0BD002C01400034014030B5026AFE
:104E700022F480520262046A4268C3690D6823F416
:104E8000E64343EA05238D6824F4005444EA0534DC
:104E9000084DA84202D0084DA84204D14D6922F421
:104EA000804242EA85124260C3614968016404623B
:104EB00030BD0000002C01400034014010B5406AB4
:104EC0000021C185C184FEF70BFA10BD0168CA68D4
:104ED00022F49072CA6001684A6922F001024A61B4
:104EE000016B012904D10168CA6822F01002CA606E
:104EF000202180F83E1000210163704708B590F82A
:104F00003E10222901D0022008BD82684FF4805350
:104F10009A4201D1016921B1816A9A421BD04AB1FA
:104F20000AE00268816A5268C2F308020A80816A54
:104F3000891C08E0026972B10268526802F07F02BF
:104F40000A70816A491C8162C18D491E0904090CDD
:104F5000C18503D019E002685268F1E70168CA68A8
:104F600022F02002CA600168CA6822F48072CA6016
:104F700001684A6922F001024A61202180F83E104E
:104F8000016B012903D0FEF769FB002008BD002159
:104F900001630168CA6822F01002CA6001680A68E9
:104FA000D20602D50A6849680091818DFEF797F90B
:104FB000EBE7000070B5044600680169E26821F47F
:104FC0004051114301612169A068084361690843A8
:104FD0002168CA6841F20C639A430243CA602068A0
:104FE0004169A26921F44071114341611E49206861
:104FF000884202D1FDF786FA01E0FDF773FA00EB73
:10500000C00101EB0012606864218000B2FBF0F384
:10501000B3FBF1F36FF018067343B2FBF0F5B2FB8C
:10502000F0F605EB8305322303EB0515B5FBF1F52F
:10503000B6FBF1F605F0F00505EB0615B2FBF0F650
:10504000B2FBF0F0B0FBF1F06FF01802504306EB4A
:10505000800003EB0010B0FBF1F0216800F00F00BE
:105060002844886070BD000000380140816282855C
:10507000C28500210164222280F83E2080F83C1085
:105080000168CA6842F48072CA6001684A6942F0E5
:1050900001024A610068C16841F02001C16000203E
:1050A00070472DE9F041984617460E460446069D86
:1050B0001DE0681C1BD02DB1FCF7FCFFA0EB080025
:1050C000A84214D92068C16821F4D071C160206859
:1050D000416921F001014161202084F83D0084F8FC
:1050E0003E00002084F83C000320BDE8F0812068E9
:1050F000006836EA000004D00020B842D9D0002071
:10510000F3E70120F9E700000148FEF7EBB80000E3
:105110008C0600200148FEF7E5B80000D00600200C
:10512000FEE7000001B54FF47A7301226946024898
:10513000FEF7ACFA08BD00008C0600202DE9F04116
:10514000144E0446002208213046FCF7AEFF00252D
:10515000DFF84480771400BF04F08000802816D068
:10516000002239464046FCF7A0FF6006040E0122EB
:1051700008213046FCF799FF002208213046FCF751
:1051800094FF6D1CEDB2082DE6D3BDE8F08101223D
:10519000E7E70000001401400020014010B504467C
:1051A000FEF7D0FA7820FFF7C9FFFEF703FB0020D7
:1051B000FFF7C4FFFEF7FEFA2046FFF7BFFFFEF73A
:1051C000F9FABDE81040FEF7DBBA10B50446FEF769
:1051D000B9FA7820FFF7B2FFFEF7ECFA4020FFF7AC
:1051E000ADFFFEF7E7FA2046FFF7A8FFFEF7E2FA69
:1051F000BDE81040FEF7C4BA490050EAC12018BF0C
:1052000004204A0D18BF40F0010040F2FF72B2EBDB
:10521000515F08BF40F00200012808BF0520704719
:105220000907090E002804DB00F1E02080F80014D3
:10523000704700F00F0000F1E02080F8141D704767
:1052400030380A2801D20120704700207047000042
:1052500010B504460420FDF72BFB0148046010BD87
:105260006C04002070B5054600244FF47A7603E004
:10527000304600F005F8641CAC42F9D370BD000064
:1052800070B54FF0E024002265690949A3690968F7
:105290004843A1699942FCD002D2A3EB010302E08A
:1052A000A5EB010633441A440B468242F1D370BD8C
:1052B0006C040020084810B5006801F02DF8014684
:1052C000064800F02BF80649884202DC054988426E
:1052D00000D9084610BD00004C000020080900203D
:1052E0000000F0420000F0C2084810B5006801F06C
:1052F00013F80146064800F011F80649884202DC1E
:105300000549884200D9084610BD00004800002029
:10531000E80800200000F0420000F0C22DE9F04152
:105320000446006801F042F90546A0602946E0699C
:1053300000F062FFE06107462846E16801F036F9B7
:10534000A16901F035F806463946606901F030F888
:1053500007462946206901F02BF8394600F04CFF3A
:10536000314600F049FFE5606060BDE8F081000073
:10537000FCF7AEFEFEF778FAFEF72CFAFFF73EFCDC
:105380004820FFF765FFFEF7D5FBFEF78DFCFEF723
:1053900055FCFEF7BFFCFEF747FDFEF7FDFCFEF7F0
:1053A0001FFDFEF7B7FDFEF79DFBFEF797FDF748E3
:1053B000FCF7E4F93C21F648FDF746FC3C21F548B2
:1053C000FDF742FC0821F448FDF72AFE0C21F248C3
:1053D000FDF726FE0821F148FDF722FE0C21EF48DB
:1053E000FDF71EFE6420FFF73DFFFFF7F5F964208F
:1053F000FFF738FFFEF7CEFDFFF736FBE848FDF775
:1054000047FBE848FDF744FB0122E749E748FEF780
:105410000FF9E7480068C16841F02001C160DFF87A
:105420009483E54FDFF894A3E54E00254FF0020B7F
:105430004FF00309E34CA088152804D3A580FFF79B
:1054400047FBFCF7ABF86088C82806D3DE486580C8
:105450000078FEF7BDFDFEF76FFADC480078012802
:1054600021D00228E6D1DA48007801281ED002288F
:10547000E0D13878412877D0422876D0432875D0BB
:10548000442874D0452873D0462872D0472871D05C
:105490004828CFD160780728CCD2DFE800F0F2F1BD
:1054A000F0EFEEEDEC00FFF733FBC3E7387841286F
:1054B0000BD0422823D021780929BBD2DFE801F0A4
:1054C000303463909DA3F6F40C002078F0B10128ED
:1054D00019D106E00328ADD130780128AAD10122E4
:1054E00006E130780128A5D184F800B083E000BF40
:1054F0009AF8000001289DD184F80090EEE0207811
:1055000020B1012806D00228F2D0E3E70120207064
:105510005220A6E1307801288CD184F800B068E0F0
:10552000012020707B209CE13078012882D1A9489D
:1055300001210170B8F80000B0F5FA7F1FD2A6482B
:105540000178A6480078814203D1A54A1278012A41
:1055500011D08142A9D1A24800780228A5D1062005
:1055600020704420387033E0BAE0DAE0F4E03BE148
:105570004AE163E178E1062020704320F2E784F8F5
:1055800000B0592025E0307801288ED191480121C2
:105590000170B8F80000B0F5FA7F17D28E488F4935
:1055A00000780978884203D18D4A1278012A09D0FF
:1055B000884290D18A48007802288CD184F80090E3
:1055C0004720CFE784F800904520CBE784F800908F
:1055D0003020FCF735F87F48A8F80050057029E71F
:1055E00031780129FBD104212170452803D04728B7
:1055F000F5D10120C2E00020C0E09AF800000128A7
:10560000EDD1052069E031780129E8D17149012205
:105610000A70B8F80010B1F5FA7F3BD2452816D0D1
:105620004728DCD16C486D4900780978884203D15D
:105630006B4A1278012A29D08842D0D16848007874
:105640000228CCD1062020704820387024E062481F
:10565000624900780978884203D1614A1278012AA8
:1056600010D08842BBD15E4800780228B7D106200E
:1056700020704620E9E713E10DE101E106E160E079
:1056800038E073E0062020704520DEE70620207019
:105690004720DAE7062020703020FBF7D1FF4D4885
:1056A0000570A8F80050C5E612E0FFE7317801293F
:1056B00095D10721217043289DD045289BD04728AC
:1056C00099D0442895D0462893D0482887D190E790
:1056D0009AF800000128E6D1082020702920C0E0B7
:1056E00061780529DFD2DFE801F025050C32DB0007
:1056F000022112E09AF800000128D4D184F801B008
:10570000ECE730780128CED184F8019071E70420CD
:1057100060703C20A5E0012204213248FCF7C5FC62
:1057200088E660780528BED2DFE800F004030B119C
:10573000BA00DFE701206070022000F0CFF90022FC
:10574000D6E730780128AED184F8019053E79AF873
:1057500000000128A7D1DAE760780528A3D2DFE8A6
:1057600000F00504034E9F00CBE7C3E70120607003
:10577000002202211B48FCF798FC022000F0AEF941
:1057800058E60420607094206BE00000AC04002018
:1057900024050020DC0400206C05002044060020C5
:1057A000FC050020B40500205B040020D00600208A
:1057B0008C0600206A040020560400207704002094
:1057C0007804002000000020400000205504002044
:1057D00020000020680400205C0400205D040020FC
:1057E00051040020001001406078052898D2DFE8BD
:1057F00000F0050403065700A3E77BE7B6E79AF835
:10580000000001288CD1BCE76078072888D2DFE847
:1058100000F00605043D0B42470072E76AE7A5E782
:10582000042060705A201CE030780128A8D105209F
:105830006070DEE606206070EE2012E060780728D7
:105840009ED2DFE800F00607052304282D00EBE7D1
:1058500077E78BE79AF80000012891D184F801B02E
:105860002820FBF7EDFEE5E56078072888D2DFE821
:1058700000F00605040D0712170042E73AE775E746
:1058800030780128EFD105206070B4E69AF8000066
:105890000128E8D1C4E79AF800000128E3D1C9E75C
:1058A00030780128DFD136E7084910B58870074AFB
:1058B00007490024D3890A6818B1946308684363D0
:1058C00010BD93630868446310BD0000700400209D
:1058D00044060020064910B500200871042105483F
:1058E000FDF7F8FBBDE8104000210248FDF7F2BBD0
:1058F0007004002044060020064910B501200871FC
:1059000004210548FDF78CFBBDE81040002102484A
:10591000FDF786BB70040020440600200449C881BE
:105920008A78044909680AB14863704788637047F8
:105930007004002044060020084910B54870074A4A
:105940000749002493890A6818B1D463086803647E
:1059500010BDD3630868046410BD0000700400200B
:105960006C050020064910B50020C87008210548C4
:10597000FDF7B0FBBDE810400C210248FDF7AABBC3
:10598000700400206C050020064910B50120C87085
:1059900008210548FDF744FBBDE810400C210248F2
:1059A000FDF73EBB700400206C050020044988818F
:1059B0004A78044909680AB108647047C8637047A7
:1059C000700400206C050020016070470D4810B580
:1059D000B0F9000000F0BBFA00220B4B00F0E2FA35
:1059E00000220A4B00F0DEFA0022094B00F028F9F1
:1059F00000F07EFA00F090FC0146BDE8104005483A
:105A000000F030B84600002000408F4000004E40BB
:105A10000010E840C80800200D4810B5B0F900009B
:105A200000F095FA00220B4B00F0BCFA00220A4B62
:105A300000F0B8FA0022094B00F002F900F058FA21
:105A400000F06AFC0146BDE81040054800F00AB8C5
:105A50004400002000408F4000004E400010E8400D
:105A6000A80800202DE9F0410446006800F09EFDE2
:105A7000A060B0F17C5F04DAB0F13F4F01D20020AA
:105A8000A06001460D46E06900F0B6FB1149E061F7
:105A9000884202DA1049884200D9E1612846E1686B
:105AA00000F084FDA16900F083FC0646E1696069AD
:105AB00000F07EFC07462946206900F079FC394653
:105AC00000F09AFB314600F097FBE5606060BDE8AE
:105AD000F081000000007A4400007AC42DE9F04112
