:020000040800F2
:10000000D004002045010008850B000823050008E6
:100010006D0900088D01000861270008000000003C
:10002000000000000000000000000000651400084F
:100030009101000800000000F90B00087915000884
:100040005F0100085F0100085F0100085F01000810
:100050005F0100085F0100085F0100085F01000800
:100060005F0100085F0100085F0100085F010008F0
:100070005F0100085F0100085F0100085F010008E0
:100080005F0100085F0100085F0100085F010008D0
:100090005F0100085F0100085F010008950100088A
:1000A0005F0100085F0100085F0100085F010008B0
:1000B0005F0100085F0100085F0100085F010008A0
:1000C0005F0100085F0100085F0100085F01000890
:1000D0005F010008892400085F010008B5240008BA
:1000E0005F0100085F0100085F0100085F01000870
:1000F0005F0100085F0100085F0100085F01000860
:100100005F0100085F0100085F0100085F0100084F
:100110005D2400085F010008591800085F0100080D
:100120005F0100085F0100085F0100085F0100082F
:10013000DFF80CD000F018F800480047312900081B
:10014000D00400200648804706480047FEE7FEE747
:10015000FEE7FEE7FEE7FEE7FEE7FEE7FEE7FEE777
:10016000B915000831010008064C074D06E0E068AB
:1001700040F0010394E8070098471034AC42F6D3EE
:10018000FFF7DAFF282A0008482A000800BFFEE728
:100190007047000010B54FF4807000F013F801288C
:1001A00002D16420034908704FF4807000F004F815
:1001B00010BD0000B4000020014908607047000035
:1001C00014040140014600200022074B1B6803EA8B
:1001D0000102054B14331B680B4013B10AB1012017
:1001E00000E00020704700000004014010B500F05E
:1001F00003F800F047F810BD00B587B001210420D6
:1002000001F0B6F80121022001F0A2F8C020ADF8FB
:10021000180004208DF81B0006A9184800F0F4F817
:1002200003A802F091F80020ADF80C004FF6FF7023
:10023000ADF810000020ADF81200ADF80E0003A9D3
:100240000F4802F02FF802231A4603210C4801F050
:10025000A3FE684601F02CFF0A20ADF808006946AD
:10026000074801F0CFFE0021054801F0ECFF012115
:10027000034801F076FE07B000BD00000008014011
:100280000004004000B587B00121082001F070F89B
:100290000121042001F05CF8C020ADF81800042012
:1002A0008DF81B0006A9184800F0AEF803A802F06C
:1002B0004BF80020ADF80C004FF6FF70ADF81000C1
:1002C0000020ADF81200ADF80E0003A90F4801F0B0
:1002D000E9FF00231A4603210C4801F05DFE684641
:1002E00001F0E6FE0A20ADF808006946074801F073
:1002F00089FE0021054801F0A6FF0121034801F015
:1003000030FE07B000BD0000000C014000080040B6
:1003100070B50546032D02D0042D12D108E00B481C
:1003200001F05BFE04B20021084801F08CFF0AE0F6
:10033000074801F052FE04B20021054801F083FF96
:1003400001E0002400BF00BF204670BD0004004053
:10035000000800402DE9FC4141F67E5640F6B835D4
:100360006FF0130724480068B0F5FA5F02DD002043
:1003700000900190002021490880214890F9000058
:10038000784304B2281900B20190281B00B20090F3
:1003900001A800F0A9FB684600F0A6FB0320FFF7C8
:1003A000B7FF80460420FFF7B3FF404412490968B5
:1003B00008441149086008460068B04206DABDF9F1
:1003C0000010BDF9040000F0A3FB13E00D4908463E
:1003D00000F09EFB462002F085FA0021084600F05E
:1003E00097FB002004490860642002F07BFA01209A
:1003F000BDE8FC810020FBE734000020B6000020AF
:10040000C400002024FAFFFF2DE9F0410246002538
:100410000026002000230024002791F803C00CF0E0
:100420000F0591F803C00CF0100CBCF1000F03D0C5
:1004300091F802C04CEA050591F800C0BCF1000F2C
:1004400031D0146800202BE04FF0010C0CFA00F3BF
:10045000B1F800C00CEA03069E4220D183004FF0A1
:100460000F0C0CFA03F7BC4305FA03FC4CEA040436
:1004700091F803C0BCF1280F06D14FF0010C0CFA23
:1004800000FCC2F814C00AE091F803C0BCF1480FA8
:1004900005D14FF0010C0CFA00FCC2F810C0401C52
:1004A0000828D1D31460B1F800C0BCF1FF0F34DDCF
:1004B000546800202EE000F1080C4FF0010808FA03
:1004C0000CF3B1F800C00CEA03069E4221D1830070
:1004D0004FF00F0C0CFA03F7BC4305FA03FC4CEA8F
:1004E000040491F803C0BCF1280F05D100F1080CF9
:1004F00008FA0CF8C2F8148091F803C0BCF1480F58
:1005000007D100F1080C4FF0010808FA0CF8C2F806
:100510001080401C0828CED35460BDE8F0810161F2
:10052000704700BFFEE7000070B540F64E44032060
:10053000FFF7EEFE45420420FFF7EAFE2844124989
:10054000096808441049086008460068A04205DCB4
:1005500040F6B831484200F0DBFA12E00B4948425D
:1005600000F0D6FA462002F0BDF90021084600F05E
:10057000CFFA002004490860642002F0B3F901209A
:1005800070BD0020FCE700006400002024FAFFFF9B
:1005900070B540F20E640320FFF7BAFE4542042016
:1005A000FFF7B6FE2844124909680844104908605C
:1005B00008460068A04205DC40F6B831484200F029
:1005C000A7FA12E00B49484200F0A2FA462002F0D6
:1005D00089F90021084600F09BFA002004490860D0
:1005E000642002F07FF9012070BD0020FCE70000CC
:1005F0005000002024FAFFFF70B540F2DC540320C5
:10060000FFF786FE45420420FFF782FE2844114989
:10061000096808440F49086008460068A04204DCE5
:100620006100484200F074FA12E00B49484200F0C1
:100630006FFA462002F056F90021084600F068FAE9
:10064000002004490860642002F04CF9012070BDCC
:100650000020FCE75400002024FAFFFF70B540F2B0
:100660000E640320FFF754FE45420420FFF750FEBE
:10067000284412490968084410490860084600687F
:10068000A04205DC40F6B831484200F041FA12E0E1
:100690000B49484200F03CFA462002F023F90021C1
:1006A000084600F035FA002004490860642002F092
:1006B00019F9012070BD0020FCE70000480000206F
:1006C00024FAFFFF70B54FF4C8640320FFF720FE43
:1006D00045420420FFF71CFE2844124909680844DB
:1006E0001049086008460068A04205DC40F6B831B1
:1006F000484200F00DFA12E00B49484200F008FAB7
:10070000462002F0EFF80021084600F001FA002030
:1007100004490860642002F0E5F8012070BD002063
:10072000FCE700004400002024FAFFFF70B54FF4FE
:10073000C8640320FFF7ECFD45420420FFF7E8FD05
:1007400028441249096808441049086008460068AE
:10075000A04205DC4FF4FA61484200F0D9F912E0FA
:100760000B49484200F0D4F9462002F0BBF80021C2
:10077000084600F0CDF9002004490860642002F02A
:10078000B1F8012070BD0020FCE700004C00002003
:1007900024FAFFFF70B5154C0320FFF7B9FD454261
:1007A0000420FFF7B5FD28441149096808441049A1
:1007B000086008460068A04204DD6100484200F07D
:1007C000A7F910E040F2DC51484200F0A1F94620C0
:1007D00002F088F80021084600F09AF90020044948
:1007E0000860012070BD0020FCE7000024FAFFFF34
:1007F0005C00002070B5154C0320FFF789FD4542D1
:100800000420FFF785FD2844114909680844104970
:10081000086008460068A04204DD0E49484200F026
:1008200077F910E040F2DC51484200F071F94620BF
:1008300002F058F80021084600F06AF90020044947
:100840000860012070BD0020FCE7000042FAFFFFB5
:100850006000002048F4FFFF08B50121042000F0EB
:1008600087FD4FF40060ADF8000028208DF80300EC
:1008700069460248FFF7C8FD08BD000000080140B6
:1008800010B507480068012807D10A2002F02AF8AD
:1008900003480068012800D110BD0020FCE70000DB
:1008A0002C01214208B50121342000F061FD4FF4F4
:1008B0008070ADF8000010208DF8030003208DF843
:1008C000020069462348FFF79FFD4FF480712148DD
:1008D000FFF725FE0420ADF8000069461E48FFF72B
:1008E00093FD04211C48FFF71AFE4FF40040ADF8B9
:1008F000000069461948FFF787FD4FF4004117488B
:10090000FFF70DFE4FF40050ADF8000069461348A4
:10091000FFF77AFD4FF400511048FFF700FE022068
:10092000ADF8000069460D48FFF76EFD02210B4847
:10093000FFF7F5FD00200A49086009490831086001
:1009400007493039086001200649086006490860F7
:1009500008BD0000000801400014014000100140E3
:10096000B401224288812242A001214200BFFEE759
:1009700030B589B005460C460121042000F0F8FC92
:100980000121082000F0F4FC0121102000F0F0FC0F
:100990000121084600F0DCFC0121084600F0E8FCDB
:1009A0002020ADF8040003208DF8060010208DF8FB
:1009B000070001A94548FFF727FD1020ADF8040006
:1009C00003208DF8060010208DF8070001A93F488C
:1009D000FFF71AFD0120ADF8040003208DF8060092
:1009E00010208DF8070001A93948FFF70DFD0220FE
:1009F000ADF8040003208DF8060010208DF80700E4
:100A000001A93348FFF700FD002032490860324950
:100A1000C1F89401314908603149C1F880010120D1
:100A2000ADF8040003208DF8060018208DF80700AB
:100A300001A92C48FFF7E8FC0220ADF804000320D0
:100A40008DF8060018208DF8070001A92548FFF74A
:100A5000DBFCA8B2ADF81C00ADF818400020ADF8E2
:100A60001E00ADF81A0006A94FF0804001F01AFCF4
:100A70006020ADF808000020ADF810000120ADF8AE
:100A80000A0002A9800701F025FB0821C80601F031
:100A90006DFB02A94FF0804001F072FB0821C806EF
:100AA00001F0C0FB0121880701F04CFA0121880701
:100AB00001F057FA00214FF0804001F0C0FB002107
:100AC0004FF0804001F0BDFB09B030BD0010014087
:100AD000000C014090012242000022428481214208
:100AE0000080214200080140B0F9001041F270720C
:100AF000914202DD1146018007E0B0F90010034A7F
:100B0000914202DA4EF690010180704790E8FFFFB3
:100B100070B504460D46002C07DB0020154908601F
:100B200001201549C1F8900107E001201149086032
:100B300000201149C1F890016442002D07DB00201C
:100B40000E49086001200E49C1F8840107E0012028
:100B50000A49086000200A49C1F884016D42A9B21F
:100B60004FF0804001F06BFBA1B24FF0804001F0EC
:100B700068FB70BD94012242000022428081214224
:100B8000008021427047000070B5002100230F2231
:100B9000C47804B3154C246804F4E064C4F5E0643C
:100BA000210AC1F10403CA40447804FA03F18478AD
:100BB0001440214309010E4C0678A155047804F035
:100BC0001F050124AC4005786D11AD0005F1E0254D
:100BD000C5F8004109E0047804F01F050124AC4089
:100BE000044D0678761145F8264070BD0CED00E006
:100BF00000E400E080E100E0704700002DE9FC41E6
:100C000043F2C82640F6B8346FF0130700201E499F
:100C100008801E4991F9001007FB01F56019019049
:100C2000601B009001A8FFF75FFF6846FFF75CFFBD
:100C30000320FFF76DFB80460420FFF769FB40446B
:100C40001349096808441249086008460068B04220
:100C500006D2BDF90010BDF90400FFF759FF10E0FE
:100C60000C490846FFF754FF462001F03BFE0021E7
:100C70000846FFF74DFF0020054908600120BDE848
:100C8000FC810020FBE70000B6000020C40000202B
:100C90009C0000205CF9FFFF2DE9F04141F2941423
:100CA0004FF4FA656FF01306002016490880032000
:100CB000FFF72EFB07460420FFF72AFB38441249B2
:100CC000096808441049086008460068A04205D237
:100CD00040F6B8310846FFF71BFF10E00B49084605
:100CE000FFF716FF462001F0FDFD00210846FFF743
:100CF0000FFF0020044908600120BDE8F0810020BA
:100D0000FBE70000B60000208800002024FAFFFF67
:100D100070B541F294140320FFF7FAFA0546042057
:100D2000FFF7F6FA28441049096808440E4908609C
:100D300008460068A04205D240F6B8310846FFF7E1
:100D4000E7FE0FE009490846FFF7E2FE462001F002
:100D5000C9FD00210846FFF7DBFE002002490860BC
:100D6000012070BD0020FCE7A000002024FAFFFF56
:100D700070B541F224340320FFF7CAFA0546042077
:100D8000FFF7C6FA28441049096808440E4908606C
:100D900008460068A04205D240F6B8310846FFF781
:100DA000B7FE0FE009490846FFF7B2FE462001F002
:100DB00099FD00210846FFF7ABFE002002490860BC
:100DC000012070BD0020FCE7A400002024FAFFFFF2
:100DD00070B54FF496540320FFF79AFA05460420A5
:100DE000FFF796FA28441049096808440E4908603C
:100DF00008460068A04205D240F6B8310846FFF721
:100E000087FE0FE009490846FFF782FE462001F001
:100E100069FD00210846FFF77BFE002002490860BB
:100E2000012070BD0020FCE7AC00002024FAFFFF89
:100E30002DE9FC4141F25C2640F6B8346FF013070F
:100E400000201F4908801F4991F9001007FB01F598
:100E500060190190601B009001A8FFF745FE6846ED
:100E6000FFF742FE0320FFF753FA80460420FFF706
:100E70004FFA404414490968084413490860084679
:100E80000068B04206D2BDF90010BDF90400FFF7BA
:100E90003FFE13E00D490846FFF73AFE462001F0F9
:100EA00021FD00210846FFF733FE002006490860B7
:100EB000642001F017FD0120BDE8FC810020FBE764
:100EC000B6000020C40000208000002024FAFFFFAC
:100ED00070B541F2EC340320FFF71AFA05460420FE
:100EE000FFF716FA28441049096808440E490860BB
:100EF00008460068A04205D240F6B8310846FFF720
:100F000007FE0FE009490846FFF702FE462001F000
:100F1000E9FC00210846FFF7FBFD002002490860BC
:100F2000012070BD0020FCE7A800002024FAFFFF8C
:100F30002DE9FC4147F6181641F288356FF022077B
:100F40000020234908802348006847F2481188425E
:100F500001DD4FF4FA65204890F90000784304B2AF
:100F6000281900B20190281B00B2009001A8FFF7D9
:100F7000BBFD6846FFF7B8FD0320FFF7C9F98046BF
:100F80000420FFF7C5F94044124909680844114993
:100F9000086008460068B04206DABDF90010BDF9E5
:100FA0000400FFF7B5FD10E00C490846FFF7B0FD5F
:100FB000462001F097FC00210846FFF7A9FD00201C
:100FC000044908600120BDE8FC810020FBE7000027
:100FD000B600002018000020C400002024FAFFFF03
:100FE0002DE9FC4148F2985641F288346FF022070F
:100FF000002025490880254991F9001007FB01F5DB
:101000002348006848F2E801884202DD4FF4FA64A0
:101010000025601900B20190601B00B2009001A889
:10102000FFF762FD6846FFF75FFD0320FFF770F9E9
:1010300080460420FFF76CF94044154909680844CC
:101040001349086008460068B04206DABDF900108E
:10105000BDF90400FFF75CFD13E00E490846FFF7F9
:1010600057FD462001F03EFC00210846FFF750FDE9
:10107000002007490860642001F034FC0120BDE82D
:10108000FC810020FBE70000B6000020C400002027
:101090001400002030F8FFFF70B541F294140320D3
:1010A000FFF736F905460420FFF732F928441349C3
:1010B000096808441149086040F6B8310846FFF74E
:1010C00027FD0E480068A04205DA40F6B831084610
:1010D000FFF71EFD0FE00A490846FFF719FD4620FD
:1010E00001F000FC00210846FFF712FD0020034933
:1010F0000860012070BD0020FCE700002C000020EB
:1011000024FAFFFF70B541F2CC040320FFF700F989
:1011100005460420FFF7FCF82844134909680844F1
:101120001149086040F6B8310846FFF7F1FC0E4857
:101130000068A04205DA40F6B8310846FFF7E8FC3F
:101140000FE00A490846FFF7E3FC462001F0CAFB1E
:1011500000210846FFF7DCFC00200349086001205D
:1011600070BD0020FCE700003000002024FAFFFFE3
:1011700070B541F2F8140320FFF7CAF805460420C1
:10118000FFF7C6F828441349096808441149086064
:1011900040F6B8310846FFF7BBFC0E480068A04295
:1011A00005DA40F6B8310846FFF7B2FC0FE00A490D
:1011B0000846FFF7ADFC462001F094FB00210846ED
:1011C000FFF7A6FC002003490860012070BD002045
:1011D000FCE700002000002024FAFFFF70B541F278
:1011E00030140320FFF794F805460420FFF790F829
:1011F00028441349096808441149086040F6B83189
:101200000846FFF785FC0E480068A04205DA40F664
:10121000B8310846FFF77CFC0FE00A490846FFF7A3
:1012200077FC462001F05EFB00210846FFF770FCCA
:10123000002003490860012070BD0020FCE7000089
:101240002400002024FAFFFF70B541F2621403204D
:10125000FFF75EF805460420FFF75AF828441349C3
:10126000096808441149086040F6B8310846FFF79C
:101270004FFC0E480068A04205DA40F6B831084637
:10128000FFF746FC0FE00A490846FFF741FC4620FD
:1012900001F028FB00210846FFF73AFC0020034933
:1012A0000860012070BD0020FCE70000280000203D
:1012B00024FAFFFF2DE9FC4141F69C0640F6B834C4
:1012C0006FF0130700201E4908801E4991F9001095
:1012D00007FB01F560190190601B009001A8FFF762
:1012E00003FC6846FFF700FC0320FFF711F8804677
:1012F0000420FFF70DF840441349096808441249D7
:10130000086008460068B04206DABDF90010BDF971
:101310000400FFF7FDFB10E00C490846FFF7F8FB5F
:10132000462001F0DFFA00210846FFF7F1FB00201C
:10133000054908600120BDE8FC810020FBE70000B2
:10134000B6000020C4000020980000205CF9FFFFD8
:1013500029B1064AD2690243044BDA6104E0034A28
:10136000D2698243014BDA617047000000100240ED
:1013700029B1064A92690243044B9A6104E0034A88
:1013800092698243014B9A6170470000001002404D
:1013900030B500210022002400232D4D6D6805F09A
:1013A0000C0121B1042905D0082923D105E0294DDC
:1013B000056022E0274D05601FE0254D6D6805F4AE
:1013C0007012234D6D6805F48034022505EB9242BE
:1013D0001CB9214D554305600BE01D4D6D6805F4AA
:1013E00000351DB11C4D5543056002E0194D5543B4
:1013F000056002E0174D056000BF00BF144D6D6829
:1014000005F0F0010909154D6B5C0568DD4045608C
:101410000F4D6D6805F4E061090A104D6B5C45687D
:10142000DD4085600A4D6D6805F46051C90A0B4DB9
:101430006B5C4568DD40C560054D6D6805F4404155
:10144000890B074D6B5CC568B5FBF3F5056130BDD5
:101450000010024000127A0000093D000000002048
:1014600010000020704710B500F002F810BD000019
:101470000CB50020019000903348006840F48030A3
:101480003149086000BF3048006800F40030009027
:101490000198401C0190009818B90198B0F5A06F10
:1014A000F1D12948006800F4003010B1012000900B
:1014B00001E0002000900098012843D123480068F3
:1014C00040F01000214908600846006820F0030041
:1014D00008600846006840F0020008601A4840684A
:1014E000194948600846406848600846406840F42A
:1014F000806048600846406820F47C1048600846D8
:10150000406840F4E81048600846006840F0807089
:10151000086000BF0C48006800F000700028F9D097
:101520000948406820F003000749486008464068C1
:1015300040F00200486000BF0348406800F00C0023
:101540000828F9D10CBD0000001002400020024024
:10155000042808D14FF0E021096941F004014FF05F
:10156000E022116107E04FF0E021096921F0040158
:101570004FF0E022116170477047000010B504463B
:101580006FF00400FFF7E4FFE11704EB5171C1F3C2
:10159000C701074A11701046007800EB4001C1EB0B
:1015A000C0104FF6FF7101EAC0000249088010BD6B
:1015B000C0000020C200002010B51348006840F0B1
:1015C00001001149086008464068104908400E496A
:1015D0004860084600680E4908400B490860084604
:1015E000006820F4802008600846406820F4FE006F
:1015F00048604FF41F008860FFF735FF4FF0006030
:101600000449086010BD0000001002400000FFF80F
:10161000FFFFF6FE08ED00E0F0B50C46154600228F
:101620000021068C4FF6FE773E400684028B018C2B
:101630004FF60C7632407E1C06EA03162E433243E8
:10164000104EB0420ED0104EB0420BD0B0F1804FD1
:1016500008D00E4EB04205D00D4EB04202D00D4E15
:10166000B04206D14FF6FD76314044F001063143D9
:1016700005E04FF6F576314044F001063143028330
:101680000184F0BD002C0140003401400004004002
:1016900000080040000C0040F0B50C461546002242
:1016A00000210026078C4FF6EF7C07EA0C07078421
:1016B000028B018C4FF6FF7707EA041640F6FF47CE
:1016C0003A404FF6FF7707EA03373A434FF6FF7782
:1016D00007EA05273A43114FB8420ED0104FB842DF
:1016E0000BD0B0F1804F08D00E4FB84205D00E4F4E
:1016F000B84202D00D4FB84206D14FF6DF773940DD
:1017000046F01007394305E04FF65F77394044F063
:101710001007394302830184F0BD0000002C014012
:10172000003401400004004000080040000C00406C
:10173000F0B50C461546002200210026078C4FF616
:10174000FF6C07EA0C070784828B018C4FF6FF774A
:1017500007EA04264FF60C773A404FF6FF7707EA80
:1017600003172F433A43114FB8420ED0104FB842DF
:101770000BD0B0F1804F08D00E4FB84205D00E4FBD
:10178000B84202D00D4FB84206D14FF6FF5739404C
:1017900046F48077394305E04FF2FF57394044F46F
:1017A0008077394382830184F0BD0000002C014022
:1017B000003401400004004000080040000C0040DC
:1017C000F0B50C461546002200210026078C4EF687
:1017D000FF7C07EA0C070784828B018C4FF6FF77AA
:1017E00007EA043640F6FF473A404FF6FF7707EA2C
:1017F00005273A434FF6FF7707EA03373A43114F7D
:10180000B8420ED0104FB8420BD0B0F1804F08D084
:101810000E4FB84205D00E4FB84202D00D4FB8421D
:1018200006D14DF6FF77394046F48057394305E03D
:1018300047F6FF57394044F4805739438283018487
:10184000F0BD0000002C01400034014000040040C5
:1018500000080040000C004010B50121F74800F0DE
:10186000BFFB012871D1F648007800286ED1F548F9
:10187000007802286BD1F44800780E280ED2DFE8F9
:1018800000F0070E161E2E517E95BFCCD4DFF8F562
:10189000FFF7A6FB012801D1EB4908703DE1FEF7F7
:1018A00079FF012802D10220E749087035E1FFF7EE
:1018B00001FD012802D10320E34908702DE14FF416
:1018C000C861E24800F0BBFC0020E14908704FF419
:1018D000FA7001F007F80420DB4908701DE1DC48CC
:1018E00000780B2806D10520D74908700120D94976
:1018F000087012E1D64800780A2812D140F214513B
:10190000D24800F09CFC0020D14908704FF4FA70D6
:1019100000F0E8FF0620CC4908700120CD4908708E
:10192000FBE0FAE0CB480078012806D002280FD06F
:10193000032815D0042820D11AE0FFF779FA0128EE
:1019400002D10220C349087017E04AE24AE2E5E00A
:10195000FEF7ECFE012802D10320BE4908700CE01E
:10196000FFF706FC012802D10420BA49087004E000
:101970000120B949086000BFFEE700BFCDE0B448D0
:1019800000780B2806D10720AF4908700120B14923
:101990000870C2E0AE4800780A2806D10820AA499B
:1019A00008700120AB490870B7E0B6E0A94800789C
:1019B000012806D002280CD0032812D004281DD1FB
:1019C00017E0FFF7A5F9012802D10220A14908700C
:1019D00014E0FEF7DFFE012802D103209D490870C4
:1019E0000CE0FFF7FBFB012802D1042099490870A5
:1019F00004E001209849086000BFFEE700BF8CE0CA
:101A00004FF4C861914800F01AFCFEF78DFD0128E3
:101A100002D109208C4908707FE0FFF7EFF8012818
:101A200002D10A208849087077E0002088490870B0
:101A30004FF4FA7000F056FF0B20834908706CE0F9
:101A4000834800780B2806D10C207F4908700120BC
:101A50008049087061E07E4800780A2808D10D208E
:101A60007949087001207B49087056E02BE000E0BE
:101A700053E078480078012806D002280CD00328CB
:101A800012D004281DD117E0FFF7A2F9012802D1D6
:101A900002207049087014E0FEF714FE012802D1FC
:101AA00003206C4908700CE0FFF7CEFB012802D13F
:101AB00004206849087004E001206749086000BFFD
:101AC000FEE700BF29E063480078012806D002281D
:101AD0000CD0032812D004281DD117E0FFF778F9A5
:101AE000012802D102205B49087014E0FEF752FE83
:101AF000012802D10320574908700CE0FFF7A4FB2E
:101B0000012802D104205349087004E00120524901
:101B1000086000BFFEE700BF00BF00E24948007850
:101B20000128FAD1484800780E280ED2DFE800F0EC
:101B3000070E161E2E517BA2CCD9E1ECF8F7FFF769
:101B40004FFA012801D1404908704AE1FEF720FD13
:101B5000012802D102203C49087042E1FFF7AAFBAC
:101B6000012802D10320384908703AE14FF4C861D6
:101B7000364800F064FB0020354908704FF4FA70D5
:101B800000F0B0FE0420304908702AE130480078A7
:101B90000B2806D105202C49087001202D4908701A
:101BA0001FE12B4800780A2812D140F2145127482F
:101BB00000F045FB0020264908704FF4FA7000F051
:101BC00091FE06202049087001202249087008E192
:101BD00007E120480078012806D002280CD003280D
:101BE00012D004281DD117E0FFF756F8012802D1C2
:101BF00002201849087014E0FEF730FD012802D1D8
:101C00000320144908700CE0FFF7B2FA012802D152
:101C100004201049087004E001200F49086000BF4B
:101C2000FEE700BFDDE00A4800780B2816D1072048
:101C300005490870012007490870D2E000100040F3
:101C4000BF000020C8000020BA000020002C014086
:101C5000C6000020BB000020BC012242B248007830
:101C60000A2806D10820B14908700120B04908703F
:101C7000B7E0B6E0AE480078012806D002280CD0C4
:101C8000032812D004281DD117E0FFF741F80128DE
:101C900002D10220A649087014E0FEF77BFD01285E
:101CA00002D10320A24908700CE0FFF797FA01283F
:101CB00002D104209E49087004E001209D4908607B
:101CC00000BFFEE700BF8CE04FF4C8619A4800F007
:101CD000B6FAFEF729FC012802D1092093490870C1
:101CE0007FE0FEF78BFF012802D10A208F490870A0
:101CF00077E000208C4908704FF4FA7000F0F2FD94
:101D00000B208A4908706CE0874800780B2808D1BE
:101D10000C208649087001208549087061E036E092
:101D20000BE0814800780A2806D10D207F49087011
:101D300001207F49087054E053E07D480078012875
:101D400006D002280CD0032812D004281DD117E099
:101D5000FFF70EF8012802D102207549087014E03F
:101D6000FEF716FC012802D10320714908700CE02F
:101D7000FFF76AFA012802D104206D49087004E0D7
:101D800001206C49086000BFFEE700BF29E06848F9
:101D90000078012806D002280CD0032812D004288D
:101DA0001DD117E0FFF794F8012802D10220604905
:101DB000087014E0FEF7EEFC012802D103205C4914
:101DC00008700CE0FFF740FA012802D104205849BE
:101DD000087004E001205749086000BFFEE700BF1B
:101DE00000BF9CE05148007806280AD2DFE800F0E6
:101DF000030A121F3666FFF79BF8012801D14B49F1
:101E000008708BE001204B490839086002204749DF
:101E1000087083E049480078092807D10020454927
:101E20000839086003204149087077E076E04348AC
:101E30000078032806D104203C49087001203C4961
:101E400008706BE03D480078042806D1052037492A
:101E5000087001203649087060E05FE0344800787F
:101E6000062829D2DFE800F028030B131B23FEF716
:101E70005BFB012802D102202D4908701CE0FEF70F
:101E800069FA012802D103202949087014E0FEF7FD
:101E9000B1FC012802D10420254908700CE0FFF7AD
:101EA00031F9012802D105202149087004E0012000
:101EB0002049086000BFFEE700BF2FE01C48007803
:101EC000062829D2DFE800F028030B131B23FEF7B6
:101ED0002BFB012802D10220154908701CE0FEF7F7
:101EE00039FA012802D103201149087014E0FEF7E5
:101EF00083FB012802D104200D4908700CE0FFF794
:101F0000CBF8012802D105200949087004E001201E
:101F10000849086000BFFEE700BF00BF00BF012105
:101F2000074800F01BF810BDC6000020BA000020D2
:101F3000BB000020BC012242002C0140C800002050
:101F40000010004021B1028842F08002028004E0CB
:101F500002884FF67F731A4002807047CA4302829C
:101F6000704721B1028842F00102028004E0028839
:101F70004FF6FE731A400280704731B1B0F844202A
:101F800042F40042A0F8442005E0B0F84420C2F337
:101F90000E02A0F844207047F0B50C4615461E46C8
:101FA0000021002200230189028B038C4FF6F87771
:101FB000394021434FF6FC473A4040F201173A437B
:101FC0004FF6DD773B404FF6FF7707EA06172F43C2
:101FD0003B43018102830384F0BD0146888C704736
:101FE00030B50246002000230024158A05EA0103CB
:101FF000958905EA010413B10CB1012000E000202D
:1020000030BD000070B505460C46244885420ED010
:10201000234885420BD0B5F1804F08D02148854236
:1020200005D02148854202D02048854200D100E0F9
:1020300000BF208850B92389A28861882846FFF70D
:10204000EBFAE188284600F000F925E02088042812
:102050000AD12389A28861882846FFF71DFBE18801
:10206000284600F0FBF817E0208808280AD12389C9
:10207000A28861882846FFF75BFBE188284600F0CC
:10208000FAF809E02389A28861882846FFF798FBBF
:10209000E188284600F0F8F870BD0000002C0140EF
:1020A000003401400004004000080040000C0040E3
:1020B000002101804180012181800021C1800181B6
:1020C00070471AB183890B43838102E083898B4374
:1020D0008381704770B5002400220023058C4FF6E1
:1020E000FE7635400584028C8388048B4FF68F750D
:1020F0002C40B51E2C400D882C43751E2A400D899E
:102100002A434D882A43144DA8420BD0134DA842B0
:1021100008D0134DA84205D0124DA84202D0124D4E
:10212000A84213D14FF6F7752A404D892A434FF63E
:10213000FB752A408D882A434FF6FF652B404FF6EA
:10214000FF552B408D892B43CD892B4383800483FE
:10215000CD888586028470BD002C0140003401408A
:102160000040014000440140004801400A4600216F
:10217000018B4FF6F773194011430183704700003C
:1021800070B5002400220023058C4FF6EF76354011
:102190000584028C8388048B48F6FF752C404FF62B
:1021A000FF452C400D884FF6FF7606EA05252C43A7
:1021B0004FF6DF752A400D8906EA05152A434D883A
:1021C00006EA05152A43154DA84202D0144DA8422F
:1021D0001DD14FF67F752A404D894FF6FF7606EAEE
:1021E00005152A434FF6BF752A408D8806EA051566
:1021F0002A434FF6FF352B404FF2FF752B408D8958
:1022000006EA85052B43CD8906EA85052B438380A5
:102210000483CD880587028470BD0000002C014036
:10222000003401400A460021018B4FF2FF73194030
:102230004FF6FF7303EA0223194301837047818637
:1022400070470187704781847047028B4FF6F373A4
:102250001A400283028B0A4302837047028B4FF2BB
:10226000FF331A400283028B4FF6FF7303EA012308
:102270001A4302837047828B4FF6F3731A408283AE
:10228000828B0A4382837047828B4FF2FF331A405E
:102290008283828B4FF6FF7303EA01231A43828302
:1022A00070470000002202881D4B98420ED01D4B43
:1022B00098420BD0B0F1804F08D01B4B984205D00C
:1022C0001A4B984202D01A4B984204D14FF68F73A2
:1022D0001A404B881A43174B984207D0164B984226
:1022E00004D04FF6FF431A40CB881A4302808B88F4
:1022F00083850B8803850A4B98420BD0094B984283
:1023000008D00E4B984205D00D4B984202D00D4B91
:10231000984201D10B7A0386012383827047000023
:10232000002C01400034014000040040000800403F
:10233000000C00400010004000140040004001402C
:1023400000440140004801404FF6FF7181800021A8
:102350000180C180418001727047000030B589B0B2
:1023600005460C460121C802FFF702F801210420AE
:10237000FEF7FEFF01210846FEF7FAFF4FF48070DA
:10238000ADF8200018208DF8230003208DF82200DE
:1023900008A91748FEF738F8ADF81850ADF8144002
:1023A0000020ADF81A00ADF8160005A91148FFF796
:1023B00079FF6020ADF804000020ADF80C0001208A
:1023C000ADF8060001210B48FFF7D7FD01A9094828
:1023D000FFF780FE08210748FFF7C8FE01210548E6
:1023E000FFF7B0FD01210348FFF7BBFD09B030BD89
:1023F00000080140002C01407FB505460C46012134
:102400001020FEF7A5FFADF80850ADF804400020FD
:10241000ADF80A00ADF8060001A90F48FFF742FF2A
:1024200001210D48FFF79AFD012211460A48FFF7E6
:1024300048FE36208DF8000000208DF801000120B4
:102440008DF802008DF803006846FEF79DFB012120
:102450000148FFF786FD7FBD0010004010B540F237
:102460002551074800F063F820B1054800F01AF93B
:10247000044908704021024800F044F810BD0000F3
:10248000004C0040C800002010B540F2255107481C
:1024900000F04DF828B1054800F004F940B20449B5
:1024A00008704021014800F02DF810BD00380140AF
:1024B000C400002010B540F225510E4800F037F856
:1024C00090B10C4800F0EEF8C4B2092C08DA0A48C2
:1024D000007828B90120084908700848047003E012
:1024E000092C01DD064804704021024800F00AF87A
:1024F00010BD000000480040C9000020C7000020B7
:10250000C600002001F40072B2F5007F00D100BFC8
:10251000CA430280704721B1828942F4005282810D
:1025200004E082894DF6FF731A408281704770B5CE
:102530000246002400230025002040F66A16B1421E
:1025400000D100BFC1F3421501F01F03012606FAB6
:1025500003F3012D02D19689334006E0022D02D10A
:10256000168A334001E0968A33400C12012606FA9F
:1025700004F41688344013B10CB1012000E00020AF
:1025800070BDF0B50346002400260025002040F66B
:102590006A17B94200D100BF1846C1F3421401F0D6
:1025A0001F06012707FA06F5012C01D10C3004E0C3
:1025B000022C01D1103000E014301AB107682F430B
:1025C000076002E00768AF430760F0BD2DE9F04700
:1025D00086B005460E460024A24600BFA14600274D
:1025E000B08900B100BF2F462C8A4CF6FF70044022
:1025F000F08804432C82AC894EF6F3100440B08876
:1026000031890843718908430443AC81AC8A4FF691
:10261000FF400440B0890443AC8201A8FEF7B8FE35
:102620001F48874202D1DDF810A001E0DDF80CA0C0
:10263000A88900F4004040B10AEBCA0000EB0A1080
:1026400031684900B0FBF1F807E00AEBCA0000EB83
:102650000A1031688900B0FBF1F86420B8FBF0F093
:1026600004012009642101FB1089A88900F40040BD
:1026700040B1322000EBC900B0FBF1F000F00700E0
:10268000044308E0322000EB09106421B0FBF1F0B4
:1026900000F00F0004432C8106B0BDE8F087000075
:1026A0000038014001468888C0F3080070470000E8
:1026B00010B586B0044601211020FEF759FE012115
:1026C000C804FEF745FE4FF48060ADF81400032007
:1026D0008DF8160018208DF8170005A91E48FDF783
:1026E00093FE4FF40060ADF8140004208DF817003D
:1026F00005A91948FDF788FE01940020ADF80800EF
:10270000ADF80A00ADF80C00ADF810000C20ADF8E3
:102710000E0001A91148FFF759FF01210F48FFF7EB
:10272000FAFE40210D48FFF7EDFE012240F225514F
:102730000A48FFF726FF34208DF8000000208DF8AE
:1027400001008DF8020001208DF803006846FEF7B5
:102750001BFA06B010BD000000100140004C004004
:1027600000BFFEE710B586B0044601210420FEF745
:10277000FFFD01218803FEF7FBFD4FF40070ADF86B
:10278000140003208DF8160018208DF8170005A9F5
:102790001E48FDF739FE4FF48060ADF814000420A8
:1027A0008DF8170005A91948FDF72EFE01940020A9
:1027B000ADF80800ADF80A00ADF80C00ADF8100057
:1027C0000C20ADF80E0001A91148FFF7FFFE012112
:1027D0000F48FFF7A0FE40210D48FFF793FE0122AE
:1027E00040F225510A48FFF7CCFE25208DF8000065
:1027F00000208DF8010002208DF8020001208DF8E4
:1028000003006846FEF7C0F906B010BD000801409D
:102810000038014010B586B0044601210820FEF7BB
:10282000A7FD01218804FEF793FD4FF48060ADF809
:10283000140003208DF8160018208DF8170005A944
:102840001E48FDF7E1FD4FF40060ADF814000420D0
:102850008DF8170005A91948FDF7D6FD0194002051
:10286000ADF80800ADF80A00ADF80C00ADF81000A6
:102870000C20ADF80E0001A91148FFF7A7FE0121B9
:102880000F48FFF748FE40210D48FFF73BFE0122AD
:1028900040F225510A48FFF774FE27208DF800000A
:1028A00000208DF8010001208DF802008DF8030052
:1028B0006846FEF769F906B010BD0000000C014043
:1028C0000048004002E008C8121F08C1002AFAD1DF
:1028D00070477047002001E001C1121F002AFBD1A0
:1028E000704700000146114A12884A434FF0E02326
:1028F0005A6100229A611A46126942F001021A6175
:1029000000BF4FF0E022106900F001021AB100F49C
:102910008032002AF5D04FF0E022126922F0010245
:102920004FF0E0231A6100229A617047C200002034
:1029300000244820FEF722FEFDF7B4FFFDF78CFFD0
:102940000A2141F61F40FEF713F8472144F61F60A5
:10295000FFF704FD4FF4C8612C48FFF770FC4FF4FB
:10296000E130FFF7FFFE4FF4E130FFF753FF4FF484
:10297000E130FFF79DFEFDF739FC00202449087087
:1029800007202449087040F2DC50FFF7ABFF40F20B
:10299000DC50FFF7A7FF00BF1F4800780028FBD0DE
:1029A0001E48006808B9012000E000201B490860AB
:1029B00000BFFDF765FF18B9194800780028F8D066
:1029C000FDF75EFF012802D11649087002E00020E1
:1029D0001449087040F2CF2140F2E730FFF70CFDB8
:1029E00013E0601C84B2322094FBF0F100FB114034
:1029F00040B900240948006808B9012000E000201F
:102A0000064908600A20FFF76DFFEAE7002C014045
:102A1000BA000020C6000020C700002088812242A2
:102A2000C8000020BF000020482A00080000002045
:102A3000CC000000C4280008142B0008CC000020A3
:102A400004040000D4280008000000000102030470
:102A5000010203040607080902040608000000003A
:102A60000000000000000000000000000000000066
:102A70000000000000000000000000000000000056
:102A80000000000000000000000000000000000046
:102A90000000000000000000000000000000000036
:102AA0000000000000000000000000000000000026
:102AB0000000000000000000000000000000000016
:102AC0000000000000000000000000000000000006
:102AD00000000000000000000000000000000000F6
:102AE00000000000000000000000000000000000E6
:102AF00000000000000000000000000000000000D6
:102B000000000000000000000000000000000000C5
:042B100000000000C1
:0400000508000131BD
:00000001FF
